{
  "_format": "hh-sol-artifact-1",
  "contractName": "QuadraticVoting",
  "sourceName": "contracts/QuadraticVoting.sol",
  "abi": [
    {
      "inputs": [
        {
          "internalType": "uint256",
          "name": "initialProposingPeriod",
          "type": "uint256"
        },
        {
          "internalType": "uint256",
          "name": "initialVotingPeriod",
          "type": "uint256"
        },
        {
          "internalType": "uint256",
          "name": "initialProposalThreshold",
          "type": "uint256"
        }
      ],
      "stateMutability": "nonpayable",
      "type": "constructor"
    },
    {
      "anonymous": false,
      "inputs": [
        {
          "indexed": false,
          "internalType": "bytes32",
          "name": "cycleHash",
          "type": "bytes32"
        }
      ],
      "name": "CycleCreated",
      "type": "event"
    },
    {
      "anonymous": false,
      "inputs": [
        {
          "indexed": false,
          "internalType": "uint256",
          "name": "additionalDays",
          "type": "uint256"
        }
      ],
      "name": "ExtendedProposalPeriod",
      "type": "event"
    },
    {
      "anonymous": false,
      "inputs": [
        {
          "indexed": true,
          "internalType": "address",
          "name": "previousOwner",
          "type": "address"
        },
        {
          "indexed": true,
          "internalType": "address",
          "name": "newOwner",
          "type": "address"
        }
      ],
      "name": "OwnershipTransferred",
      "type": "event"
    },
    {
      "anonymous": false,
      "inputs": [
        {
          "indexed": false,
          "internalType": "bytes32",
          "name": "cycleHash",
          "type": "bytes32"
        },
        {
          "indexed": false,
          "internalType": "string",
          "name": "proposalHash",
          "type": "string"
        }
      ],
      "name": "ProposalCreated",
      "type": "event"
    },
    {
      "anonymous": false,
      "inputs": [
        {
          "indexed": false,
          "internalType": "uint256",
          "name": "oldProposalThreshold",
          "type": "uint256"
        },
        {
          "indexed": false,
          "internalType": "uint256",
          "name": "newProposalThreshold",
          "type": "uint256"
        }
      ],
      "name": "ProposalThresholdSet",
      "type": "event"
    },
    {
      "anonymous": false,
      "inputs": [
        {
          "indexed": false,
          "internalType": "uint256",
          "name": "oldProposingPeriod",
          "type": "uint256"
        },
        {
          "indexed": false,
          "internalType": "uint256",
          "name": "newProposingPeriod",
          "type": "uint256"
        }
      ],
      "name": "ProposingPeriodSet",
      "type": "event"
    },
    {
      "anonymous": false,
      "inputs": [
        {
          "indexed": false,
          "internalType": "address",
          "name": "voter",
          "type": "address"
        },
        {
          "indexed": false,
          "internalType": "string",
          "name": "proposalHash",
          "type": "string"
        },
        {
          "indexed": false,
          "internalType": "bool",
          "name": "voteDirection",
          "type": "bool"
        },
        {
          "indexed": false,
          "internalType": "uint256",
          "name": "castVotes",
          "type": "uint256"
        }
      ],
      "name": "VoteCast",
      "type": "event"
    },
    {
      "anonymous": false,
      "inputs": [
        {
          "indexed": false,
          "internalType": "uint256",
          "name": "oldVotingPeriod",
          "type": "uint256"
        },
        {
          "indexed": false,
          "internalType": "uint256",
          "name": "newVotingPeriod",
          "type": "uint256"
        }
      ],
      "name": "VotingPeriodSet",
      "type": "event"
    },
    {
      "inputs": [
        {
          "internalType": "address",
          "name": "_voterAddress",
          "type": "address"
        },
        {
          "internalType": "string",
          "name": "_proposalHash",
          "type": "string"
        },
        {
          "internalType": "uint256",
          "name": "_numTokens",
          "type": "uint256"
        },
        {
          "internalType": "bool",
          "name": "_voteDirection",
          "type": "bool"
        }
      ],
      "name": "castVote",
      "outputs": [],
      "stateMutability": "nonpayable",
      "type": "function"
    },
    {
      "inputs": [
        {
          "internalType": "bytes32",
          "name": "_cycleHash",
          "type": "bytes32"
        },
        {
          "internalType": "string",
          "name": "_proposalHash",
          "type": "string"
        }
      ],
      "name": "countVotesForProposal",
      "outputs": [
        {
          "internalType": "uint256",
          "name": "",
          "type": "uint256"
        },
        {
          "internalType": "uint256",
          "name": "",
          "type": "uint256"
        }
      ],
      "stateMutability": "view",
      "type": "function"
    },
    {
      "inputs": [
        {
          "internalType": "string",
          "name": "_proposalHash",
          "type": "string"
        }
      ],
      "name": "createProposal",
      "outputs": [],
      "stateMutability": "nonpayable",
      "type": "function"
    },
    {
      "inputs": [
        {
          "internalType": "bytes32",
          "name": "",
          "type": "bytes32"
        }
      ],
      "name": "cycles",
      "outputs": [
        {
          "internalType": "bytes32",
          "name": "cycleHash",
          "type": "bytes32"
        },
        {
          "internalType": "uint256",
          "name": "proposingDeadline",
          "type": "uint256"
        },
        {
          "internalType": "uint256",
          "name": "proposalCount",
          "type": "uint256"
        },
        {
          "internalType": "uint256",
          "name": "votingCredits",
          "type": "uint256"
        }
      ],
      "stateMutability": "view",
      "type": "function"
    },
    {
      "inputs": [
        {
          "internalType": "uint256",
          "name": "_additionalDays",
          "type": "uint256"
        }
      ],
      "name": "extendCycle",
      "outputs": [],
      "stateMutability": "nonpayable",
      "type": "function"
    },
    {
      "inputs": [],
      "name": "getCurrentCycleHash",
      "outputs": [
        {
          "internalType": "bytes32",
          "name": "",
          "type": "bytes32"
        }
      ],
      "stateMutability": "view",
      "type": "function"
    },
    {
      "inputs": [
        {
          "internalType": "bytes32",
          "name": "_cycleHash",
          "type": "bytes32"
        }
      ],
      "name": "getCycleProposingDeadline",
      "outputs": [
        {
          "internalType": "uint256",
          "name": "",
          "type": "uint256"
        }
      ],
      "stateMutability": "view",
      "type": "function"
    },
    {
      "inputs": [
        {
          "internalType": "bytes32",
          "name": "_cycleHash",
          "type": "bytes32"
        }
      ],
      "name": "getCycleStatus",
      "outputs": [
        {
          "internalType": "enum QuadraticVoting.CycleStatus",
          "name": "",
          "type": "uint8"
        }
      ],
      "stateMutability": "view",
      "type": "function"
    },
    {
      "inputs": [
        {
          "internalType": "bytes32",
          "name": "_cycleHash",
          "type": "bytes32"
        }
      ],
      "name": "getCycleVotingDeadline",
      "outputs": [
        {
          "internalType": "uint256",
          "name": "",
          "type": "uint256"
        }
      ],
      "stateMutability": "view",
      "type": "function"
    },
    {
      "inputs": [],
      "name": "owner",
      "outputs": [
        {
          "internalType": "address",
          "name": "",
          "type": "address"
        }
      ],
      "stateMutability": "view",
      "type": "function"
    },
    {
      "inputs": [],
      "name": "proposalThreshold",
      "outputs": [
        {
          "internalType": "uint256",
          "name": "",
          "type": "uint256"
        }
      ],
      "stateMutability": "view",
      "type": "function"
    },
    {
      "inputs": [],
      "name": "proposingPeriod",
      "outputs": [
        {
          "internalType": "uint256",
          "name": "",
          "type": "uint256"
        }
      ],
      "stateMutability": "view",
      "type": "function"
    },
    {
      "inputs": [],
      "name": "renounceOwnership",
      "outputs": [],
      "stateMutability": "nonpayable",
      "type": "function"
    },
    {
      "inputs": [
        {
          "internalType": "uint256",
          "name": "_newProposalThreshold",
          "type": "uint256"
        }
      ],
      "name": "setProposalThreshold",
      "outputs": [],
      "stateMutability": "nonpayable",
      "type": "function"
    },
    {
      "inputs": [
        {
          "internalType": "uint256",
          "name": "_newProposingPeriod",
          "type": "uint256"
        }
      ],
      "name": "setProposingPeriod",
      "outputs": [],
      "stateMutability": "nonpayable",
      "type": "function"
    },
    {
      "inputs": [
        {
          "internalType": "uint256",
          "name": "_newVotingPeriod",
          "type": "uint256"
        }
      ],
      "name": "setVotingPeriod",
      "outputs": [],
      "stateMutability": "nonpayable",
      "type": "function"
    },
    {
      "inputs": [
        {
          "internalType": "address",
          "name": "newOwner",
          "type": "address"
        }
      ],
      "name": "transferOwnership",
      "outputs": [],
      "stateMutability": "nonpayable",
      "type": "function"
    },
    {
      "inputs": [],
      "name": "votingPeriod",
      "outputs": [
        {
          "internalType": "uint256",
          "name": "",
          "type": "uint256"
        }
      ],
      "stateMutability": "view",
      "type": "function"
    }
  ],
  "bytecode": "0x60806040523480156200001157600080fd5b5060405162002d8438038062002d84833981810160405281019062000037919062000436565b8282826200005a6200004e6200009960201b60201c565b620000a160201b60201c565b6200006b836200016560201b60201c565b6200007c826200020260201b60201c565b6200008d816200029f60201b60201c565b5050505050506200071b565b600033905090565b60008060009054906101000a900473ffffffffffffffffffffffffffffffffffffffff169050816000806101000a81548173ffffffffffffffffffffffffffffffffffffffff021916908373ffffffffffffffffffffffffffffffffffffffff1602179055508173ffffffffffffffffffffffffffffffffffffffff168173ffffffffffffffffffffffffffffffffffffffff167f8be0079c531659141344cd1fd0a4f28419497f9722a3daafe3b4186f6b6457e060405160405180910390a35050565b620001756200033c60201b60201c565b60008111620001bb576040517f08c379a0000000000000000000000000000000000000000000000000000000008152600401620001b29062000519565b60405180910390fd5b7f3c3b22cef1385e7e3a7aee7a13e0c406644197372c4c7e697fd1981f1f6e75e760015482604051620001f09291906200054c565b60405180910390a18060018190555050565b620002126200033c60201b60201c565b6000811162000258576040517f08c379a00000000000000000000000000000000000000000000000000000000081526004016200024f90620005ef565b60405180910390fd5b7f7e3f7f0708a84de9203036abaa450dccc85ad5ff52f78c170f3edb55cf5e8828600254826040516200028d9291906200054c565b60405180910390a18060028190555050565b620002af6200033c60201b60201c565b60008111620002f5576040517f08c379a0000000000000000000000000000000000000000000000000000000008152600401620002ec9062000687565b60405180910390fd5b7fccb45da8d5717e6c4544694297c4ba5cf151d455c9bb0ed4fc7a38411bc05461600354826040516200032a9291906200054c565b60405180910390a18060038190555050565b6200034c6200009960201b60201c565b73ffffffffffffffffffffffffffffffffffffffff1662000372620003cd60201b60201c565b73ffffffffffffffffffffffffffffffffffffffff1614620003cb576040517f08c379a0000000000000000000000000000000000000000000000000000000008152600401620003c290620006f9565b60405180910390fd5b565b60008060009054906101000a900473ffffffffffffffffffffffffffffffffffffffff16905090565b600080fd5b6000819050919050565b6200041081620003fb565b81146200041c57600080fd5b50565b600081519050620004308162000405565b92915050565b600080600060608486031215620004525762000451620003f6565b5b600062000462868287016200041f565b935050602062000475868287016200041f565b925050604062000488868287016200041f565b9150509250925092565b600082825260208201905092915050565b7f4379636c6553657474696e67733a2070726f706f73696e6720706572696f642060008201527f746f6f206c6f7700000000000000000000000000000000000000000000000000602082015250565b60006200050160278362000492565b91506200050e82620004a3565b604082019050919050565b600060208201905081810360008301526200053481620004f2565b9050919050565b6200054681620003fb565b82525050565b60006040820190506200056360008301856200053b565b6200057260208301846200053b565b9392505050565b7f4379636c6553657474696e67733a20766f74696e6720706572696f6420746f6f60008201527f206c6f7700000000000000000000000000000000000000000000000000000000602082015250565b6000620005d760248362000492565b9150620005e48262000579565b604082019050919050565b600060208201905081810360008301526200060a81620005c8565b9050919050565b7f4379636c6553657474696e67733a2070726f706f73616c207468726573686f6c60008201527f6420746f6f206c6f770000000000000000000000000000000000000000000000602082015250565b60006200066f60298362000492565b91506200067c8262000611565b604082019050919050565b60006020820190508181036000830152620006a28162000660565b9050919050565b7f4f776e61626c653a2063616c6c6572206973206e6f7420746865206f776e6572600082015250565b6000620006e160208362000492565b9150620006ee82620006a9565b602082019050919050565b600060208201905081810360008301526200071481620006d2565b9050919050565b612659806200072b6000396000f3fe608060405234801561001057600080fd5b50600436106101155760003560e01c80637d9ae22b116100a2578063cd0b5db611610071578063cd0b5db6146102d2578063e063c8d3146102ee578063ea0217cf1461031e578063ece40cc11461033a578063f2fde38b1461035657610115565b80637d9ae22b1461025c57806387c37cfd1461027a5780638da5cb5b14610296578063b58131b0146102b457610115565b8063263df4d1116100e9578063263df4d1146101ba5780633712a5b2146101ea57806349c2a1a61461021a5780634b5b119914610236578063715018a61461025257610115565b80624094901461011a57806302a251a31461014d5780630930601f1461016b57806311fb6bd31461019c575b600080fd5b610134600480360381019061012f919061150b565b610372565b6040516101449493929190611560565b60405180910390f35b6101556103a2565b60405161016291906115a5565b60405180910390f35b61018560048036038101906101809190611625565b6103ba565b604051610193929190611685565b60405180910390f35b6101a4610606565b6040516101b191906115a5565b60405180910390f35b6101d460048036038101906101cf919061150b565b61061e565b6040516101e191906115a5565b60405180910390f35b61020460048036038101906101ff919061150b565b61063e565b6040516102119190611725565b60405180910390f35b610234600480360381019061022f9190611740565b6106fb565b005b610250600480360381019061024b91906117b9565b610994565b005b61025a610a83565b005b610264610a97565b60405161027191906117e6565b60405180910390f35b610294600480360381019061028f91906117b9565b610aa1565b005b61029e610b31565b6040516102ab9190611842565b60405180910390f35b6102bc610b5a565b6040516102c991906115a5565b60405180910390f35b6102ec60048036038101906102e791906118c1565b610b64565b005b6103086004803603810190610303919061150b565b610f24565b60405161031591906115a5565b60405180910390f35b610338600480360381019061033391906117b9565b610f56565b005b610354600480360381019061034f91906117b9565b610fe6565b005b610370600480360381019061036b9190611949565b611076565b005b60066020528060005260406000206000915090508060000154908060010154908060020154908060050154905084565b6000620151806002546103b591906119a5565b905090565b60008060008060006006600089815260200190815260200160002060030187876040516103e8929190611a26565b908152602001604051809103902060030180548060200260200160405190810160405280929190818152602001828054801561047957602002820191906000526020600020905b8160009054906101000a900473ffffffffffffffffffffffffffffffffffffffff1673ffffffffffffffffffffffffffffffffffffffff168152602001906001019080831161042f575b5050505050905060005b81518110156105f45760008282815181106104a1576104a0611a3f565b5b602002602001015190506000600660008c81526020019081526020016000206003018a8a6040516104d3929190611a26565b908152602001604051809103902060040160008373ffffffffffffffffffffffffffffffffffffffff1673ffffffffffffffffffffffffffffffffffffffff16815260200190815260200160002060000160019054906101000a900460ff1690506000600660008d81526020019081526020016000206003018b8b60405161055c929190611a26565b908152602001604051809103902060040160008473ffffffffffffffffffffffffffffffffffffffff1673ffffffffffffffffffffffffffffffffffffffff16815260200190815260200160002060010154905060011515821515036105cf5780876105c89190611a6e565b96506105de565b80866105db9190611a6e565b95505b50505080806105ec90611aa2565b915050610483565b50828294509450505050935093915050565b60006201518060015461061991906119a5565b905090565b600060066000838152602001908152602001600020600101549050919050565b6000600660008381526020019081526020016000206001015442101561066757600090506106f6565b60006006600084815260200190815260200160002060020154141580156106aa5750610691610b5a565b6006600084815260200190815260200160002060020154105b156106b857600390506106f6565b6106c06103a2565b60066000848152602001908152602001600020600101546106e19190611a6e565b4210156106f157600190506106f6565b600290505b919050565b6107036110f9565b60026003811115610717576107166116ae565b5b61072260045461063e565b6003811115610734576107336116ae565b5b036107875761078682828080601f016020809104026020016040519081016040528093929190818152602001838380828437600081840152601f19601f82011690508083019250505050505050611177565b5b6000600381111561079b5761079a6116ae565b5b6107a660045461063e565b60038111156107b8576107b76116ae565b5b14806107f157506003808111156107d2576107d16116ae565b5b6107dd60045461063e565b60038111156107ef576107ee6116ae565b5b145b610830576040517f08c379a000000000000000000000000000000000000000000000000000000000815260040161082790611b6d565b60405180910390fd5b8181604051610840929190611bbd565b60405180910390206006600060045481526020019081526020016000206003018383604051610870929190611a26565b908152602001604051809103902060000160405161088e9190611cce565b6040518091039020036108d6576040517f08c379a00000000000000000000000000000000000000000000000000000000081526004016108cd90611d31565b60405180910390fd5b60006006600060045481526020019081526020016000206003018383604051610900929190611a26565b908152602001604051809103902090508282826000019182610923929190611f37565b50600660006004548152602001908152602001600020600201600081548092919061094d90611aa2565b91905055507f513ce06ee1eb0010bd9c7642e9e39cbded2d8147b81543fba031de0e669710ba600454848460405161098793929190612045565b60405180910390a1505050565b61099c6110f9565b6003808111156109af576109ae6116ae565b5b6109ba60045461063e565b60038111156109cc576109cb6116ae565b5b14610a0c576040517f08c379a0000000000000000000000000000000000000000000000000000000008152600401610a03906120c3565b60405180910390fd5b6201518081610a1b91906119a5565b6006600060045481526020019081526020016000206001016000828254610a429190611a6e565b925050819055507fe4307ebd75c11d78bf90149b242bd8495fa7fafb317cec7866f840c6bd6c3ed481604051610a7891906115a5565b60405180910390a150565b610a8b6110f9565b610a95600061121b565b565b6000600454905090565b610aa96110f9565b60008111610aec576040517f08c379a0000000000000000000000000000000000000000000000000000000008152600401610ae390612155565b60405180910390fd5b7f3c3b22cef1385e7e3a7aee7a13e0c406644197372c4c7e697fd1981f1f6e75e760015482604051610b1f929190611685565b60405180910390a18060018190555050565b60008060009054906101000a900473ffffffffffffffffffffffffffffffffffffffff16905090565b6000600354905090565b60016003811115610b7857610b776116ae565b5b610b8360045461063e565b6003811115610b9557610b946116ae565b5b14610bd5576040517f08c379a0000000000000000000000000000000000000000000000000000000008152600401610bcc906121e7565b60405180910390fd5b610be08585856112df565b15610c20576040517f08c379a0000000000000000000000000000000000000000000000000000000008152600401610c1790612279565b60405180910390fd5b6000151560066000600454815260200190815260200160002060040160008773ffffffffffffffffffffffffffffffffffffffff1673ffffffffffffffffffffffffffffffffffffffff16815260200190815260200160002060009054906101000a900460ff16151503610c9857610c9785611371565b5b600080610ced84600560008a73ffffffffffffffffffffffffffffffffffffffff1673ffffffffffffffffffffffffffffffffffffffff1681526020019081526020016000205461143e90919063ffffffff16565b80925081935050506001151582151514610d3c576040517f08c379a0000000000000000000000000000000000000000000000000000000008152600401610d33906122e5565b60405180910390fd5b80600560008973ffffffffffffffffffffffffffffffffffffffff1673ffffffffffffffffffffffffffffffffffffffff168152602001908152602001600020819055506000610d8b85611466565b905060006006600060045481526020019081526020016000206003018888604051610db7929190611a26565b9081526020016040518091039020905060405180606001604052806001151581526020018615158152602001838152508160040160008b73ffffffffffffffffffffffffffffffffffffffff1673ffffffffffffffffffffffffffffffffffffffff16815260200190815260200160002060008201518160000160006101000a81548160ff02191690831515021790555060208201518160000160016101000a81548160ff0219169083151502179055506040820151816001015590505080600301899080600181540180825580915050600190039060005260206000200160009091909190916101000a81548173ffffffffffffffffffffffffffffffffffffffff021916908373ffffffffffffffffffffffffffffffffffffffff1602179055507f53f1dbe2ceba78487a30e1afcbe7b30375c220ed56c4e9349a4e6fcfbd8280778989898886604051610f11959493929190612314565b60405180910390a1505050505050505050565b6000610f2e6103a2565b6006600084815260200190815260200160002060010154610f4f9190611a6e565b9050919050565b610f5e6110f9565b60008111610fa1576040517f08c379a0000000000000000000000000000000000000000000000000000000008152600401610f98906123d4565b60405180910390fd5b7f7e3f7f0708a84de9203036abaa450dccc85ad5ff52f78c170f3edb55cf5e882860025482604051610fd4929190611685565b60405180910390a18060028190555050565b610fee6110f9565b60008111611031576040517f08c379a000000000000000000000000000000000000000000000000000000000815260040161102890612466565b60405180910390fd5b7fccb45da8d5717e6c4544694297c4ba5cf151d455c9bb0ed4fc7a38411bc0546160035482604051611064929190611685565b60405180910390a18060038190555050565b61107e6110f9565b600073ffffffffffffffffffffffffffffffffffffffff168173ffffffffffffffffffffffffffffffffffffffff16036110ed576040517f08c379a00000000000000000000000000000000000000000000000000000000081526004016110e4906124f8565b60405180910390fd5b6110f68161121b565b50565b6111016114c3565b73ffffffffffffffffffffffffffffffffffffffff1661111f610b31565b73ffffffffffffffffffffffffffffffffffffffff1614611175576040517f08c379a000000000000000000000000000000000000000000000000000000000815260040161116c90612564565b60405180910390fd5b565b80805190602001206004819055506000600660006004548152602001908152602001600020905060045481600001819055506111b1610606565b426111bc9190611a6e565b81600101819055506064600660006004548152602001908152602001600020600501819055507fb56c4ba68eb29ddcc0bf30f5d5bc606ce762ee44a794102af39aba1582b784ed60405161120f906125aa565b60405180910390a15050565b60008060009054906101000a900473ffffffffffffffffffffffffffffffffffffffff169050816000806101000a81548173ffffffffffffffffffffffffffffffffffffffff021916908373ffffffffffffffffffffffffffffffffffffffff1602179055508173ffffffffffffffffffffffffffffffffffffffff168173ffffffffffffffffffffffffffffffffffffffff167f8be0079c531659141344cd1fd0a4f28419497f9722a3daafe3b4186f6b6457e060405160405180910390a35050565b60006006600060045481526020019081526020016000206003018383604051611309929190611a26565b908152602001604051809103902060040160008573ffffffffffffffffffffffffffffffffffffffff1673ffffffffffffffffffffffffffffffffffffffff16815260200190815260200160002060000160009054906101000a900460ff1690509392505050565b600160066000600454815260200190815260200160002060040160008373ffffffffffffffffffffffffffffffffffffffff1673ffffffffffffffffffffffffffffffffffffffff16815260200190815260200160002060006101000a81548160ff02191690831515021790555060066000600454815260200190815260200160002060050154600560008373ffffffffffffffffffffffffffffffffffffffff1673ffffffffffffffffffffffffffffffffffffffff1681526020019081526020016000208190555050565b60008083831115611455576000809150915061145f565b6001838503915091505b9250929050565b60008060026001846114789190611a6e565b61148291906125f2565b90508291505b818110156114bd5780915060028182856114a291906125f2565b6114ac9190611a6e565b6114b691906125f2565b9050611488565b50919050565b600033905090565b600080fd5b600080fd5b6000819050919050565b6114e8816114d5565b81146114f357600080fd5b50565b600081359050611505816114df565b92915050565b600060208284031215611521576115206114cb565b5b600061152f848285016114f6565b91505092915050565b611541816114d5565b82525050565b6000819050919050565b61155a81611547565b82525050565b60006080820190506115756000830187611538565b6115826020830186611551565b61158f6040830185611551565b61159c6060830184611551565b95945050505050565b60006020820190506115ba6000830184611551565b92915050565b600080fd5b600080fd5b600080fd5b60008083601f8401126115e5576115e46115c0565b5b8235905067ffffffffffffffff811115611602576116016115c5565b5b60208301915083600182028301111561161e5761161d6115ca565b5b9250929050565b60008060006040848603121561163e5761163d6114cb565b5b600061164c868287016114f6565b935050602084013567ffffffffffffffff81111561166d5761166c6114d0565b5b611679868287016115cf565b92509250509250925092565b600060408201905061169a6000830185611551565b6116a76020830184611551565b9392505050565b7f4e487b7100000000000000000000000000000000000000000000000000000000600052602160045260246000fd5b600481106116ee576116ed6116ae565b5b50565b60008190506116ff826116dd565b919050565b600061170f826116f1565b9050919050565b61171f81611704565b82525050565b600060208201905061173a6000830184611716565b92915050565b60008060208385031215611757576117566114cb565b5b600083013567ffffffffffffffff811115611775576117746114d0565b5b611781858286016115cf565b92509250509250929050565b61179681611547565b81146117a157600080fd5b50565b6000813590506117b38161178d565b92915050565b6000602082840312156117cf576117ce6114cb565b5b60006117dd848285016117a4565b91505092915050565b60006020820190506117fb6000830184611538565b92915050565b600073ffffffffffffffffffffffffffffffffffffffff82169050919050565b600061182c82611801565b9050919050565b61183c81611821565b82525050565b60006020820190506118576000830184611833565b92915050565b61186681611821565b811461187157600080fd5b50565b6000813590506118838161185d565b92915050565b60008115159050919050565b61189e81611889565b81146118a957600080fd5b50565b6000813590506118bb81611895565b92915050565b6000806000806000608086880312156118dd576118dc6114cb565b5b60006118eb88828901611874565b955050602086013567ffffffffffffffff81111561190c5761190b6114d0565b5b611918888289016115cf565b9450945050604061192b888289016117a4565b925050606061193c888289016118ac565b9150509295509295909350565b60006020828403121561195f5761195e6114cb565b5b600061196d84828501611874565b91505092915050565b7f4e487b7100000000000000000000000000000000000000000000000000000000600052601160045260246000fd5b60006119b082611547565b91506119bb83611547565b92508282026119c981611547565b915082820484148315176119e0576119df611976565b5b5092915050565b600081905092915050565b82818337600083830152505050565b6000611a0d83856119e7565b9350611a1a8385846119f2565b82840190509392505050565b6000611a33828486611a01565b91508190509392505050565b7f4e487b7100000000000000000000000000000000000000000000000000000000600052603260045260246000fd5b6000611a7982611547565b9150611a8483611547565b9250828201905080821115611a9c57611a9b611976565b5b92915050565b6000611aad82611547565b91507fffffffffffffffffffffffffffffffffffffffffffffffffffffffffffffffff8203611adf57611ade611976565b5b600182019050919050565b600082825260208201905092915050565b7f50726f706f73616c20636f6c6c656374696f6e207068617365206e6f7420616360008201527f7469766500000000000000000000000000000000000000000000000000000000602082015250565b6000611b57602483611aea565b9150611b6282611afb565b604082019050919050565b60006020820190508181036000830152611b8681611b4a565b9050919050565b600081905092915050565b6000611ba48385611b8d565b9350611bb18385846119f2565b82840190509392505050565b6000611bca828486611b98565b91508190509392505050565b7f4e487b7100000000000000000000000000000000000000000000000000000000600052602260045260246000fd5b60006002820490506001821680611c1d57607f821691505b602082108103611c3057611c2f611bd6565b5b50919050565b60008190508160005260206000209050919050565b60008154611c5881611c05565b611c628186611b8d565b94506001821660008114611c7d5760018114611c9257611cc5565b60ff1983168652811515820286019350611cc5565b611c9b85611c36565b60005b83811015611cbd57815481890152600182019150602081019050611c9e565b838801955050505b50505092915050565b6000611cda8284611c4b565b915081905092915050565b7f50726f706f73616c20616c726561647920696e206578697374656e6365000000600082015250565b6000611d1b601d83611aea565b9150611d2682611ce5565b602082019050919050565b60006020820190508181036000830152611d4a81611d0e565b9050919050565b600082905092915050565b7f4e487b7100000000000000000000000000000000000000000000000000000000600052604160045260246000fd5b60008190508160005260206000209050919050565b60006020601f8301049050919050565b600082821b905092915050565b600060088302611ded7fffffffffffffffffffffffffffffffffffffffffffffffffffffffffffffffff82611db0565b611df78683611db0565b95508019841693508086168417925050509392505050565b6000819050919050565b6000611e34611e2f611e2a84611547565b611e0f565b611547565b9050919050565b6000819050919050565b611e4e83611e19565b611e62611e5a82611e3b565b848454611dbd565b825550505050565b600090565b611e77611e6a565b611e82818484611e45565b505050565b5b81811015611ea657611e9b600082611e6f565b600181019050611e88565b5050565b601f821115611eeb57611ebc81611d8b565b611ec584611da0565b81016020851015611ed4578190505b611ee8611ee085611da0565b830182611e87565b50505b505050565b600082821c905092915050565b6000611f0e60001984600802611ef0565b1980831691505092915050565b6000611f278383611efd565b9150826002028217905092915050565b611f418383611d51565b67ffffffffffffffff811115611f5a57611f59611d5c565b5b611f648254611c05565b611f6f828285611eaa565b6000601f831160018114611f9e5760008415611f8c578287013590505b611f968582611f1b565b865550611ffe565b601f198416611fac86611d8b565b60005b82811015611fd457848901358255600182019150602085019450602081019050611faf565b86831015611ff15784890135611fed601f891682611efd565b8355505b6001600288020188555050505b50505050505050565b6000601f19601f8301169050919050565b60006120248385611aea565b93506120318385846119f2565b61203a83612007565b840190509392505050565b600060408201905061205a6000830186611538565b818103602083015261206d818486612018565b9050949350505050565b7f6e6f20657874656e73696f6e206e656564656400000000000000000000000000600082015250565b60006120ad601383611aea565b91506120b882612077565b602082019050919050565b600060208201905081810360008301526120dc816120a0565b9050919050565b7f4379636c6553657474696e67733a2070726f706f73696e6720706572696f642060008201527f746f6f206c6f7700000000000000000000000000000000000000000000000000602082015250565b600061213f602783611aea565b915061214a826120e3565b604082019050919050565b6000602082019050818103600083015261216e81612132565b9050919050565b7f766f74696e6720706572696f64206e6f74207965742073746172746564206f7260008201527f2065787069726564000000000000000000000000000000000000000000000000602082015250565b60006121d1602883611aea565b91506121dc82612175565b604082019050919050565b60006020820190508181036000830152612200816121c4565b9050919050565b7f7573657220616c726561647920766f746564206f6e20746869732070726f706f60008201527f73616c0000000000000000000000000000000000000000000000000000000000602082015250565b6000612263602383611aea565b915061226e82612207565b604082019050919050565b6000602082019050818103600083015261229281612256565b9050919050565b7f6e6f7420656e6f756768206372656469747320617661696c61626c6500000000600082015250565b60006122cf601c83611aea565b91506122da82612299565b602082019050919050565b600060208201905081810360008301526122fe816122c2565b9050919050565b61230e81611889565b82525050565b60006080820190506123296000830188611833565b818103602083015261233c818688612018565b905061234b6040830185612305565b6123586060830184611551565b9695505050505050565b7f4379636c6553657474696e67733a20766f74696e6720706572696f6420746f6f60008201527f206c6f7700000000000000000000000000000000000000000000000000000000602082015250565b60006123be602483611aea565b91506123c982612362565b604082019050919050565b600060208201905081810360008301526123ed816123b1565b9050919050565b7f4379636c6553657474696e67733a2070726f706f73616c207468726573686f6c60008201527f6420746f6f206c6f770000000000000000000000000000000000000000000000602082015250565b6000612450602983611aea565b915061245b826123f4565b604082019050919050565b6000602082019050818103600083015261247f81612443565b9050919050565b7f4f776e61626c653a206e6577206f776e657220697320746865207a65726f206160008201527f6464726573730000000000000000000000000000000000000000000000000000602082015250565b60006124e2602683611aea565b91506124ed82612486565b604082019050919050565b60006020820190508181036000830152612511816124d5565b9050919050565b7f4f776e61626c653a2063616c6c6572206973206e6f7420746865206f776e6572600082015250565b600061254e602083611aea565b915061255982612518565b602082019050919050565b6000602082019050818103600083015261257d81612541565b9050919050565b7f6379636c65486173680000000000000000000000000000000000000000000000815250565b60006020820190506125be60008301612584565b919050565b7f4e487b7100000000000000000000000000000000000000000000000000000000600052601260045260246000fd5b60006125fd82611547565b915061260883611547565b925082612618576126176125c3565b5b82820490509291505056fea2646970667358221220c3f3759558e98a53991acc91fb8c0990e74a3bc6341cc637542d928950543e1264736f6c63430008110033",
  "linkReferences": {},
  "deployedLinkReferences": {}
}