{"contracts/QuadraticVoting.sol":{"QuadraticVoting":{"abi":[{"anonymous":false,"inputs":[{"indexed":true,"internalType":"address","name":"previousOwner","type":"address"},{"indexed":true,"internalType":"address","name":"newOwner","type":"address"}],"name":"OwnershipTransferred","type":"event"},{"anonymous":false,"inputs":[{"indexed":false,"internalType":"string","name":"votingRoundHash","type":"string"},{"indexed":false,"internalType":"string","name":"proposalHash","type":"string"},{"indexed":false,"internalType":"uint256","name":"proposalNumber","type":"uint256"}],"name":"ProposalCreated","type":"event"},{"anonymous":false,"inputs":[{"indexed":true,"internalType":"bytes32","name":"role","type":"bytes32"},{"indexed":true,"internalType":"bytes32","name":"previousAdminRole","type":"bytes32"},{"indexed":true,"internalType":"bytes32","name":"newAdminRole","type":"bytes32"}],"name":"RoleAdminChanged","type":"event"},{"anonymous":false,"inputs":[{"indexed":true,"internalType":"bytes32","name":"role","type":"bytes32"},{"indexed":true,"internalType":"address","name":"account","type":"address"},{"indexed":true,"internalType":"address","name":"sender","type":"address"}],"name":"RoleGranted","type":"event"},{"anonymous":false,"inputs":[{"indexed":true,"internalType":"bytes32","name":"role","type":"bytes32"},{"indexed":true,"internalType":"address","name":"account","type":"address"},{"indexed":true,"internalType":"address","name":"sender","type":"address"}],"name":"RoleRevoked","type":"event"},{"anonymous":false,"inputs":[{"indexed":false,"internalType":"address","name":"voter","type":"address"},{"indexed":false,"internalType":"string","name":"proposalHash","type":"string"},{"indexed":false,"internalType":"bool","name":"voteDirection","type":"bool"},{"indexed":false,"internalType":"uint256","name":"castVotes","type":"uint256"}],"name":"VoteCast","type":"event"},{"anonymous":false,"inputs":[{"indexed":false,"internalType":"string","name":"votingRoundHash","type":"string"}],"name":"VotingRoundCreated","type":"event"},{"inputs":[],"name":"DEFAULT_ADMIN_ROLE","outputs":[{"internalType":"bytes32","name":"","type":"bytes32"}],"stateMutability":"view","type":"function"},{"inputs":[{"internalType":"string","name":"_votingRoundHash","type":"string"},{"internalType":"string","name":"_proposalHash","type":"string"},{"internalType":"uint256","name":"_numTokens","type":"uint256"},{"internalType":"bool","name":"_voteDirection","type":"bool"}],"name":"castVote","outputs":[],"stateMutability":"nonpayable","type":"function"},{"inputs":[{"internalType":"string","name":"_votingRoundHash","type":"string"},{"internalType":"string","name":"_proposalHash","type":"string"}],"name":"countVotesForProposal","outputs":[{"internalType":"uint256","name":"","type":"uint256"},{"internalType":"uint256","name":"","type":"uint256"}],"stateMutability":"view","type":"function"},{"inputs":[{"internalType":"string","name":"_votingRoundHash","type":"string"},{"internalType":"string","name":"_proposalHash","type":"string"}],"name":"createProposal","outputs":[{"internalType":"uint256","name":"","type":"uint256"}],"stateMutability":"nonpayable","type":"function"},{"inputs":[{"internalType":"string","name":"_votingRoundHash","type":"string"}],"name":"createVotingRound","outputs":[],"stateMutability":"nonpayable","type":"function"},{"inputs":[{"internalType":"string","name":"_votingRoundHash","type":"string"},{"internalType":"uint256","name":"_additionalTime","type":"uint256"}],"name":"extendVotingRound","outputs":[],"stateMutability":"nonpayable","type":"function"},{"inputs":[{"internalType":"bytes32","name":"role","type":"bytes32"}],"name":"getRoleAdmin","outputs":[{"internalType":"bytes32","name":"","type":"bytes32"}],"stateMutability":"view","type":"function"},{"inputs":[],"name":"getUserCredits","outputs":[{"internalType":"uint256","name":"","type":"uint256"}],"stateMutability":"view","type":"function"},{"inputs":[{"internalType":"string","name":"_votingRoundHash","type":"string"}],"name":"getVotingRoundExpirationTime","outputs":[{"internalType":"uint256","name":"","type":"uint256"}],"stateMutability":"view","type":"function"},{"inputs":[{"internalType":"string","name":"_votingRoundHash","type":"string"}],"name":"getVotingRoundStatus","outputs":[{"internalType":"enum QuadraticVoting.VotingRoundStatus","name":"","type":"uint8"}],"stateMutability":"view","type":"function"},{"inputs":[{"internalType":"bytes32","name":"role","type":"bytes32"},{"internalType":"address","name":"account","type":"address"}],"name":"grantRole","outputs":[],"stateMutability":"nonpayable","type":"function"},{"inputs":[{"internalType":"bytes32","name":"role","type":"bytes32"},{"internalType":"address","name":"account","type":"address"}],"name":"hasRole","outputs":[{"internalType":"bool","name":"","type":"bool"}],"stateMutability":"view","type":"function"},{"inputs":[],"name":"owner","outputs":[{"internalType":"address","name":"","type":"address"}],"stateMutability":"view","type":"function"},{"inputs":[],"name":"renounceOwnership","outputs":[],"stateMutability":"nonpayable","type":"function"},{"inputs":[{"internalType":"bytes32","name":"role","type":"bytes32"},{"internalType":"address","name":"account","type":"address"}],"name":"renounceRole","outputs":[],"stateMutability":"nonpayable","type":"function"},{"inputs":[{"internalType":"bytes32","name":"role","type":"bytes32"},{"internalType":"address","name":"account","type":"address"}],"name":"revokeRole","outputs":[],"stateMutability":"nonpayable","type":"function"},{"inputs":[{"internalType":"string","name":"_votingRoundHash","type":"string"},{"internalType":"uint256","name":"_expirationTime","type":"uint256"},{"internalType":"uint256","name":"_votingCredits","type":"uint256"}],"name":"setRoundToActiveVoting","outputs":[],"stateMutability":"nonpayable","type":"function"},{"inputs":[{"internalType":"string","name":"_votingRoundHash","type":"string"}],"name":"setRoundToEnded","outputs":[],"stateMutability":"nonpayable","type":"function"},{"inputs":[{"internalType":"string","name":"_votingRoundHash","type":"string"}],"name":"setRoundToTally","outputs":[],"stateMutability":"nonpayable","type":"function"},{"inputs":[{"internalType":"bytes4","name":"interfaceId","type":"bytes4"}],"name":"supportsInterface","outputs":[{"internalType":"bool","name":"","type":"bool"}],"stateMutability":"view","type":"function"},{"inputs":[{"internalType":"address","name":"newOwner","type":"address"}],"name":"transferOwnership","outputs":[],"stateMutability":"nonpayable","type":"function"},{"inputs":[{"internalType":"string","name":"","type":"string"}],"name":"votingRounds","outputs":[{"internalType":"string","name":"votingRoundHash","type":"string"},{"internalType":"enum QuadraticVoting.VotingRoundStatus","name":"status","type":"uint8"},{"internalType":"uint256","name":"expirationTime","type":"uint256"},{"internalType":"uint256","name":"votingCredits","type":"uint256"},{"internalType":"uint256","name":"proposalCount","type":"uint256"}],"stateMutability":"view","type":"function"}],"evm":{"bytecode":{"linkReferences":{},"object":"60806040523480156200001157600080fd5b5062000032620000266200003860201b60201c565b6200004060201b60201c565b62000104565b600033905090565b60008060009054906101000a900473ffffffffffffffffffffffffffffffffffffffff169050816000806101000a81548173ffffffffffffffffffffffffffffffffffffffff021916908373ffffffffffffffffffffffffffffffffffffffff1602179055508173ffffffffffffffffffffffffffffffffffffffff168173ffffffffffffffffffffffffffffffffffffffff167f8be0079c531659141344cd1fd0a4f28419497f9722a3daafe3b4186f6b6457e060405160405180910390a35050565b61385a80620001146000396000f3fe608060405234801561001057600080fd5b50600436106101425760003560e01c80638da5cb5b116100b8578063d27440251161007c578063d27440251461038c578063d547741f146103a8578063d5c7e963146103c4578063d7cea40d146103e0578063e0cbc60114610410578063f2fde38b1461042c57610142565b80638da5cb5b146102d457806391d14854146102f2578063923f852a14610322578063a217fddf1461033e578063a53231561461035c57610142565b806338ee4a2c1161010a57806338ee4a2c146101fd57806365e481e21461021957806366a5f53e14610249578063715018a61461027a5780637c12a5ca146102845780638c1d30ae146102b857610142565b806301ffc9a7146101475780632092cb3314610177578063248a9ca3146101955780632f2ff15d146101c557806336568abe146101e1575b600080fd5b610161600480360381019061015c9190611fb1565b610448565b60405161016e9190611ff9565b60405180910390f35b61017f6104c2565b60405161018c919061202d565b60405180910390f35b6101af60048036038101906101aa919061207e565b610509565b6040516101bc91906120ba565b60405180910390f35b6101df60048036038101906101da9190612133565b610529565b005b6101fb60048036038101906101f69190612133565b61054a565b005b610217600480360381019061021291906121d8565b6105cd565b005b610233600480360381019061022e9190612225565b610682565b604051610240919061202d565b60405180910390f35b610263600480360381019061025e9190612225565b610925565b6040516102719291906122a6565b60405180910390f35b610282610b99565b005b61029e60048036038101906102999190612410565b610bad565b6040516102af95949392919061254f565b60405180910390f35b6102d260048036038101906102cd91906121d8565b610c8e565b005b6102dc610da1565b6040516102e991906125b8565b60405180910390f35b61030c60048036038101906103079190612133565b610dca565b6040516103199190611ff9565b60405180910390f35b61033c6004803603810190610337919061262b565b610e35565b005b610346611258565b60405161035391906120ba565b60405180910390f35b610376600480360381019061037191906121d8565b61125f565b604051610383919061202d565b60405180910390f35b6103a660048036038101906103a191906126d2565b61128d565b005b6103c260048036038101906103bd9190612133565b61141a565b005b6103de60048036038101906103d99190612746565b61143b565b005b6103fa60048036038101906103f591906121d8565b611555565b60405161040791906127a6565b60405180910390f35b61042a600480360381019061042591906121d8565b611590565b005b610446600480360381019061044191906127c1565b611658565b005b60007f7965db0b000000000000000000000000000000000000000000000000000000007bffffffffffffffffffffffffffffffffffffffffffffffffffffffff1916827bffffffffffffffffffffffffffffffffffffffffffffffffffffffff191614806104bb57506104ba826116db565b5b9050919050565b6000600260003373ffffffffffffffffffffffffffffffffffffffff1673ffffffffffffffffffffffffffffffffffffffff16815260200190815260200160002054905090565b600060016000838152602001908152602001600020600101549050919050565b61053282610509565b61053b81611745565b6105458383611759565b505050565b610552611839565b73ffffffffffffffffffffffffffffffffffffffff168173ffffffffffffffffffffffffffffffffffffffff16146105bf576040517f08c379a00000000000000000000000000000000000000000000000000000000081526004016105b690612860565b60405180910390fd5b6105c98282611841565b5050565b6105d5611923565b6000600383836040516105e99291906128b0565b9081526020016040518091039020905060018160010160006101000a81548160ff02191690836004811115610621576106206124d8565b5b02179055508282826000019182610639929190612ae0565b50600081600501819055507fb5b74a176e1995815eaf9ba4afb84a89580140043e4f90c6bcbcb496d46904c28383604051610675929190612bdd565b60405180910390a1505050565b600061068c611923565b600160048111156106a05761069f6124d8565b5b6106aa8686611555565b60048111156106bc576106bb6124d8565b5b146106fc576040517f08c379a00000000000000000000000000000000000000000000000000000000081526004016106f390612c99565b60405180910390fd5b828260405161070c929190612ce9565b6040518091039020600386866040516107269291906128b0565b908152602001604051809103902060040184846040516107479291906128b0565b90815260200160405180910390206003016040516107659190612d9a565b6040518091039020036107ad576040517f08c379a00000000000000000000000000000000000000000000000000000000081526004016107a490612dfd565b60405180910390fd5b8282600387876040516107c19291906128b0565b90815260200160405180910390206006016000600389896040516107e69291906128b0565b90815260200160405180910390206005015481526020019081526020016000209182610813929190612ae0565b50600385856040516108269291906128b0565b9081526020016040518091039020600501600081548092919061084890612e4c565b91905055506000600386866040516108619291906128b0565b908152602001604051809103902060040184846040516108829291906128b0565b90815260200160405180910390209050600386866040516108a49291906128b0565b908152602001604051809103902060050154816000018190555083838260030191826108d1929190612ae0565b507f7b1cffcced3d3750ea9524d46fbc04c44025ce41ea889c22f1a85f158f7ba0cb86868686856000015460405161090d959493929190612e94565b60405180910390a18060000154915050949350505050565b60008060008060006003898960405161093f9291906128b0565b908152602001604051809103902060040187876040516109609291906128b0565b90815260200160405180910390206004018054806020026020016040519081016040528092919081815260200182805480156109f157602002820191906000526020600020905b8160009054906101000a900473ffffffffffffffffffffffffffffffffffffffff1673ffffffffffffffffffffffffffffffffffffffff16815260200190600101908083116109a7575b5050505050905060005b8151811015610b86576000828281518110610a1957610a18612edd565b5b60200260200101519050600060038c8c604051610a379291906128b0565b90815260200160405180910390206004018a8a604051610a589291906128b0565b908152602001604051809103902060050160008373ffffffffffffffffffffffffffffffffffffffff1673ffffffffffffffffffffffffffffffffffffffff16815260200190815260200160002060000160019054906101000a900460ff169050600060038d8d604051610acd9291906128b0565b90815260200160405180910390206004018b8b604051610aee9291906128b0565b908152602001604051809103902060050160008473ffffffffffffffffffffffffffffffffffffffff1673ffffffffffffffffffffffffffffffffffffffff1681526020019081526020016000206001015490506001151582151503610b61578087610b5a9190612f0c565b9650610b70565b8086610b6d9190612f0c565b95505b5050508080610b7e90612e4c565b9150506109fb565b5082829450945050505094509492505050565b610ba1611923565b610bab60006119a1565b565b600381805160208101820180518482526020830160208501208183528095505050505050600091509050806000018054610be690612903565b80601f0160208091040260200160405190810160405280929190818152602001828054610c1290612903565b8015610c5f5780601f10610c3457610100808354040283529160200191610c5f565b820191906000526020600020905b815481529060010190602001808311610c4257829003601f168201915b5050505050908060010160009054906101000a900460ff16908060020154908060030154908060050154905085565b610c96611923565b60026004811115610caa57610ca96124d8565b5b610cb48383611555565b6004811115610cc657610cc56124d8565b5b14610d06576040517f08c379a0000000000000000000000000000000000000000000000000000000008152600401610cfd90612f8c565b60405180910390fd5b610d10828261125f565b421015610d52576040517f08c379a0000000000000000000000000000000000000000000000000000000008152600401610d4990612ff8565b60405180910390fd5b6003808383604051610d659291906128b0565b908152602001604051809103902060010160006101000a81548160ff02191690836004811115610d9857610d976124d8565b5b02179055505050565b60008060009054906101000a900473ffffffffffffffffffffffffffffffffffffffff16905090565b60006001600084815260200190815260200160002060000160008373ffffffffffffffffffffffffffffffffffffffff1673ffffffffffffffffffffffffffffffffffffffff16815260200190815260200160002060009054906101000a900460ff16905092915050565b60026004811115610e4957610e486124d8565b5b610e538787611555565b6004811115610e6557610e646124d8565b5b14610ea5576040517f08c379a0000000000000000000000000000000000000000000000000000000008152600401610e9c9061308a565b60405180910390fd5b42610eb0878761125f565b11610ef0576040517f08c379a0000000000000000000000000000000000000000000000000000000008152600401610ee79061311c565b60405180910390fd5b610efc86868686611a65565b15610f3c576040517f08c379a0000000000000000000000000000000000000000000000000000000008152600401610f33906131ae565b60405180910390fd5b6000151560038787604051610f529291906128b0565b908152602001604051809103902060070160003373ffffffffffffffffffffffffffffffffffffffff1673ffffffffffffffffffffffffffffffffffffffff16815260200190815260200160002060009054906101000a900460ff16151503610fc057610fbf8686611b03565b5b60008061101584600260003373ffffffffffffffffffffffffffffffffffffffff1673ffffffffffffffffffffffffffffffffffffffff16815260200190815260200160002054611be790919063ffffffff16565b80925081935050506001151582151514611064576040517f08c379a000000000000000000000000000000000000000000000000000000000815260040161105b9061321a565b60405180910390fd5b80600260003373ffffffffffffffffffffffffffffffffffffffff1673ffffffffffffffffffffffffffffffffffffffff1681526020019081526020016000208190555060006110b385611c0f565b9050600060038a8a6040516110c99291906128b0565b908152602001604051809103902060040188886040516110ea9291906128b0565b9081526020016040518091039020905060405180606001604052806001151581526020018615158152602001838152508160050160003373ffffffffffffffffffffffffffffffffffffffff1673ffffffffffffffffffffffffffffffffffffffff16815260200190815260200160002060008201518160000160006101000a81548160ff02191690831515021790555060208201518160000160016101000a81548160ff0219169083151502179055506040820151816001015590505080600401339080600181540180825580915050600190039060005260206000200160009091909190916101000a81548173ffffffffffffffffffffffffffffffffffffffff021916908373ffffffffffffffffffffffffffffffffffffffff1602179055507f53f1dbe2ceba78487a30e1afcbe7b30375c220ed56c4e9349a4e6fcfbd828077338b8b888660405161124495949392919061323a565b60405180910390a150505050505050505050565b6000801b81565b6000600383836040516112739291906128b0565b908152602001604051809103902060020154905092915050565b611295611923565b600082116112d8576040517f08c379a00000000000000000000000000000000000000000000000000000000081526004016112cf906132d4565b60405180910390fd5b6000811161131b576040517f08c379a000000000000000000000000000000000000000000000000000000000815260040161131290613340565b60405180910390fd5b6001600481111561132f5761132e6124d8565b5b6113398585611555565b600481111561134b5761134a6124d8565b5b1461135557600080fd5b80600385856040516113689291906128b0565b908152602001604051809103902060030181905550600182603c61138c9190613360565b6113969190613360565b426113a19190612f0c565b600385856040516113b39291906128b0565b9081526020016040518091039020600201819055506002600385856040516113dc9291906128b0565b908152602001604051809103902060010160006101000a81548160ff0219169083600481111561140f5761140e6124d8565b5b021790555050505050565b61142382610509565b61142c81611745565b6114368383611841565b505050565b611443611923565b60026004811115611457576114566124d8565b5b6114618484611555565b6004811115611473576114726124d8565b5b146114b3576040517f08c379a00000000000000000000000000000000000000000000000000000000081526004016114aa90613414565b60405180910390fd5b426114be848461125f565b116114fe576040517f08c379a00000000000000000000000000000000000000000000000000000000081526004016114f590613480565b60405180910390fd5b600181603c61150d9190613360565b6115179190613360565b600384846040516115299291906128b0565b908152602001604051809103902060020160008282546115499190612f0c565b92505081905550505050565b6000600383836040516115699291906128b0565b908152602001604051809103902060010160009054906101000a900460ff16905092915050565b611598611923565b600360048111156115ac576115ab6124d8565b5b6115b68383611555565b60048111156115c8576115c76124d8565b5b14611608576040517f08c379a00000000000000000000000000000000000000000000000000000000081526004016115ff906134ec565b60405180910390fd5b60046003838360405161161c9291906128b0565b908152602001604051809103902060010160006101000a81548160ff0219169083600481111561164f5761164e6124d8565b5b02179055505050565b611660611923565b600073ffffffffffffffffffffffffffffffffffffffff168173ffffffffffffffffffffffffffffffffffffffff16036116cf576040517f08c379a00000000000000000000000000000000000000000000000000000000081526004016116c69061357e565b60405180910390fd5b6116d8816119a1565b50565b60007f01ffc9a7000000000000000000000000000000000000000000000000000000007bffffffffffffffffffffffffffffffffffffffffffffffffffffffff1916827bffffffffffffffffffffffffffffffffffffffffffffffffffffffff1916149050919050565b61175681611751611839565b611c6c565b50565b6117638282610dca565b61183557600180600084815260200190815260200160002060000160008373ffffffffffffffffffffffffffffffffffffffff1673ffffffffffffffffffffffffffffffffffffffff16815260200190815260200160002060006101000a81548160ff0219169083151502179055506117da611839565b73ffffffffffffffffffffffffffffffffffffffff168173ffffffffffffffffffffffffffffffffffffffff16837f2f8788117e7eff1d82e926ec794901d17c78024a50270940304540a733656f0d60405160405180910390a45b5050565b600033905090565b61184b8282610dca565b1561191f5760006001600084815260200190815260200160002060000160008373ffffffffffffffffffffffffffffffffffffffff1673ffffffffffffffffffffffffffffffffffffffff16815260200190815260200160002060006101000a81548160ff0219169083151502179055506118c4611839565b73ffffffffffffffffffffffffffffffffffffffff168173ffffffffffffffffffffffffffffffffffffffff16837ff6391f5c32d9c69d2a47ea670b442974b53935d1edc7fd64eb21e047a839171b60405160405180910390a45b5050565b61192b611839565b73ffffffffffffffffffffffffffffffffffffffff16611949610da1565b73ffffffffffffffffffffffffffffffffffffffff161461199f576040517f08c379a0000000000000000000000000000000000000000000000000000000008152600401611996906135ea565b60405180910390fd5b565b60008060009054906101000a900473ffffffffffffffffffffffffffffffffffffffff169050816000806101000a81548173ffffffffffffffffffffffffffffffffffffffff021916908373ffffffffffffffffffffffffffffffffffffffff1602179055508173ffffffffffffffffffffffffffffffffffffffff168173ffffffffffffffffffffffffffffffffffffffff167f8be0079c531659141344cd1fd0a4f28419497f9722a3daafe3b4186f6b6457e060405160405180910390a35050565b600060038585604051611a799291906128b0565b90815260200160405180910390206004018383604051611a9a9291906128b0565b908152602001604051809103902060050160003373ffffffffffffffffffffffffffffffffffffffff1673ffffffffffffffffffffffffffffffffffffffff16815260200190815260200160002060000160009054906101000a900460ff169050949350505050565b60038282604051611b159291906128b0565b908152602001604051809103902060030154600260003373ffffffffffffffffffffffffffffffffffffffff1673ffffffffffffffffffffffffffffffffffffffff16815260200190815260200160002081905550600160038383604051611b7e9291906128b0565b908152602001604051809103902060070160003373ffffffffffffffffffffffffffffffffffffffff1673ffffffffffffffffffffffffffffffffffffffff16815260200190815260200160002060006101000a81548160ff0219169083151502179055505050565b60008083831115611bfe5760008091509150611c08565b6001838503915091505b9250929050565b6000806002600184611c219190612f0c565b611c2b9190613639565b90508291505b81811015611c66578091506002818285611c4b9190613639565b611c559190612f0c565b611c5f9190613639565b9050611c31565b50919050565b611c768282610dca565b611d0557611c9b8173ffffffffffffffffffffffffffffffffffffffff166014611d09565b611ca98360001c6020611d09565b604051602001611cba929190613733565b6040516020818303038152906040526040517f08c379a0000000000000000000000000000000000000000000000000000000008152600401611cfc919061376d565b60405180910390fd5b5050565b606060006002836002611d1c9190613360565b611d269190612f0c565b67ffffffffffffffff811115611d3f57611d3e6122e5565b5b6040519080825280601f01601f191660200182016040528015611d715781602001600182028036833780820191505090505b5090507f300000000000000000000000000000000000000000000000000000000000000081600081518110611da957611da8612edd565b5b60200101907effffffffffffffffffffffffffffffffffffffffffffffffffffffffffffff1916908160001a9053507f780000000000000000000000000000000000000000000000000000000000000081600181518110611e0d57611e0c612edd565b5b60200101907effffffffffffffffffffffffffffffffffffffffffffffffffffffffffffff1916908160001a90535060006001846002611e4d9190613360565b611e579190612f0c565b90505b6001811115611ef7577f3031323334353637383961626364656600000000000000000000000000000000600f861660108110611e9957611e98612edd565b5b1a60f81b828281518110611eb057611eaf612edd565b5b60200101907effffffffffffffffffffffffffffffffffffffffffffffffffffffffffffff1916908160001a905350600485901c945080611ef09061378f565b9050611e5a565b5060008414611f3b576040517f08c379a0000000000000000000000000000000000000000000000000000000008152600401611f3290613804565b60405180910390fd5b8091505092915050565b6000604051905090565b600080fd5b600080fd5b60007fffffffff0000000000000000000000000000000000000000000000000000000082169050919050565b611f8e81611f59565b8114611f9957600080fd5b50565b600081359050611fab81611f85565b92915050565b600060208284031215611fc757611fc6611f4f565b5b6000611fd584828501611f9c565b91505092915050565b60008115159050919050565b611ff381611fde565b82525050565b600060208201905061200e6000830184611fea565b92915050565b6000819050919050565b61202781612014565b82525050565b6000602082019050612042600083018461201e565b92915050565b6000819050919050565b61205b81612048565b811461206657600080fd5b50565b60008135905061207881612052565b92915050565b60006020828403121561209457612093611f4f565b5b60006120a284828501612069565b91505092915050565b6120b481612048565b82525050565b60006020820190506120cf60008301846120ab565b92915050565b600073ffffffffffffffffffffffffffffffffffffffff82169050919050565b6000612100826120d5565b9050919050565b612110816120f5565b811461211b57600080fd5b50565b60008135905061212d81612107565b92915050565b6000806040838503121561214a57612149611f4f565b5b600061215885828601612069565b92505060206121698582860161211e565b9150509250929050565b600080fd5b600080fd5b600080fd5b60008083601f84011261219857612197612173565b5b8235905067ffffffffffffffff8111156121b5576121b4612178565b5b6020830191508360018202830111156121d1576121d061217d565b5b9250929050565b600080602083850312156121ef576121ee611f4f565b5b600083013567ffffffffffffffff81111561220d5761220c611f54565b5b61221985828601612182565b92509250509250929050565b6000806000806040858703121561223f5761223e611f4f565b5b600085013567ffffffffffffffff81111561225d5761225c611f54565b5b61226987828801612182565b9450945050602085013567ffffffffffffffff81111561228c5761228b611f54565b5b61229887828801612182565b925092505092959194509250565b60006040820190506122bb600083018561201e565b6122c8602083018461201e565b9392505050565b600080fd5b6000601f19601f8301169050919050565b7f4e487b7100000000000000000000000000000000000000000000000000000000600052604160045260246000fd5b61231d826122d4565b810181811067ffffffffffffffff8211171561233c5761233b6122e5565b5b80604052505050565b600061234f611f45565b905061235b8282612314565b919050565b600067ffffffffffffffff82111561237b5761237a6122e5565b5b612384826122d4565b9050602081019050919050565b82818337600083830152505050565b60006123b36123ae84612360565b612345565b9050828152602081018484840111156123cf576123ce6122cf565b5b6123da848285612391565b509392505050565b600082601f8301126123f7576123f6612173565b5b81356124078482602086016123a0565b91505092915050565b60006020828403121561242657612425611f4f565b5b600082013567ffffffffffffffff81111561244457612443611f54565b5b612450848285016123e2565b91505092915050565b600081519050919050565b600082825260208201905092915050565b60005b83811015612493578082015181840152602081019050612478565b60008484015250505050565b60006124aa82612459565b6124b48185612464565b93506124c4818560208601612475565b6124cd816122d4565b840191505092915050565b7f4e487b7100000000000000000000000000000000000000000000000000000000600052602160045260246000fd5b60058110612518576125176124d8565b5b50565b600081905061252982612507565b919050565b60006125398261251b565b9050919050565b6125498161252e565b82525050565b600060a0820190508181036000830152612569818861249f565b90506125786020830187612540565b612585604083018661201e565b612592606083018561201e565b61259f608083018461201e565b9695505050505050565b6125b2816120f5565b82525050565b60006020820190506125cd60008301846125a9565b92915050565b6125dc81612014565b81146125e757600080fd5b50565b6000813590506125f9816125d3565b92915050565b61260881611fde565b811461261357600080fd5b50565b600081359050612625816125ff565b92915050565b6000806000806000806080878903121561264857612647611f4f565b5b600087013567ffffffffffffffff81111561266657612665611f54565b5b61267289828a01612182565b9650965050602087013567ffffffffffffffff81111561269557612694611f54565b5b6126a189828a01612182565b945094505060406126b489828a016125ea565b92505060606126c589828a01612616565b9150509295509295509295565b600080600080606085870312156126ec576126eb611f4f565b5b600085013567ffffffffffffffff81111561270a57612709611f54565b5b61271687828801612182565b94509450506020612729878288016125ea565b925050604061273a878288016125ea565b91505092959194509250565b60008060006040848603121561275f5761275e611f4f565b5b600084013567ffffffffffffffff81111561277d5761277c611f54565b5b61278986828701612182565b9350935050602061279c868287016125ea565b9150509250925092565b60006020820190506127bb6000830184612540565b92915050565b6000602082840312156127d7576127d6611f4f565b5b60006127e58482850161211e565b91505092915050565b7f416363657373436f6e74726f6c3a2063616e206f6e6c792072656e6f756e636560008201527f20726f6c657320666f722073656c660000000000000000000000000000000000602082015250565b600061284a602f83612464565b9150612855826127ee565b604082019050919050565b600060208201905081810360008301526128798161283d565b9050919050565b600081905092915050565b60006128978385612880565b93506128a4838584612391565b82840190509392505050565b60006128bd82848661288b565b91508190509392505050565b600082905092915050565b7f4e487b7100000000000000000000000000000000000000000000000000000000600052602260045260246000fd5b6000600282049050600182168061291b57607f821691505b60208210810361292e5761292d6128d4565b5b50919050565b60008190508160005260206000209050919050565b60006020601f8301049050919050565b600082821b905092915050565b6000600883026129967fffffffffffffffffffffffffffffffffffffffffffffffffffffffffffffffff82612959565b6129a08683612959565b95508019841693508086168417925050509392505050565b6000819050919050565b60006129dd6129d86129d384612014565b6129b8565b612014565b9050919050565b6000819050919050565b6129f7836129c2565b612a0b612a03826129e4565b848454612966565b825550505050565b600090565b612a20612a13565b612a2b8184846129ee565b505050565b5b81811015612a4f57612a44600082612a18565b600181019050612a31565b5050565b601f821115612a9457612a6581612934565b612a6e84612949565b81016020851015612a7d578190505b612a91612a8985612949565b830182612a30565b50505b505050565b600082821c905092915050565b6000612ab760001984600802612a99565b1980831691505092915050565b6000612ad08383612aa6565b9150826002028217905092915050565b612aea83836128c9565b67ffffffffffffffff811115612b0357612b026122e5565b5b612b0d8254612903565b612b18828285612a53565b6000601f831160018114612b475760008415612b35578287013590505b612b3f8582612ac4565b865550612ba7565b601f198416612b5586612934565b60005b82811015612b7d57848901358255600182019150602085019450602081019050612b58565b86831015612b9a5784890135612b96601f891682612aa6565b8355505b6001600288020188555050505b50505050505050565b6000612bbc8385612464565b9350612bc9838584612391565b612bd2836122d4565b840190509392505050565b60006020820190508181036000830152612bf8818486612bb0565b90509392505050565b7f50726f706f73616c20636f6c6c656374696f6e2070686173652068617320626560008201527f656e20636c6f736564206f7220776173206e6f742079657420696e697469617460208201527f6564000000000000000000000000000000000000000000000000000000000000604082015250565b6000612c83604283612464565b9150612c8e82612c01565b606082019050919050565b60006020820190508181036000830152612cb281612c76565b9050919050565b600081905092915050565b6000612cd08385612cb9565b9350612cdd838584612391565b82840190509392505050565b6000612cf6828486612cc4565b91508190509392505050565b60008190508160005260206000209050919050565b60008154612d2481612903565b612d2e8186612cb9565b94506001821660008114612d495760018114612d5e57612d91565b60ff1983168652811515820286019350612d91565b612d6785612d02565b60005b83811015612d8957815481890152600182019150602081019050612d6a565b838801955050505b50505092915050565b6000612da68284612d17565b915081905092915050565b7f50726f706f73616c20616c726561647920696e206578697374656e6365000000600082015250565b6000612de7601d83612464565b9150612df282612db1565b602082019050919050565b60006020820190508181036000830152612e1681612dda565b9050919050565b7f4e487b7100000000000000000000000000000000000000000000000000000000600052601160045260246000fd5b6000612e5782612014565b91507fffffffffffffffffffffffffffffffffffffffffffffffffffffffffffffffff8203612e8957612e88612e1d565b5b600182019050919050565b60006060820190508181036000830152612eaf818789612bb0565b90508181036020830152612ec4818587612bb0565b9050612ed3604083018461201e565b9695505050505050565b7f4e487b7100000000000000000000000000000000000000000000000000000000600052603260045260246000fd5b6000612f1782612014565b9150612f2283612014565b9250828201905080821115612f3a57612f39612e1d565b5b92915050565b7f566f7465206973206e6f7420696e2070726f6772657373000000000000000000600082015250565b6000612f76601783612464565b9150612f8182612f40565b602082019050919050565b60006020820190508181036000830152612fa581612f69565b9050919050565b7f766f74696e6720706572696f6420686173206e6f742065787069726564000000600082015250565b6000612fe2601d83612464565b9150612fed82612fac565b602082019050919050565b6000602082019050818103600083015261301181612fd5565b9050919050565b7f70726f706f73616c206e6f74207965742073746172746564206f72206578706960008201527f7265640000000000000000000000000000000000000000000000000000000000602082015250565b6000613074602383612464565b915061307f82613018565b604082019050919050565b600060208201905081810360008301526130a381613067565b9050919050565b7f766f74696e672074696d65206578706972656420666f7220746869732070726f60008201527f706f73616c000000000000000000000000000000000000000000000000000000602082015250565b6000613106602583612464565b9150613111826130aa565b604082019050919050565b60006020820190508181036000830152613135816130f9565b9050919050565b7f7573657220616c726561647920766f746564206f6e20746869732070726f706f60008201527f73616c0000000000000000000000000000000000000000000000000000000000602082015250565b6000613198602383612464565b91506131a38261313c565b604082019050919050565b600060208201905081810360008301526131c78161318b565b9050919050565b7f6e6f7420656e6f756768206372656469747320617661696c61626c6500000000600082015250565b6000613204601c83612464565b915061320f826131ce565b602082019050919050565b60006020820190508181036000830152613233816131f7565b9050919050565b600060808201905061324f60008301886125a9565b8181036020830152613262818688612bb0565b90506132716040830185611fea565b61327e606083018461201e565b9695505050505050565b7f566f74696e6720706572696f642063616e6e6f74206265203000000000000000600082015250565b60006132be601983612464565b91506132c982613288565b602082019050919050565b600060208201905081810360008301526132ed816132b1565b9050919050565b7f566f74696e6720637265646974732063616e6e6f742062652030000000000000600082015250565b600061332a601a83612464565b9150613335826132f4565b602082019050919050565b600060208201905081810360008301526133598161331d565b9050919050565b600061336b82612014565b915061337683612014565b925082820261338481612014565b9150828204841483151761339b5761339a612e1d565b5b5092915050565b7f70726f706f73616c20686173206e6f74207965742073746172746564206f722060008201527f6578706972656400000000000000000000000000000000000000000000000000602082015250565b60006133fe602783612464565b9150613409826133a2565b604082019050919050565b6000602082019050818103600083015261342d816133f1565b9050919050565b7f766f74696e672074696d6520616c726561647920657870697265640000000000600082015250565b600061346a601b83612464565b915061347582613434565b602082019050919050565b600060208201905081810360008301526134998161345d565b9050919050565b7f50726f706f73616c2073686f756c6420626520696e2074616c6c790000000000600082015250565b60006134d6601b83612464565b91506134e1826134a0565b602082019050919050565b60006020820190508181036000830152613505816134c9565b9050919050565b7f4f776e61626c653a206e6577206f776e657220697320746865207a65726f206160008201527f6464726573730000000000000000000000000000000000000000000000000000602082015250565b6000613568602683612464565b91506135738261350c565b604082019050919050565b600060208201905081810360008301526135978161355b565b9050919050565b7f4f776e61626c653a2063616c6c6572206973206e6f7420746865206f776e6572600082015250565b60006135d4602083612464565b91506135df8261359e565b602082019050919050565b60006020820190508181036000830152613603816135c7565b9050919050565b7f4e487b7100000000000000000000000000000000000000000000000000000000600052601260045260246000fd5b600061364482612014565b915061364f83612014565b92508261365f5761365e61360a565b5b828204905092915050565b7f416363657373436f6e74726f6c3a206163636f756e7420000000000000000000600082015250565b60006136a0601783612880565b91506136ab8261366a565b601782019050919050565b60006136c182612459565b6136cb8185612880565b93506136db818560208601612475565b80840191505092915050565b7f206973206d697373696e6720726f6c6520000000000000000000000000000000600082015250565b600061371d601183612880565b9150613728826136e7565b601182019050919050565b600061373e82613693565b915061374a82856136b6565b915061375582613710565b915061376182846136b6565b91508190509392505050565b60006020820190508181036000830152613787818461249f565b905092915050565b600061379a82612014565b9150600082036137ad576137ac612e1d565b5b600182039050919050565b7f537472696e67733a20686578206c656e67746820696e73756666696369656e74600082015250565b60006137ee602083612464565b91506137f9826137b8565b602082019050919050565b6000602082019050818103600083015261381d816137e1565b905091905056fea26469706673582212200a22da303e9dc647437635856174d7f5c79b1811f05d2665070c1d6d6381143664736f6c63430008110033","opcodes":"PUSH1 0x80 PUSH1 0x40 MSTORE CALLVALUE DUP1 ISZERO PUSH3 0x11 JUMPI PUSH1 0x0 DUP1 REVERT JUMPDEST POP PUSH3 0x32 PUSH3 0x26 PUSH3 0x38 PUSH1 0x20 SHL PUSH1 0x20 SHR JUMP JUMPDEST PUSH3 0x40 PUSH1 0x20 SHL PUSH1 0x20 SHR JUMP JUMPDEST PUSH3 0x104 JUMP JUMPDEST PUSH1 0x0 CALLER SWAP1 POP SWAP1 JUMP JUMPDEST PUSH1 0x0 DUP1 PUSH1 0x0 SWAP1 SLOAD SWAP1 PUSH2 0x100 EXP SWAP1 DIV PUSH20 0xFFFFFFFFFFFFFFFFFFFFFFFFFFFFFFFFFFFFFFFF AND SWAP1 POP DUP2 PUSH1 0x0 DUP1 PUSH2 0x100 EXP DUP2 SLOAD DUP2 PUSH20 0xFFFFFFFFFFFFFFFFFFFFFFFFFFFFFFFFFFFFFFFF MUL NOT AND SWAP1 DUP4 PUSH20 0xFFFFFFFFFFFFFFFFFFFFFFFFFFFFFFFFFFFFFFFF AND MUL OR SWAP1 SSTORE POP DUP2 PUSH20 0xFFFFFFFFFFFFFFFFFFFFFFFFFFFFFFFFFFFFFFFF AND DUP2 PUSH20 0xFFFFFFFFFFFFFFFFFFFFFFFFFFFFFFFFFFFFFFFF AND PUSH32 0x8BE0079C531659141344CD1FD0A4F28419497F9722A3DAAFE3B4186F6B6457E0 PUSH1 0x40 MLOAD PUSH1 0x40 MLOAD DUP1 SWAP2 SUB SWAP1 LOG3 POP POP JUMP JUMPDEST PUSH2 0x385A DUP1 PUSH3 0x114 PUSH1 0x0 CODECOPY PUSH1 0x0 RETURN INVALID PUSH1 0x80 PUSH1 0x40 MSTORE CALLVALUE DUP1 ISZERO PUSH2 0x10 JUMPI PUSH1 0x0 DUP1 REVERT JUMPDEST POP PUSH1 0x4 CALLDATASIZE LT PUSH2 0x142 JUMPI PUSH1 0x0 CALLDATALOAD PUSH1 0xE0 SHR DUP1 PUSH4 0x8DA5CB5B GT PUSH2 0xB8 JUMPI DUP1 PUSH4 0xD2744025 GT PUSH2 0x7C JUMPI DUP1 PUSH4 0xD2744025 EQ PUSH2 0x38C JUMPI DUP1 PUSH4 0xD547741F EQ PUSH2 0x3A8 JUMPI DUP1 PUSH4 0xD5C7E963 EQ PUSH2 0x3C4 JUMPI DUP1 PUSH4 0xD7CEA40D EQ PUSH2 0x3E0 JUMPI DUP1 PUSH4 0xE0CBC601 EQ PUSH2 0x410 JUMPI DUP1 PUSH4 0xF2FDE38B EQ PUSH2 0x42C JUMPI PUSH2 0x142 JUMP JUMPDEST DUP1 PUSH4 0x8DA5CB5B EQ PUSH2 0x2D4 JUMPI DUP1 PUSH4 0x91D14854 EQ PUSH2 0x2F2 JUMPI DUP1 PUSH4 0x923F852A EQ PUSH2 0x322 JUMPI DUP1 PUSH4 0xA217FDDF EQ PUSH2 0x33E JUMPI DUP1 PUSH4 0xA5323156 EQ PUSH2 0x35C JUMPI PUSH2 0x142 JUMP JUMPDEST DUP1 PUSH4 0x38EE4A2C GT PUSH2 0x10A JUMPI DUP1 PUSH4 0x38EE4A2C EQ PUSH2 0x1FD JUMPI DUP1 PUSH4 0x65E481E2 EQ PUSH2 0x219 JUMPI DUP1 PUSH4 0x66A5F53E EQ PUSH2 0x249 JUMPI DUP1 PUSH4 0x715018A6 EQ PUSH2 0x27A JUMPI DUP1 PUSH4 0x7C12A5CA EQ PUSH2 0x284 JUMPI DUP1 PUSH4 0x8C1D30AE EQ PUSH2 0x2B8 JUMPI PUSH2 0x142 JUMP JUMPDEST DUP1 PUSH4 0x1FFC9A7 EQ PUSH2 0x147 JUMPI DUP1 PUSH4 0x2092CB33 EQ PUSH2 0x177 JUMPI DUP1 PUSH4 0x248A9CA3 EQ PUSH2 0x195 JUMPI DUP1 PUSH4 0x2F2FF15D EQ PUSH2 0x1C5 JUMPI DUP1 PUSH4 0x36568ABE EQ PUSH2 0x1E1 JUMPI JUMPDEST PUSH1 0x0 DUP1 REVERT JUMPDEST PUSH2 0x161 PUSH1 0x4 DUP1 CALLDATASIZE SUB DUP2 ADD SWAP1 PUSH2 0x15C SWAP2 SWAP1 PUSH2 0x1FB1 JUMP JUMPDEST PUSH2 0x448 JUMP JUMPDEST PUSH1 0x40 MLOAD PUSH2 0x16E SWAP2 SWAP1 PUSH2 0x1FF9 JUMP JUMPDEST PUSH1 0x40 MLOAD DUP1 SWAP2 SUB SWAP1 RETURN JUMPDEST PUSH2 0x17F PUSH2 0x4C2 JUMP JUMPDEST PUSH1 0x40 MLOAD PUSH2 0x18C SWAP2 SWAP1 PUSH2 0x202D JUMP JUMPDEST PUSH1 0x40 MLOAD DUP1 SWAP2 SUB SWAP1 RETURN JUMPDEST PUSH2 0x1AF PUSH1 0x4 DUP1 CALLDATASIZE SUB DUP2 ADD SWAP1 PUSH2 0x1AA SWAP2 SWAP1 PUSH2 0x207E JUMP JUMPDEST PUSH2 0x509 JUMP JUMPDEST PUSH1 0x40 MLOAD PUSH2 0x1BC SWAP2 SWAP1 PUSH2 0x20BA JUMP JUMPDEST PUSH1 0x40 MLOAD DUP1 SWAP2 SUB SWAP1 RETURN JUMPDEST PUSH2 0x1DF PUSH1 0x4 DUP1 CALLDATASIZE SUB DUP2 ADD SWAP1 PUSH2 0x1DA SWAP2 SWAP1 PUSH2 0x2133 JUMP JUMPDEST PUSH2 0x529 JUMP JUMPDEST STOP JUMPDEST PUSH2 0x1FB PUSH1 0x4 DUP1 CALLDATASIZE SUB DUP2 ADD SWAP1 PUSH2 0x1F6 SWAP2 SWAP1 PUSH2 0x2133 JUMP JUMPDEST PUSH2 0x54A JUMP JUMPDEST STOP JUMPDEST PUSH2 0x217 PUSH1 0x4 DUP1 CALLDATASIZE SUB DUP2 ADD SWAP1 PUSH2 0x212 SWAP2 SWAP1 PUSH2 0x21D8 JUMP JUMPDEST PUSH2 0x5CD JUMP JUMPDEST STOP JUMPDEST PUSH2 0x233 PUSH1 0x4 DUP1 CALLDATASIZE SUB DUP2 ADD SWAP1 PUSH2 0x22E SWAP2 SWAP1 PUSH2 0x2225 JUMP JUMPDEST PUSH2 0x682 JUMP JUMPDEST PUSH1 0x40 MLOAD PUSH2 0x240 SWAP2 SWAP1 PUSH2 0x202D JUMP JUMPDEST PUSH1 0x40 MLOAD DUP1 SWAP2 SUB SWAP1 RETURN JUMPDEST PUSH2 0x263 PUSH1 0x4 DUP1 CALLDATASIZE SUB DUP2 ADD SWAP1 PUSH2 0x25E SWAP2 SWAP1 PUSH2 0x2225 JUMP JUMPDEST PUSH2 0x925 JUMP JUMPDEST PUSH1 0x40 MLOAD PUSH2 0x271 SWAP3 SWAP2 SWAP1 PUSH2 0x22A6 JUMP JUMPDEST PUSH1 0x40 MLOAD DUP1 SWAP2 SUB SWAP1 RETURN JUMPDEST PUSH2 0x282 PUSH2 0xB99 JUMP JUMPDEST STOP JUMPDEST PUSH2 0x29E PUSH1 0x4 DUP1 CALLDATASIZE SUB DUP2 ADD SWAP1 PUSH2 0x299 SWAP2 SWAP1 PUSH2 0x2410 JUMP JUMPDEST PUSH2 0xBAD JUMP JUMPDEST PUSH1 0x40 MLOAD PUSH2 0x2AF SWAP6 SWAP5 SWAP4 SWAP3 SWAP2 SWAP1 PUSH2 0x254F JUMP JUMPDEST PUSH1 0x40 MLOAD DUP1 SWAP2 SUB SWAP1 RETURN JUMPDEST PUSH2 0x2D2 PUSH1 0x4 DUP1 CALLDATASIZE SUB DUP2 ADD SWAP1 PUSH2 0x2CD SWAP2 SWAP1 PUSH2 0x21D8 JUMP JUMPDEST PUSH2 0xC8E JUMP JUMPDEST STOP JUMPDEST PUSH2 0x2DC PUSH2 0xDA1 JUMP JUMPDEST PUSH1 0x40 MLOAD PUSH2 0x2E9 SWAP2 SWAP1 PUSH2 0x25B8 JUMP JUMPDEST PUSH1 0x40 MLOAD DUP1 SWAP2 SUB SWAP1 RETURN JUMPDEST PUSH2 0x30C PUSH1 0x4 DUP1 CALLDATASIZE SUB DUP2 ADD SWAP1 PUSH2 0x307 SWAP2 SWAP1 PUSH2 0x2133 JUMP JUMPDEST PUSH2 0xDCA JUMP JUMPDEST PUSH1 0x40 MLOAD PUSH2 0x319 SWAP2 SWAP1 PUSH2 0x1FF9 JUMP JUMPDEST PUSH1 0x40 MLOAD DUP1 SWAP2 SUB SWAP1 RETURN JUMPDEST PUSH2 0x33C PUSH1 0x4 DUP1 CALLDATASIZE SUB DUP2 ADD SWAP1 PUSH2 0x337 SWAP2 SWAP1 PUSH2 0x262B JUMP JUMPDEST PUSH2 0xE35 JUMP JUMPDEST STOP JUMPDEST PUSH2 0x346 PUSH2 0x1258 JUMP JUMPDEST PUSH1 0x40 MLOAD PUSH2 0x353 SWAP2 SWAP1 PUSH2 0x20BA JUMP JUMPDEST PUSH1 0x40 MLOAD DUP1 SWAP2 SUB SWAP1 RETURN JUMPDEST PUSH2 0x376 PUSH1 0x4 DUP1 CALLDATASIZE SUB DUP2 ADD SWAP1 PUSH2 0x371 SWAP2 SWAP1 PUSH2 0x21D8 JUMP JUMPDEST PUSH2 0x125F JUMP JUMPDEST PUSH1 0x40 MLOAD PUSH2 0x383 SWAP2 SWAP1 PUSH2 0x202D JUMP JUMPDEST PUSH1 0x40 MLOAD DUP1 SWAP2 SUB SWAP1 RETURN JUMPDEST PUSH2 0x3A6 PUSH1 0x4 DUP1 CALLDATASIZE SUB DUP2 ADD SWAP1 PUSH2 0x3A1 SWAP2 SWAP1 PUSH2 0x26D2 JUMP JUMPDEST PUSH2 0x128D JUMP JUMPDEST STOP JUMPDEST PUSH2 0x3C2 PUSH1 0x4 DUP1 CALLDATASIZE SUB DUP2 ADD SWAP1 PUSH2 0x3BD SWAP2 SWAP1 PUSH2 0x2133 JUMP JUMPDEST PUSH2 0x141A JUMP JUMPDEST STOP JUMPDEST PUSH2 0x3DE PUSH1 0x4 DUP1 CALLDATASIZE SUB DUP2 ADD SWAP1 PUSH2 0x3D9 SWAP2 SWAP1 PUSH2 0x2746 JUMP JUMPDEST PUSH2 0x143B JUMP JUMPDEST STOP JUMPDEST PUSH2 0x3FA PUSH1 0x4 DUP1 CALLDATASIZE SUB DUP2 ADD SWAP1 PUSH2 0x3F5 SWAP2 SWAP1 PUSH2 0x21D8 JUMP JUMPDEST PUSH2 0x1555 JUMP JUMPDEST PUSH1 0x40 MLOAD PUSH2 0x407 SWAP2 SWAP1 PUSH2 0x27A6 JUMP JUMPDEST PUSH1 0x40 MLOAD DUP1 SWAP2 SUB SWAP1 RETURN JUMPDEST PUSH2 0x42A PUSH1 0x4 DUP1 CALLDATASIZE SUB DUP2 ADD SWAP1 PUSH2 0x425 SWAP2 SWAP1 PUSH2 0x21D8 JUMP JUMPDEST PUSH2 0x1590 JUMP JUMPDEST STOP JUMPDEST PUSH2 0x446 PUSH1 0x4 DUP1 CALLDATASIZE SUB DUP2 ADD SWAP1 PUSH2 0x441 SWAP2 SWAP1 PUSH2 0x27C1 JUMP JUMPDEST PUSH2 0x1658 JUMP JUMPDEST STOP JUMPDEST PUSH1 0x0 PUSH32 0x7965DB0B00000000000000000000000000000000000000000000000000000000 PUSH28 0xFFFFFFFFFFFFFFFFFFFFFFFFFFFFFFFFFFFFFFFFFFFFFFFFFFFFFFFF NOT AND DUP3 PUSH28 0xFFFFFFFFFFFFFFFFFFFFFFFFFFFFFFFFFFFFFFFFFFFFFFFFFFFFFFFF NOT AND EQ DUP1 PUSH2 0x4BB JUMPI POP PUSH2 0x4BA DUP3 PUSH2 0x16DB JUMP JUMPDEST JUMPDEST SWAP1 POP SWAP2 SWAP1 POP JUMP JUMPDEST PUSH1 0x0 PUSH1 0x2 PUSH1 0x0 CALLER PUSH20 0xFFFFFFFFFFFFFFFFFFFFFFFFFFFFFFFFFFFFFFFF AND PUSH20 0xFFFFFFFFFFFFFFFFFFFFFFFFFFFFFFFFFFFFFFFF AND DUP2 MSTORE PUSH1 0x20 ADD SWAP1 DUP2 MSTORE PUSH1 0x20 ADD PUSH1 0x0 KECCAK256 SLOAD SWAP1 POP SWAP1 JUMP JUMPDEST PUSH1 0x0 PUSH1 0x1 PUSH1 0x0 DUP4 DUP2 MSTORE PUSH1 0x20 ADD SWAP1 DUP2 MSTORE PUSH1 0x20 ADD PUSH1 0x0 KECCAK256 PUSH1 0x1 ADD SLOAD SWAP1 POP SWAP2 SWAP1 POP JUMP JUMPDEST PUSH2 0x532 DUP3 PUSH2 0x509 JUMP JUMPDEST PUSH2 0x53B DUP2 PUSH2 0x1745 JUMP JUMPDEST PUSH2 0x545 DUP4 DUP4 PUSH2 0x1759 JUMP JUMPDEST POP POP POP JUMP JUMPDEST PUSH2 0x552 PUSH2 0x1839 JUMP JUMPDEST PUSH20 0xFFFFFFFFFFFFFFFFFFFFFFFFFFFFFFFFFFFFFFFF AND DUP2 PUSH20 0xFFFFFFFFFFFFFFFFFFFFFFFFFFFFFFFFFFFFFFFF AND EQ PUSH2 0x5BF JUMPI PUSH1 0x40 MLOAD PUSH32 0x8C379A000000000000000000000000000000000000000000000000000000000 DUP2 MSTORE PUSH1 0x4 ADD PUSH2 0x5B6 SWAP1 PUSH2 0x2860 JUMP JUMPDEST PUSH1 0x40 MLOAD DUP1 SWAP2 SUB SWAP1 REVERT JUMPDEST PUSH2 0x5C9 DUP3 DUP3 PUSH2 0x1841 JUMP JUMPDEST POP POP JUMP JUMPDEST PUSH2 0x5D5 PUSH2 0x1923 JUMP JUMPDEST PUSH1 0x0 PUSH1 0x3 DUP4 DUP4 PUSH1 0x40 MLOAD PUSH2 0x5E9 SWAP3 SWAP2 SWAP1 PUSH2 0x28B0 JUMP JUMPDEST SWAP1 DUP2 MSTORE PUSH1 0x20 ADD PUSH1 0x40 MLOAD DUP1 SWAP2 SUB SWAP1 KECCAK256 SWAP1 POP PUSH1 0x1 DUP2 PUSH1 0x1 ADD PUSH1 0x0 PUSH2 0x100 EXP DUP2 SLOAD DUP2 PUSH1 0xFF MUL NOT AND SWAP1 DUP4 PUSH1 0x4 DUP2 GT ISZERO PUSH2 0x621 JUMPI PUSH2 0x620 PUSH2 0x24D8 JUMP JUMPDEST JUMPDEST MUL OR SWAP1 SSTORE POP DUP3 DUP3 DUP3 PUSH1 0x0 ADD SWAP2 DUP3 PUSH2 0x639 SWAP3 SWAP2 SWAP1 PUSH2 0x2AE0 JUMP JUMPDEST POP PUSH1 0x0 DUP2 PUSH1 0x5 ADD DUP2 SWAP1 SSTORE POP PUSH32 0xB5B74A176E1995815EAF9BA4AFB84A89580140043E4F90C6BCBCB496D46904C2 DUP4 DUP4 PUSH1 0x40 MLOAD PUSH2 0x675 SWAP3 SWAP2 SWAP1 PUSH2 0x2BDD JUMP JUMPDEST PUSH1 0x40 MLOAD DUP1 SWAP2 SUB SWAP1 LOG1 POP POP POP JUMP JUMPDEST PUSH1 0x0 PUSH2 0x68C PUSH2 0x1923 JUMP JUMPDEST PUSH1 0x1 PUSH1 0x4 DUP2 GT ISZERO PUSH2 0x6A0 JUMPI PUSH2 0x69F PUSH2 0x24D8 JUMP JUMPDEST JUMPDEST PUSH2 0x6AA DUP7 DUP7 PUSH2 0x1555 JUMP JUMPDEST PUSH1 0x4 DUP2 GT ISZERO PUSH2 0x6BC JUMPI PUSH2 0x6BB PUSH2 0x24D8 JUMP JUMPDEST JUMPDEST EQ PUSH2 0x6FC JUMPI PUSH1 0x40 MLOAD PUSH32 0x8C379A000000000000000000000000000000000000000000000000000000000 DUP2 MSTORE PUSH1 0x4 ADD PUSH2 0x6F3 SWAP1 PUSH2 0x2C99 JUMP JUMPDEST PUSH1 0x40 MLOAD DUP1 SWAP2 SUB SWAP1 REVERT JUMPDEST DUP3 DUP3 PUSH1 0x40 MLOAD PUSH2 0x70C SWAP3 SWAP2 SWAP1 PUSH2 0x2CE9 JUMP JUMPDEST PUSH1 0x40 MLOAD DUP1 SWAP2 SUB SWAP1 KECCAK256 PUSH1 0x3 DUP7 DUP7 PUSH1 0x40 MLOAD PUSH2 0x726 SWAP3 SWAP2 SWAP1 PUSH2 0x28B0 JUMP JUMPDEST SWAP1 DUP2 MSTORE PUSH1 0x20 ADD PUSH1 0x40 MLOAD DUP1 SWAP2 SUB SWAP1 KECCAK256 PUSH1 0x4 ADD DUP5 DUP5 PUSH1 0x40 MLOAD PUSH2 0x747 SWAP3 SWAP2 SWAP1 PUSH2 0x28B0 JUMP JUMPDEST SWAP1 DUP2 MSTORE PUSH1 0x20 ADD PUSH1 0x40 MLOAD DUP1 SWAP2 SUB SWAP1 KECCAK256 PUSH1 0x3 ADD PUSH1 0x40 MLOAD PUSH2 0x765 SWAP2 SWAP1 PUSH2 0x2D9A JUMP JUMPDEST PUSH1 0x40 MLOAD DUP1 SWAP2 SUB SWAP1 KECCAK256 SUB PUSH2 0x7AD JUMPI PUSH1 0x40 MLOAD PUSH32 0x8C379A000000000000000000000000000000000000000000000000000000000 DUP2 MSTORE PUSH1 0x4 ADD PUSH2 0x7A4 SWAP1 PUSH2 0x2DFD JUMP JUMPDEST PUSH1 0x40 MLOAD DUP1 SWAP2 SUB SWAP1 REVERT JUMPDEST DUP3 DUP3 PUSH1 0x3 DUP8 DUP8 PUSH1 0x40 MLOAD PUSH2 0x7C1 SWAP3 SWAP2 SWAP1 PUSH2 0x28B0 JUMP JUMPDEST SWAP1 DUP2 MSTORE PUSH1 0x20 ADD PUSH1 0x40 MLOAD DUP1 SWAP2 SUB SWAP1 KECCAK256 PUSH1 0x6 ADD PUSH1 0x0 PUSH1 0x3 DUP10 DUP10 PUSH1 0x40 MLOAD PUSH2 0x7E6 SWAP3 SWAP2 SWAP1 PUSH2 0x28B0 JUMP JUMPDEST SWAP1 DUP2 MSTORE PUSH1 0x20 ADD PUSH1 0x40 MLOAD DUP1 SWAP2 SUB SWAP1 KECCAK256 PUSH1 0x5 ADD SLOAD DUP2 MSTORE PUSH1 0x20 ADD SWAP1 DUP2 MSTORE PUSH1 0x20 ADD PUSH1 0x0 KECCAK256 SWAP2 DUP3 PUSH2 0x813 SWAP3 SWAP2 SWAP1 PUSH2 0x2AE0 JUMP JUMPDEST POP PUSH1 0x3 DUP6 DUP6 PUSH1 0x40 MLOAD PUSH2 0x826 SWAP3 SWAP2 SWAP1 PUSH2 0x28B0 JUMP JUMPDEST SWAP1 DUP2 MSTORE PUSH1 0x20 ADD PUSH1 0x40 MLOAD DUP1 SWAP2 SUB SWAP1 KECCAK256 PUSH1 0x5 ADD PUSH1 0x0 DUP2 SLOAD DUP1 SWAP3 SWAP2 SWAP1 PUSH2 0x848 SWAP1 PUSH2 0x2E4C JUMP JUMPDEST SWAP2 SWAP1 POP SSTORE POP PUSH1 0x0 PUSH1 0x3 DUP7 DUP7 PUSH1 0x40 MLOAD PUSH2 0x861 SWAP3 SWAP2 SWAP1 PUSH2 0x28B0 JUMP JUMPDEST SWAP1 DUP2 MSTORE PUSH1 0x20 ADD PUSH1 0x40 MLOAD DUP1 SWAP2 SUB SWAP1 KECCAK256 PUSH1 0x4 ADD DUP5 DUP5 PUSH1 0x40 MLOAD PUSH2 0x882 SWAP3 SWAP2 SWAP1 PUSH2 0x28B0 JUMP JUMPDEST SWAP1 DUP2 MSTORE PUSH1 0x20 ADD PUSH1 0x40 MLOAD DUP1 SWAP2 SUB SWAP1 KECCAK256 SWAP1 POP PUSH1 0x3 DUP7 DUP7 PUSH1 0x40 MLOAD PUSH2 0x8A4 SWAP3 SWAP2 SWAP1 PUSH2 0x28B0 JUMP JUMPDEST SWAP1 DUP2 MSTORE PUSH1 0x20 ADD PUSH1 0x40 MLOAD DUP1 SWAP2 SUB SWAP1 KECCAK256 PUSH1 0x5 ADD SLOAD DUP2 PUSH1 0x0 ADD DUP2 SWAP1 SSTORE POP DUP4 DUP4 DUP3 PUSH1 0x3 ADD SWAP2 DUP3 PUSH2 0x8D1 SWAP3 SWAP2 SWAP1 PUSH2 0x2AE0 JUMP JUMPDEST POP PUSH32 0x7B1CFFCCED3D3750EA9524D46FBC04C44025CE41EA889C22F1A85F158F7BA0CB DUP7 DUP7 DUP7 DUP7 DUP6 PUSH1 0x0 ADD SLOAD PUSH1 0x40 MLOAD PUSH2 0x90D SWAP6 SWAP5 SWAP4 SWAP3 SWAP2 SWAP1 PUSH2 0x2E94 JUMP JUMPDEST PUSH1 0x40 MLOAD DUP1 SWAP2 SUB SWAP1 LOG1 DUP1 PUSH1 0x0 ADD SLOAD SWAP2 POP POP SWAP5 SWAP4 POP POP POP POP JUMP JUMPDEST PUSH1 0x0 DUP1 PUSH1 0x0 DUP1 PUSH1 0x0 PUSH1 0x3 DUP10 DUP10 PUSH1 0x40 MLOAD PUSH2 0x93F SWAP3 SWAP2 SWAP1 PUSH2 0x28B0 JUMP JUMPDEST SWAP1 DUP2 MSTORE PUSH1 0x20 ADD PUSH1 0x40 MLOAD DUP1 SWAP2 SUB SWAP1 KECCAK256 PUSH1 0x4 ADD DUP8 DUP8 PUSH1 0x40 MLOAD PUSH2 0x960 SWAP3 SWAP2 SWAP1 PUSH2 0x28B0 JUMP JUMPDEST SWAP1 DUP2 MSTORE PUSH1 0x20 ADD PUSH1 0x40 MLOAD DUP1 SWAP2 SUB SWAP1 KECCAK256 PUSH1 0x4 ADD DUP1 SLOAD DUP1 PUSH1 0x20 MUL PUSH1 0x20 ADD PUSH1 0x40 MLOAD SWAP1 DUP2 ADD PUSH1 0x40 MSTORE DUP1 SWAP3 SWAP2 SWAP1 DUP2 DUP2 MSTORE PUSH1 0x20 ADD DUP3 DUP1 SLOAD DUP1 ISZERO PUSH2 0x9F1 JUMPI PUSH1 0x20 MUL DUP3 ADD SWAP2 SWAP1 PUSH1 0x0 MSTORE PUSH1 0x20 PUSH1 0x0 KECCAK256 SWAP1 JUMPDEST DUP2 PUSH1 0x0 SWAP1 SLOAD SWAP1 PUSH2 0x100 EXP SWAP1 DIV PUSH20 0xFFFFFFFFFFFFFFFFFFFFFFFFFFFFFFFFFFFFFFFF AND PUSH20 0xFFFFFFFFFFFFFFFFFFFFFFFFFFFFFFFFFFFFFFFF AND DUP2 MSTORE PUSH1 0x20 ADD SWAP1 PUSH1 0x1 ADD SWAP1 DUP1 DUP4 GT PUSH2 0x9A7 JUMPI JUMPDEST POP POP POP POP POP SWAP1 POP PUSH1 0x0 JUMPDEST DUP2 MLOAD DUP2 LT ISZERO PUSH2 0xB86 JUMPI PUSH1 0x0 DUP3 DUP3 DUP2 MLOAD DUP2 LT PUSH2 0xA19 JUMPI PUSH2 0xA18 PUSH2 0x2EDD JUMP JUMPDEST JUMPDEST PUSH1 0x20 MUL PUSH1 0x20 ADD ADD MLOAD SWAP1 POP PUSH1 0x0 PUSH1 0x3 DUP13 DUP13 PUSH1 0x40 MLOAD PUSH2 0xA37 SWAP3 SWAP2 SWAP1 PUSH2 0x28B0 JUMP JUMPDEST SWAP1 DUP2 MSTORE PUSH1 0x20 ADD PUSH1 0x40 MLOAD DUP1 SWAP2 SUB SWAP1 KECCAK256 PUSH1 0x4 ADD DUP11 DUP11 PUSH1 0x40 MLOAD PUSH2 0xA58 SWAP3 SWAP2 SWAP1 PUSH2 0x28B0 JUMP JUMPDEST SWAP1 DUP2 MSTORE PUSH1 0x20 ADD PUSH1 0x40 MLOAD DUP1 SWAP2 SUB SWAP1 KECCAK256 PUSH1 0x5 ADD PUSH1 0x0 DUP4 PUSH20 0xFFFFFFFFFFFFFFFFFFFFFFFFFFFFFFFFFFFFFFFF AND PUSH20 0xFFFFFFFFFFFFFFFFFFFFFFFFFFFFFFFFFFFFFFFF AND DUP2 MSTORE PUSH1 0x20 ADD SWAP1 DUP2 MSTORE PUSH1 0x20 ADD PUSH1 0x0 KECCAK256 PUSH1 0x0 ADD PUSH1 0x1 SWAP1 SLOAD SWAP1 PUSH2 0x100 EXP SWAP1 DIV PUSH1 0xFF AND SWAP1 POP PUSH1 0x0 PUSH1 0x3 DUP14 DUP14 PUSH1 0x40 MLOAD PUSH2 0xACD SWAP3 SWAP2 SWAP1 PUSH2 0x28B0 JUMP JUMPDEST SWAP1 DUP2 MSTORE PUSH1 0x20 ADD PUSH1 0x40 MLOAD DUP1 SWAP2 SUB SWAP1 KECCAK256 PUSH1 0x4 ADD DUP12 DUP12 PUSH1 0x40 MLOAD PUSH2 0xAEE SWAP3 SWAP2 SWAP1 PUSH2 0x28B0 JUMP JUMPDEST SWAP1 DUP2 MSTORE PUSH1 0x20 ADD PUSH1 0x40 MLOAD DUP1 SWAP2 SUB SWAP1 KECCAK256 PUSH1 0x5 ADD PUSH1 0x0 DUP5 PUSH20 0xFFFFFFFFFFFFFFFFFFFFFFFFFFFFFFFFFFFFFFFF AND PUSH20 0xFFFFFFFFFFFFFFFFFFFFFFFFFFFFFFFFFFFFFFFF AND DUP2 MSTORE PUSH1 0x20 ADD SWAP1 DUP2 MSTORE PUSH1 0x20 ADD PUSH1 0x0 KECCAK256 PUSH1 0x1 ADD SLOAD SWAP1 POP PUSH1 0x1 ISZERO ISZERO DUP3 ISZERO ISZERO SUB PUSH2 0xB61 JUMPI DUP1 DUP8 PUSH2 0xB5A SWAP2 SWAP1 PUSH2 0x2F0C JUMP JUMPDEST SWAP7 POP PUSH2 0xB70 JUMP JUMPDEST DUP1 DUP7 PUSH2 0xB6D SWAP2 SWAP1 PUSH2 0x2F0C JUMP JUMPDEST SWAP6 POP JUMPDEST POP POP POP DUP1 DUP1 PUSH2 0xB7E SWAP1 PUSH2 0x2E4C JUMP JUMPDEST SWAP2 POP POP PUSH2 0x9FB JUMP JUMPDEST POP DUP3 DUP3 SWAP5 POP SWAP5 POP POP POP POP SWAP5 POP SWAP5 SWAP3 POP POP POP JUMP JUMPDEST PUSH2 0xBA1 PUSH2 0x1923 JUMP JUMPDEST PUSH2 0xBAB PUSH1 0x0 PUSH2 0x19A1 JUMP JUMPDEST JUMP JUMPDEST PUSH1 0x3 DUP2 DUP1 MLOAD PUSH1 0x20 DUP2 ADD DUP3 ADD DUP1 MLOAD DUP5 DUP3 MSTORE PUSH1 0x20 DUP4 ADD PUSH1 0x20 DUP6 ADD KECCAK256 DUP2 DUP4 MSTORE DUP1 SWAP6 POP POP POP POP POP POP PUSH1 0x0 SWAP2 POP SWAP1 POP DUP1 PUSH1 0x0 ADD DUP1 SLOAD PUSH2 0xBE6 SWAP1 PUSH2 0x2903 JUMP JUMPDEST DUP1 PUSH1 0x1F ADD PUSH1 0x20 DUP1 SWAP2 DIV MUL PUSH1 0x20 ADD PUSH1 0x40 MLOAD SWAP1 DUP2 ADD PUSH1 0x40 MSTORE DUP1 SWAP3 SWAP2 SWAP1 DUP2 DUP2 MSTORE PUSH1 0x20 ADD DUP3 DUP1 SLOAD PUSH2 0xC12 SWAP1 PUSH2 0x2903 JUMP JUMPDEST DUP1 ISZERO PUSH2 0xC5F JUMPI DUP1 PUSH1 0x1F LT PUSH2 0xC34 JUMPI PUSH2 0x100 DUP1 DUP4 SLOAD DIV MUL DUP4 MSTORE SWAP2 PUSH1 0x20 ADD SWAP2 PUSH2 0xC5F JUMP JUMPDEST DUP3 ADD SWAP2 SWAP1 PUSH1 0x0 MSTORE PUSH1 0x20 PUSH1 0x0 KECCAK256 SWAP1 JUMPDEST DUP2 SLOAD DUP2 MSTORE SWAP1 PUSH1 0x1 ADD SWAP1 PUSH1 0x20 ADD DUP1 DUP4 GT PUSH2 0xC42 JUMPI DUP3 SWAP1 SUB PUSH1 0x1F AND DUP3 ADD SWAP2 JUMPDEST POP POP POP POP POP SWAP1 DUP1 PUSH1 0x1 ADD PUSH1 0x0 SWAP1 SLOAD SWAP1 PUSH2 0x100 EXP SWAP1 DIV PUSH1 0xFF AND SWAP1 DUP1 PUSH1 0x2 ADD SLOAD SWAP1 DUP1 PUSH1 0x3 ADD SLOAD SWAP1 DUP1 PUSH1 0x5 ADD SLOAD SWAP1 POP DUP6 JUMP JUMPDEST PUSH2 0xC96 PUSH2 0x1923 JUMP JUMPDEST PUSH1 0x2 PUSH1 0x4 DUP2 GT ISZERO PUSH2 0xCAA JUMPI PUSH2 0xCA9 PUSH2 0x24D8 JUMP JUMPDEST JUMPDEST PUSH2 0xCB4 DUP4 DUP4 PUSH2 0x1555 JUMP JUMPDEST PUSH1 0x4 DUP2 GT ISZERO PUSH2 0xCC6 JUMPI PUSH2 0xCC5 PUSH2 0x24D8 JUMP JUMPDEST JUMPDEST EQ PUSH2 0xD06 JUMPI PUSH1 0x40 MLOAD PUSH32 0x8C379A000000000000000000000000000000000000000000000000000000000 DUP2 MSTORE PUSH1 0x4 ADD PUSH2 0xCFD SWAP1 PUSH2 0x2F8C JUMP JUMPDEST PUSH1 0x40 MLOAD DUP1 SWAP2 SUB SWAP1 REVERT JUMPDEST PUSH2 0xD10 DUP3 DUP3 PUSH2 0x125F JUMP JUMPDEST TIMESTAMP LT ISZERO PUSH2 0xD52 JUMPI PUSH1 0x40 MLOAD PUSH32 0x8C379A000000000000000000000000000000000000000000000000000000000 DUP2 MSTORE PUSH1 0x4 ADD PUSH2 0xD49 SWAP1 PUSH2 0x2FF8 JUMP JUMPDEST PUSH1 0x40 MLOAD DUP1 SWAP2 SUB SWAP1 REVERT JUMPDEST PUSH1 0x3 DUP1 DUP4 DUP4 PUSH1 0x40 MLOAD PUSH2 0xD65 SWAP3 SWAP2 SWAP1 PUSH2 0x28B0 JUMP JUMPDEST SWAP1 DUP2 MSTORE PUSH1 0x20 ADD PUSH1 0x40 MLOAD DUP1 SWAP2 SUB SWAP1 KECCAK256 PUSH1 0x1 ADD PUSH1 0x0 PUSH2 0x100 EXP DUP2 SLOAD DUP2 PUSH1 0xFF MUL NOT AND SWAP1 DUP4 PUSH1 0x4 DUP2 GT ISZERO PUSH2 0xD98 JUMPI PUSH2 0xD97 PUSH2 0x24D8 JUMP JUMPDEST JUMPDEST MUL OR SWAP1 SSTORE POP POP POP JUMP JUMPDEST PUSH1 0x0 DUP1 PUSH1 0x0 SWAP1 SLOAD SWAP1 PUSH2 0x100 EXP SWAP1 DIV PUSH20 0xFFFFFFFFFFFFFFFFFFFFFFFFFFFFFFFFFFFFFFFF AND SWAP1 POP SWAP1 JUMP JUMPDEST PUSH1 0x0 PUSH1 0x1 PUSH1 0x0 DUP5 DUP2 MSTORE PUSH1 0x20 ADD SWAP1 DUP2 MSTORE PUSH1 0x20 ADD PUSH1 0x0 KECCAK256 PUSH1 0x0 ADD PUSH1 0x0 DUP4 PUSH20 0xFFFFFFFFFFFFFFFFFFFFFFFFFFFFFFFFFFFFFFFF AND PUSH20 0xFFFFFFFFFFFFFFFFFFFFFFFFFFFFFFFFFFFFFFFF AND DUP2 MSTORE PUSH1 0x20 ADD SWAP1 DUP2 MSTORE PUSH1 0x20 ADD PUSH1 0x0 KECCAK256 PUSH1 0x0 SWAP1 SLOAD SWAP1 PUSH2 0x100 EXP SWAP1 DIV PUSH1 0xFF AND SWAP1 POP SWAP3 SWAP2 POP POP JUMP JUMPDEST PUSH1 0x2 PUSH1 0x4 DUP2 GT ISZERO PUSH2 0xE49 JUMPI PUSH2 0xE48 PUSH2 0x24D8 JUMP JUMPDEST JUMPDEST PUSH2 0xE53 DUP8 DUP8 PUSH2 0x1555 JUMP JUMPDEST PUSH1 0x4 DUP2 GT ISZERO PUSH2 0xE65 JUMPI PUSH2 0xE64 PUSH2 0x24D8 JUMP JUMPDEST JUMPDEST EQ PUSH2 0xEA5 JUMPI PUSH1 0x40 MLOAD PUSH32 0x8C379A000000000000000000000000000000000000000000000000000000000 DUP2 MSTORE PUSH1 0x4 ADD PUSH2 0xE9C SWAP1 PUSH2 0x308A JUMP JUMPDEST PUSH1 0x40 MLOAD DUP1 SWAP2 SUB SWAP1 REVERT JUMPDEST TIMESTAMP PUSH2 0xEB0 DUP8 DUP8 PUSH2 0x125F JUMP JUMPDEST GT PUSH2 0xEF0 JUMPI PUSH1 0x40 MLOAD PUSH32 0x8C379A000000000000000000000000000000000000000000000000000000000 DUP2 MSTORE PUSH1 0x4 ADD PUSH2 0xEE7 SWAP1 PUSH2 0x311C JUMP JUMPDEST PUSH1 0x40 MLOAD DUP1 SWAP2 SUB SWAP1 REVERT JUMPDEST PUSH2 0xEFC DUP7 DUP7 DUP7 DUP7 PUSH2 0x1A65 JUMP JUMPDEST ISZERO PUSH2 0xF3C JUMPI PUSH1 0x40 MLOAD PUSH32 0x8C379A000000000000000000000000000000000000000000000000000000000 DUP2 MSTORE PUSH1 0x4 ADD PUSH2 0xF33 SWAP1 PUSH2 0x31AE JUMP JUMPDEST PUSH1 0x40 MLOAD DUP1 SWAP2 SUB SWAP1 REVERT JUMPDEST PUSH1 0x0 ISZERO ISZERO PUSH1 0x3 DUP8 DUP8 PUSH1 0x40 MLOAD PUSH2 0xF52 SWAP3 SWAP2 SWAP1 PUSH2 0x28B0 JUMP JUMPDEST SWAP1 DUP2 MSTORE PUSH1 0x20 ADD PUSH1 0x40 MLOAD DUP1 SWAP2 SUB SWAP1 KECCAK256 PUSH1 0x7 ADD PUSH1 0x0 CALLER PUSH20 0xFFFFFFFFFFFFFFFFFFFFFFFFFFFFFFFFFFFFFFFF AND PUSH20 0xFFFFFFFFFFFFFFFFFFFFFFFFFFFFFFFFFFFFFFFF AND DUP2 MSTORE PUSH1 0x20 ADD SWAP1 DUP2 MSTORE PUSH1 0x20 ADD PUSH1 0x0 KECCAK256 PUSH1 0x0 SWAP1 SLOAD SWAP1 PUSH2 0x100 EXP SWAP1 DIV PUSH1 0xFF AND ISZERO ISZERO SUB PUSH2 0xFC0 JUMPI PUSH2 0xFBF DUP7 DUP7 PUSH2 0x1B03 JUMP JUMPDEST JUMPDEST PUSH1 0x0 DUP1 PUSH2 0x1015 DUP5 PUSH1 0x2 PUSH1 0x0 CALLER PUSH20 0xFFFFFFFFFFFFFFFFFFFFFFFFFFFFFFFFFFFFFFFF AND PUSH20 0xFFFFFFFFFFFFFFFFFFFFFFFFFFFFFFFFFFFFFFFF AND DUP2 MSTORE PUSH1 0x20 ADD SWAP1 DUP2 MSTORE PUSH1 0x20 ADD PUSH1 0x0 KECCAK256 SLOAD PUSH2 0x1BE7 SWAP1 SWAP2 SWAP1 PUSH4 0xFFFFFFFF AND JUMP JUMPDEST DUP1 SWAP3 POP DUP2 SWAP4 POP POP POP PUSH1 0x1 ISZERO ISZERO DUP3 ISZERO ISZERO EQ PUSH2 0x1064 JUMPI PUSH1 0x40 MLOAD PUSH32 0x8C379A000000000000000000000000000000000000000000000000000000000 DUP2 MSTORE PUSH1 0x4 ADD PUSH2 0x105B SWAP1 PUSH2 0x321A JUMP JUMPDEST PUSH1 0x40 MLOAD DUP1 SWAP2 SUB SWAP1 REVERT JUMPDEST DUP1 PUSH1 0x2 PUSH1 0x0 CALLER PUSH20 0xFFFFFFFFFFFFFFFFFFFFFFFFFFFFFFFFFFFFFFFF AND PUSH20 0xFFFFFFFFFFFFFFFFFFFFFFFFFFFFFFFFFFFFFFFF AND DUP2 MSTORE PUSH1 0x20 ADD SWAP1 DUP2 MSTORE PUSH1 0x20 ADD PUSH1 0x0 KECCAK256 DUP2 SWAP1 SSTORE POP PUSH1 0x0 PUSH2 0x10B3 DUP6 PUSH2 0x1C0F JUMP JUMPDEST SWAP1 POP PUSH1 0x0 PUSH1 0x3 DUP11 DUP11 PUSH1 0x40 MLOAD PUSH2 0x10C9 SWAP3 SWAP2 SWAP1 PUSH2 0x28B0 JUMP JUMPDEST SWAP1 DUP2 MSTORE PUSH1 0x20 ADD PUSH1 0x40 MLOAD DUP1 SWAP2 SUB SWAP1 KECCAK256 PUSH1 0x4 ADD DUP9 DUP9 PUSH1 0x40 MLOAD PUSH2 0x10EA SWAP3 SWAP2 SWAP1 PUSH2 0x28B0 JUMP JUMPDEST SWAP1 DUP2 MSTORE PUSH1 0x20 ADD PUSH1 0x40 MLOAD DUP1 SWAP2 SUB SWAP1 KECCAK256 SWAP1 POP PUSH1 0x40 MLOAD DUP1 PUSH1 0x60 ADD PUSH1 0x40 MSTORE DUP1 PUSH1 0x1 ISZERO ISZERO DUP2 MSTORE PUSH1 0x20 ADD DUP7 ISZERO ISZERO DUP2 MSTORE PUSH1 0x20 ADD DUP4 DUP2 MSTORE POP DUP2 PUSH1 0x5 ADD PUSH1 0x0 CALLER PUSH20 0xFFFFFFFFFFFFFFFFFFFFFFFFFFFFFFFFFFFFFFFF AND PUSH20 0xFFFFFFFFFFFFFFFFFFFFFFFFFFFFFFFFFFFFFFFF AND DUP2 MSTORE PUSH1 0x20 ADD SWAP1 DUP2 MSTORE PUSH1 0x20 ADD PUSH1 0x0 KECCAK256 PUSH1 0x0 DUP3 ADD MLOAD DUP2 PUSH1 0x0 ADD PUSH1 0x0 PUSH2 0x100 EXP DUP2 SLOAD DUP2 PUSH1 0xFF MUL NOT AND SWAP1 DUP4 ISZERO ISZERO MUL OR SWAP1 SSTORE POP PUSH1 0x20 DUP3 ADD MLOAD DUP2 PUSH1 0x0 ADD PUSH1 0x1 PUSH2 0x100 EXP DUP2 SLOAD DUP2 PUSH1 0xFF MUL NOT AND SWAP1 DUP4 ISZERO ISZERO MUL OR SWAP1 SSTORE POP PUSH1 0x40 DUP3 ADD MLOAD DUP2 PUSH1 0x1 ADD SSTORE SWAP1 POP POP DUP1 PUSH1 0x4 ADD CALLER SWAP1 DUP1 PUSH1 0x1 DUP2 SLOAD ADD DUP1 DUP3 SSTORE DUP1 SWAP2 POP POP PUSH1 0x1 SWAP1 SUB SWAP1 PUSH1 0x0 MSTORE PUSH1 0x20 PUSH1 0x0 KECCAK256 ADD PUSH1 0x0 SWAP1 SWAP2 SWAP1 SWAP2 SWAP1 SWAP2 PUSH2 0x100 EXP DUP2 SLOAD DUP2 PUSH20 0xFFFFFFFFFFFFFFFFFFFFFFFFFFFFFFFFFFFFFFFF MUL NOT AND SWAP1 DUP4 PUSH20 0xFFFFFFFFFFFFFFFFFFFFFFFFFFFFFFFFFFFFFFFF AND MUL OR SWAP1 SSTORE POP PUSH32 0x53F1DBE2CEBA78487A30E1AFCBE7B30375C220ED56C4E9349A4E6FCFBD828077 CALLER DUP12 DUP12 DUP9 DUP7 PUSH1 0x40 MLOAD PUSH2 0x1244 SWAP6 SWAP5 SWAP4 SWAP3 SWAP2 SWAP1 PUSH2 0x323A JUMP JUMPDEST PUSH1 0x40 MLOAD DUP1 SWAP2 SUB SWAP1 LOG1 POP POP POP POP POP POP POP POP POP POP JUMP JUMPDEST PUSH1 0x0 DUP1 SHL DUP2 JUMP JUMPDEST PUSH1 0x0 PUSH1 0x3 DUP4 DUP4 PUSH1 0x40 MLOAD PUSH2 0x1273 SWAP3 SWAP2 SWAP1 PUSH2 0x28B0 JUMP JUMPDEST SWAP1 DUP2 MSTORE PUSH1 0x20 ADD PUSH1 0x40 MLOAD DUP1 SWAP2 SUB SWAP1 KECCAK256 PUSH1 0x2 ADD SLOAD SWAP1 POP SWAP3 SWAP2 POP POP JUMP JUMPDEST PUSH2 0x1295 PUSH2 0x1923 JUMP JUMPDEST PUSH1 0x0 DUP3 GT PUSH2 0x12D8 JUMPI PUSH1 0x40 MLOAD PUSH32 0x8C379A000000000000000000000000000000000000000000000000000000000 DUP2 MSTORE PUSH1 0x4 ADD PUSH2 0x12CF SWAP1 PUSH2 0x32D4 JUMP JUMPDEST PUSH1 0x40 MLOAD DUP1 SWAP2 SUB SWAP1 REVERT JUMPDEST PUSH1 0x0 DUP2 GT PUSH2 0x131B JUMPI PUSH1 0x40 MLOAD PUSH32 0x8C379A000000000000000000000000000000000000000000000000000000000 DUP2 MSTORE PUSH1 0x4 ADD PUSH2 0x1312 SWAP1 PUSH2 0x3340 JUMP JUMPDEST PUSH1 0x40 MLOAD DUP1 SWAP2 SUB SWAP1 REVERT JUMPDEST PUSH1 0x1 PUSH1 0x4 DUP2 GT ISZERO PUSH2 0x132F JUMPI PUSH2 0x132E PUSH2 0x24D8 JUMP JUMPDEST JUMPDEST PUSH2 0x1339 DUP6 DUP6 PUSH2 0x1555 JUMP JUMPDEST PUSH1 0x4 DUP2 GT ISZERO PUSH2 0x134B JUMPI PUSH2 0x134A PUSH2 0x24D8 JUMP JUMPDEST JUMPDEST EQ PUSH2 0x1355 JUMPI PUSH1 0x0 DUP1 REVERT JUMPDEST DUP1 PUSH1 0x3 DUP6 DUP6 PUSH1 0x40 MLOAD PUSH2 0x1368 SWAP3 SWAP2 SWAP1 PUSH2 0x28B0 JUMP JUMPDEST SWAP1 DUP2 MSTORE PUSH1 0x20 ADD PUSH1 0x40 MLOAD DUP1 SWAP2 SUB SWAP1 KECCAK256 PUSH1 0x3 ADD DUP2 SWAP1 SSTORE POP PUSH1 0x1 DUP3 PUSH1 0x3C PUSH2 0x138C SWAP2 SWAP1 PUSH2 0x3360 JUMP JUMPDEST PUSH2 0x1396 SWAP2 SWAP1 PUSH2 0x3360 JUMP JUMPDEST TIMESTAMP PUSH2 0x13A1 SWAP2 SWAP1 PUSH2 0x2F0C JUMP JUMPDEST PUSH1 0x3 DUP6 DUP6 PUSH1 0x40 MLOAD PUSH2 0x13B3 SWAP3 SWAP2 SWAP1 PUSH2 0x28B0 JUMP JUMPDEST SWAP1 DUP2 MSTORE PUSH1 0x20 ADD PUSH1 0x40 MLOAD DUP1 SWAP2 SUB SWAP1 KECCAK256 PUSH1 0x2 ADD DUP2 SWAP1 SSTORE POP PUSH1 0x2 PUSH1 0x3 DUP6 DUP6 PUSH1 0x40 MLOAD PUSH2 0x13DC SWAP3 SWAP2 SWAP1 PUSH2 0x28B0 JUMP JUMPDEST SWAP1 DUP2 MSTORE PUSH1 0x20 ADD PUSH1 0x40 MLOAD DUP1 SWAP2 SUB SWAP1 KECCAK256 PUSH1 0x1 ADD PUSH1 0x0 PUSH2 0x100 EXP DUP2 SLOAD DUP2 PUSH1 0xFF MUL NOT AND SWAP1 DUP4 PUSH1 0x4 DUP2 GT ISZERO PUSH2 0x140F JUMPI PUSH2 0x140E PUSH2 0x24D8 JUMP JUMPDEST JUMPDEST MUL OR SWAP1 SSTORE POP POP POP POP POP JUMP JUMPDEST PUSH2 0x1423 DUP3 PUSH2 0x509 JUMP JUMPDEST PUSH2 0x142C DUP2 PUSH2 0x1745 JUMP JUMPDEST PUSH2 0x1436 DUP4 DUP4 PUSH2 0x1841 JUMP JUMPDEST POP POP POP JUMP JUMPDEST PUSH2 0x1443 PUSH2 0x1923 JUMP JUMPDEST PUSH1 0x2 PUSH1 0x4 DUP2 GT ISZERO PUSH2 0x1457 JUMPI PUSH2 0x1456 PUSH2 0x24D8 JUMP JUMPDEST JUMPDEST PUSH2 0x1461 DUP5 DUP5 PUSH2 0x1555 JUMP JUMPDEST PUSH1 0x4 DUP2 GT ISZERO PUSH2 0x1473 JUMPI PUSH2 0x1472 PUSH2 0x24D8 JUMP JUMPDEST JUMPDEST EQ PUSH2 0x14B3 JUMPI PUSH1 0x40 MLOAD PUSH32 0x8C379A000000000000000000000000000000000000000000000000000000000 DUP2 MSTORE PUSH1 0x4 ADD PUSH2 0x14AA SWAP1 PUSH2 0x3414 JUMP JUMPDEST PUSH1 0x40 MLOAD DUP1 SWAP2 SUB SWAP1 REVERT JUMPDEST TIMESTAMP PUSH2 0x14BE DUP5 DUP5 PUSH2 0x125F JUMP JUMPDEST GT PUSH2 0x14FE JUMPI PUSH1 0x40 MLOAD PUSH32 0x8C379A000000000000000000000000000000000000000000000000000000000 DUP2 MSTORE PUSH1 0x4 ADD PUSH2 0x14F5 SWAP1 PUSH2 0x3480 JUMP JUMPDEST PUSH1 0x40 MLOAD DUP1 SWAP2 SUB SWAP1 REVERT JUMPDEST PUSH1 0x1 DUP2 PUSH1 0x3C PUSH2 0x150D SWAP2 SWAP1 PUSH2 0x3360 JUMP JUMPDEST PUSH2 0x1517 SWAP2 SWAP1 PUSH2 0x3360 JUMP JUMPDEST PUSH1 0x3 DUP5 DUP5 PUSH1 0x40 MLOAD PUSH2 0x1529 SWAP3 SWAP2 SWAP1 PUSH2 0x28B0 JUMP JUMPDEST SWAP1 DUP2 MSTORE PUSH1 0x20 ADD PUSH1 0x40 MLOAD DUP1 SWAP2 SUB SWAP1 KECCAK256 PUSH1 0x2 ADD PUSH1 0x0 DUP3 DUP3 SLOAD PUSH2 0x1549 SWAP2 SWAP1 PUSH2 0x2F0C JUMP JUMPDEST SWAP3 POP POP DUP2 SWAP1 SSTORE POP POP POP POP JUMP JUMPDEST PUSH1 0x0 PUSH1 0x3 DUP4 DUP4 PUSH1 0x40 MLOAD PUSH2 0x1569 SWAP3 SWAP2 SWAP1 PUSH2 0x28B0 JUMP JUMPDEST SWAP1 DUP2 MSTORE PUSH1 0x20 ADD PUSH1 0x40 MLOAD DUP1 SWAP2 SUB SWAP1 KECCAK256 PUSH1 0x1 ADD PUSH1 0x0 SWAP1 SLOAD SWAP1 PUSH2 0x100 EXP SWAP1 DIV PUSH1 0xFF AND SWAP1 POP SWAP3 SWAP2 POP POP JUMP JUMPDEST PUSH2 0x1598 PUSH2 0x1923 JUMP JUMPDEST PUSH1 0x3 PUSH1 0x4 DUP2 GT ISZERO PUSH2 0x15AC JUMPI PUSH2 0x15AB PUSH2 0x24D8 JUMP JUMPDEST JUMPDEST PUSH2 0x15B6 DUP4 DUP4 PUSH2 0x1555 JUMP JUMPDEST PUSH1 0x4 DUP2 GT ISZERO PUSH2 0x15C8 JUMPI PUSH2 0x15C7 PUSH2 0x24D8 JUMP JUMPDEST JUMPDEST EQ PUSH2 0x1608 JUMPI PUSH1 0x40 MLOAD PUSH32 0x8C379A000000000000000000000000000000000000000000000000000000000 DUP2 MSTORE PUSH1 0x4 ADD PUSH2 0x15FF SWAP1 PUSH2 0x34EC JUMP JUMPDEST PUSH1 0x40 MLOAD DUP1 SWAP2 SUB SWAP1 REVERT JUMPDEST PUSH1 0x4 PUSH1 0x3 DUP4 DUP4 PUSH1 0x40 MLOAD PUSH2 0x161C SWAP3 SWAP2 SWAP1 PUSH2 0x28B0 JUMP JUMPDEST SWAP1 DUP2 MSTORE PUSH1 0x20 ADD PUSH1 0x40 MLOAD DUP1 SWAP2 SUB SWAP1 KECCAK256 PUSH1 0x1 ADD PUSH1 0x0 PUSH2 0x100 EXP DUP2 SLOAD DUP2 PUSH1 0xFF MUL NOT AND SWAP1 DUP4 PUSH1 0x4 DUP2 GT ISZERO PUSH2 0x164F JUMPI PUSH2 0x164E PUSH2 0x24D8 JUMP JUMPDEST JUMPDEST MUL OR SWAP1 SSTORE POP POP POP JUMP JUMPDEST PUSH2 0x1660 PUSH2 0x1923 JUMP JUMPDEST PUSH1 0x0 PUSH20 0xFFFFFFFFFFFFFFFFFFFFFFFFFFFFFFFFFFFFFFFF AND DUP2 PUSH20 0xFFFFFFFFFFFFFFFFFFFFFFFFFFFFFFFFFFFFFFFF AND SUB PUSH2 0x16CF JUMPI PUSH1 0x40 MLOAD PUSH32 0x8C379A000000000000000000000000000000000000000000000000000000000 DUP2 MSTORE PUSH1 0x4 ADD PUSH2 0x16C6 SWAP1 PUSH2 0x357E JUMP JUMPDEST PUSH1 0x40 MLOAD DUP1 SWAP2 SUB SWAP1 REVERT JUMPDEST PUSH2 0x16D8 DUP2 PUSH2 0x19A1 JUMP JUMPDEST POP JUMP JUMPDEST PUSH1 0x0 PUSH32 0x1FFC9A700000000000000000000000000000000000000000000000000000000 PUSH28 0xFFFFFFFFFFFFFFFFFFFFFFFFFFFFFFFFFFFFFFFFFFFFFFFFFFFFFFFF NOT AND DUP3 PUSH28 0xFFFFFFFFFFFFFFFFFFFFFFFFFFFFFFFFFFFFFFFFFFFFFFFFFFFFFFFF NOT AND EQ SWAP1 POP SWAP2 SWAP1 POP JUMP JUMPDEST PUSH2 0x1756 DUP2 PUSH2 0x1751 PUSH2 0x1839 JUMP JUMPDEST PUSH2 0x1C6C JUMP JUMPDEST POP JUMP JUMPDEST PUSH2 0x1763 DUP3 DUP3 PUSH2 0xDCA JUMP JUMPDEST PUSH2 0x1835 JUMPI PUSH1 0x1 DUP1 PUSH1 0x0 DUP5 DUP2 MSTORE PUSH1 0x20 ADD SWAP1 DUP2 MSTORE PUSH1 0x20 ADD PUSH1 0x0 KECCAK256 PUSH1 0x0 ADD PUSH1 0x0 DUP4 PUSH20 0xFFFFFFFFFFFFFFFFFFFFFFFFFFFFFFFFFFFFFFFF AND PUSH20 0xFFFFFFFFFFFFFFFFFFFFFFFFFFFFFFFFFFFFFFFF AND DUP2 MSTORE PUSH1 0x20 ADD SWAP1 DUP2 MSTORE PUSH1 0x20 ADD PUSH1 0x0 KECCAK256 PUSH1 0x0 PUSH2 0x100 EXP DUP2 SLOAD DUP2 PUSH1 0xFF MUL NOT AND SWAP1 DUP4 ISZERO ISZERO MUL OR SWAP1 SSTORE POP PUSH2 0x17DA PUSH2 0x1839 JUMP JUMPDEST PUSH20 0xFFFFFFFFFFFFFFFFFFFFFFFFFFFFFFFFFFFFFFFF AND DUP2 PUSH20 0xFFFFFFFFFFFFFFFFFFFFFFFFFFFFFFFFFFFFFFFF AND DUP4 PUSH32 0x2F8788117E7EFF1D82E926EC794901D17C78024A50270940304540A733656F0D PUSH1 0x40 MLOAD PUSH1 0x40 MLOAD DUP1 SWAP2 SUB SWAP1 LOG4 JUMPDEST POP POP JUMP JUMPDEST PUSH1 0x0 CALLER SWAP1 POP SWAP1 JUMP JUMPDEST PUSH2 0x184B DUP3 DUP3 PUSH2 0xDCA JUMP JUMPDEST ISZERO PUSH2 0x191F JUMPI PUSH1 0x0 PUSH1 0x1 PUSH1 0x0 DUP5 DUP2 MSTORE PUSH1 0x20 ADD SWAP1 DUP2 MSTORE PUSH1 0x20 ADD PUSH1 0x0 KECCAK256 PUSH1 0x0 ADD PUSH1 0x0 DUP4 PUSH20 0xFFFFFFFFFFFFFFFFFFFFFFFFFFFFFFFFFFFFFFFF AND PUSH20 0xFFFFFFFFFFFFFFFFFFFFFFFFFFFFFFFFFFFFFFFF AND DUP2 MSTORE PUSH1 0x20 ADD SWAP1 DUP2 MSTORE PUSH1 0x20 ADD PUSH1 0x0 KECCAK256 PUSH1 0x0 PUSH2 0x100 EXP DUP2 SLOAD DUP2 PUSH1 0xFF MUL NOT AND SWAP1 DUP4 ISZERO ISZERO MUL OR SWAP1 SSTORE POP PUSH2 0x18C4 PUSH2 0x1839 JUMP JUMPDEST PUSH20 0xFFFFFFFFFFFFFFFFFFFFFFFFFFFFFFFFFFFFFFFF AND DUP2 PUSH20 0xFFFFFFFFFFFFFFFFFFFFFFFFFFFFFFFFFFFFFFFF AND DUP4 PUSH32 0xF6391F5C32D9C69D2A47EA670B442974B53935D1EDC7FD64EB21E047A839171B PUSH1 0x40 MLOAD PUSH1 0x40 MLOAD DUP1 SWAP2 SUB SWAP1 LOG4 JUMPDEST POP POP JUMP JUMPDEST PUSH2 0x192B PUSH2 0x1839 JUMP JUMPDEST PUSH20 0xFFFFFFFFFFFFFFFFFFFFFFFFFFFFFFFFFFFFFFFF AND PUSH2 0x1949 PUSH2 0xDA1 JUMP JUMPDEST PUSH20 0xFFFFFFFFFFFFFFFFFFFFFFFFFFFFFFFFFFFFFFFF AND EQ PUSH2 0x199F JUMPI PUSH1 0x40 MLOAD PUSH32 0x8C379A000000000000000000000000000000000000000000000000000000000 DUP2 MSTORE PUSH1 0x4 ADD PUSH2 0x1996 SWAP1 PUSH2 0x35EA JUMP JUMPDEST PUSH1 0x40 MLOAD DUP1 SWAP2 SUB SWAP1 REVERT JUMPDEST JUMP JUMPDEST PUSH1 0x0 DUP1 PUSH1 0x0 SWAP1 SLOAD SWAP1 PUSH2 0x100 EXP SWAP1 DIV PUSH20 0xFFFFFFFFFFFFFFFFFFFFFFFFFFFFFFFFFFFFFFFF AND SWAP1 POP DUP2 PUSH1 0x0 DUP1 PUSH2 0x100 EXP DUP2 SLOAD DUP2 PUSH20 0xFFFFFFFFFFFFFFFFFFFFFFFFFFFFFFFFFFFFFFFF MUL NOT AND SWAP1 DUP4 PUSH20 0xFFFFFFFFFFFFFFFFFFFFFFFFFFFFFFFFFFFFFFFF AND MUL OR SWAP1 SSTORE POP DUP2 PUSH20 0xFFFFFFFFFFFFFFFFFFFFFFFFFFFFFFFFFFFFFFFF AND DUP2 PUSH20 0xFFFFFFFFFFFFFFFFFFFFFFFFFFFFFFFFFFFFFFFF AND PUSH32 0x8BE0079C531659141344CD1FD0A4F28419497F9722A3DAAFE3B4186F6B6457E0 PUSH1 0x40 MLOAD PUSH1 0x40 MLOAD DUP1 SWAP2 SUB SWAP1 LOG3 POP POP JUMP JUMPDEST PUSH1 0x0 PUSH1 0x3 DUP6 DUP6 PUSH1 0x40 MLOAD PUSH2 0x1A79 SWAP3 SWAP2 SWAP1 PUSH2 0x28B0 JUMP JUMPDEST SWAP1 DUP2 MSTORE PUSH1 0x20 ADD PUSH1 0x40 MLOAD DUP1 SWAP2 SUB SWAP1 KECCAK256 PUSH1 0x4 ADD DUP4 DUP4 PUSH1 0x40 MLOAD PUSH2 0x1A9A SWAP3 SWAP2 SWAP1 PUSH2 0x28B0 JUMP JUMPDEST SWAP1 DUP2 MSTORE PUSH1 0x20 ADD PUSH1 0x40 MLOAD DUP1 SWAP2 SUB SWAP1 KECCAK256 PUSH1 0x5 ADD PUSH1 0x0 CALLER PUSH20 0xFFFFFFFFFFFFFFFFFFFFFFFFFFFFFFFFFFFFFFFF AND PUSH20 0xFFFFFFFFFFFFFFFFFFFFFFFFFFFFFFFFFFFFFFFF AND DUP2 MSTORE PUSH1 0x20 ADD SWAP1 DUP2 MSTORE PUSH1 0x20 ADD PUSH1 0x0 KECCAK256 PUSH1 0x0 ADD PUSH1 0x0 SWAP1 SLOAD SWAP1 PUSH2 0x100 EXP SWAP1 DIV PUSH1 0xFF AND SWAP1 POP SWAP5 SWAP4 POP POP POP POP JUMP JUMPDEST PUSH1 0x3 DUP3 DUP3 PUSH1 0x40 MLOAD PUSH2 0x1B15 SWAP3 SWAP2 SWAP1 PUSH2 0x28B0 JUMP JUMPDEST SWAP1 DUP2 MSTORE PUSH1 0x20 ADD PUSH1 0x40 MLOAD DUP1 SWAP2 SUB SWAP1 KECCAK256 PUSH1 0x3 ADD SLOAD PUSH1 0x2 PUSH1 0x0 CALLER PUSH20 0xFFFFFFFFFFFFFFFFFFFFFFFFFFFFFFFFFFFFFFFF AND PUSH20 0xFFFFFFFFFFFFFFFFFFFFFFFFFFFFFFFFFFFFFFFF AND DUP2 MSTORE PUSH1 0x20 ADD SWAP1 DUP2 MSTORE PUSH1 0x20 ADD PUSH1 0x0 KECCAK256 DUP2 SWAP1 SSTORE POP PUSH1 0x1 PUSH1 0x3 DUP4 DUP4 PUSH1 0x40 MLOAD PUSH2 0x1B7E SWAP3 SWAP2 SWAP1 PUSH2 0x28B0 JUMP JUMPDEST SWAP1 DUP2 MSTORE PUSH1 0x20 ADD PUSH1 0x40 MLOAD DUP1 SWAP2 SUB SWAP1 KECCAK256 PUSH1 0x7 ADD PUSH1 0x0 CALLER PUSH20 0xFFFFFFFFFFFFFFFFFFFFFFFFFFFFFFFFFFFFFFFF AND PUSH20 0xFFFFFFFFFFFFFFFFFFFFFFFFFFFFFFFFFFFFFFFF AND DUP2 MSTORE PUSH1 0x20 ADD SWAP1 DUP2 MSTORE PUSH1 0x20 ADD PUSH1 0x0 KECCAK256 PUSH1 0x0 PUSH2 0x100 EXP DUP2 SLOAD DUP2 PUSH1 0xFF MUL NOT AND SWAP1 DUP4 ISZERO ISZERO MUL OR SWAP1 SSTORE POP POP POP JUMP JUMPDEST PUSH1 0x0 DUP1 DUP4 DUP4 GT ISZERO PUSH2 0x1BFE JUMPI PUSH1 0x0 DUP1 SWAP2 POP SWAP2 POP PUSH2 0x1C08 JUMP JUMPDEST PUSH1 0x1 DUP4 DUP6 SUB SWAP2 POP SWAP2 POP JUMPDEST SWAP3 POP SWAP3 SWAP1 POP JUMP JUMPDEST PUSH1 0x0 DUP1 PUSH1 0x2 PUSH1 0x1 DUP5 PUSH2 0x1C21 SWAP2 SWAP1 PUSH2 0x2F0C JUMP JUMPDEST PUSH2 0x1C2B SWAP2 SWAP1 PUSH2 0x3639 JUMP JUMPDEST SWAP1 POP DUP3 SWAP2 POP JUMPDEST DUP2 DUP2 LT ISZERO PUSH2 0x1C66 JUMPI DUP1 SWAP2 POP PUSH1 0x2 DUP2 DUP3 DUP6 PUSH2 0x1C4B SWAP2 SWAP1 PUSH2 0x3639 JUMP JUMPDEST PUSH2 0x1C55 SWAP2 SWAP1 PUSH2 0x2F0C JUMP JUMPDEST PUSH2 0x1C5F SWAP2 SWAP1 PUSH2 0x3639 JUMP JUMPDEST SWAP1 POP PUSH2 0x1C31 JUMP JUMPDEST POP SWAP2 SWAP1 POP JUMP JUMPDEST PUSH2 0x1C76 DUP3 DUP3 PUSH2 0xDCA JUMP JUMPDEST PUSH2 0x1D05 JUMPI PUSH2 0x1C9B DUP2 PUSH20 0xFFFFFFFFFFFFFFFFFFFFFFFFFFFFFFFFFFFFFFFF AND PUSH1 0x14 PUSH2 0x1D09 JUMP JUMPDEST PUSH2 0x1CA9 DUP4 PUSH1 0x0 SHR PUSH1 0x20 PUSH2 0x1D09 JUMP JUMPDEST PUSH1 0x40 MLOAD PUSH1 0x20 ADD PUSH2 0x1CBA SWAP3 SWAP2 SWAP1 PUSH2 0x3733 JUMP JUMPDEST PUSH1 0x40 MLOAD PUSH1 0x20 DUP2 DUP4 SUB SUB DUP2 MSTORE SWAP1 PUSH1 0x40 MSTORE PUSH1 0x40 MLOAD PUSH32 0x8C379A000000000000000000000000000000000000000000000000000000000 DUP2 MSTORE PUSH1 0x4 ADD PUSH2 0x1CFC SWAP2 SWAP1 PUSH2 0x376D JUMP JUMPDEST PUSH1 0x40 MLOAD DUP1 SWAP2 SUB SWAP1 REVERT JUMPDEST POP POP JUMP JUMPDEST PUSH1 0x60 PUSH1 0x0 PUSH1 0x2 DUP4 PUSH1 0x2 PUSH2 0x1D1C SWAP2 SWAP1 PUSH2 0x3360 JUMP JUMPDEST PUSH2 0x1D26 SWAP2 SWAP1 PUSH2 0x2F0C JUMP JUMPDEST PUSH8 0xFFFFFFFFFFFFFFFF DUP2 GT ISZERO PUSH2 0x1D3F JUMPI PUSH2 0x1D3E PUSH2 0x22E5 JUMP JUMPDEST JUMPDEST PUSH1 0x40 MLOAD SWAP1 DUP1 DUP3 MSTORE DUP1 PUSH1 0x1F ADD PUSH1 0x1F NOT AND PUSH1 0x20 ADD DUP3 ADD PUSH1 0x40 MSTORE DUP1 ISZERO PUSH2 0x1D71 JUMPI DUP2 PUSH1 0x20 ADD PUSH1 0x1 DUP3 MUL DUP1 CALLDATASIZE DUP4 CALLDATACOPY DUP1 DUP3 ADD SWAP2 POP POP SWAP1 POP JUMPDEST POP SWAP1 POP PUSH32 0x3000000000000000000000000000000000000000000000000000000000000000 DUP2 PUSH1 0x0 DUP2 MLOAD DUP2 LT PUSH2 0x1DA9 JUMPI PUSH2 0x1DA8 PUSH2 0x2EDD JUMP JUMPDEST JUMPDEST PUSH1 0x20 ADD ADD SWAP1 PUSH31 0xFFFFFFFFFFFFFFFFFFFFFFFFFFFFFFFFFFFFFFFFFFFFFFFFFFFFFFFFFFFFFF NOT AND SWAP1 DUP2 PUSH1 0x0 BYTE SWAP1 MSTORE8 POP PUSH32 0x7800000000000000000000000000000000000000000000000000000000000000 DUP2 PUSH1 0x1 DUP2 MLOAD DUP2 LT PUSH2 0x1E0D JUMPI PUSH2 0x1E0C PUSH2 0x2EDD JUMP JUMPDEST JUMPDEST PUSH1 0x20 ADD ADD SWAP1 PUSH31 0xFFFFFFFFFFFFFFFFFFFFFFFFFFFFFFFFFFFFFFFFFFFFFFFFFFFFFFFFFFFFFF NOT AND SWAP1 DUP2 PUSH1 0x0 BYTE SWAP1 MSTORE8 POP PUSH1 0x0 PUSH1 0x1 DUP5 PUSH1 0x2 PUSH2 0x1E4D SWAP2 SWAP1 PUSH2 0x3360 JUMP JUMPDEST PUSH2 0x1E57 SWAP2 SWAP1 PUSH2 0x2F0C JUMP JUMPDEST SWAP1 POP JUMPDEST PUSH1 0x1 DUP2 GT ISZERO PUSH2 0x1EF7 JUMPI PUSH32 0x3031323334353637383961626364656600000000000000000000000000000000 PUSH1 0xF DUP7 AND PUSH1 0x10 DUP2 LT PUSH2 0x1E99 JUMPI PUSH2 0x1E98 PUSH2 0x2EDD JUMP JUMPDEST JUMPDEST BYTE PUSH1 0xF8 SHL DUP3 DUP3 DUP2 MLOAD DUP2 LT PUSH2 0x1EB0 JUMPI PUSH2 0x1EAF PUSH2 0x2EDD JUMP JUMPDEST JUMPDEST PUSH1 0x20 ADD ADD SWAP1 PUSH31 0xFFFFFFFFFFFFFFFFFFFFFFFFFFFFFFFFFFFFFFFFFFFFFFFFFFFFFFFFFFFFFF NOT AND SWAP1 DUP2 PUSH1 0x0 BYTE SWAP1 MSTORE8 POP PUSH1 0x4 DUP6 SWAP1 SHR SWAP5 POP DUP1 PUSH2 0x1EF0 SWAP1 PUSH2 0x378F JUMP JUMPDEST SWAP1 POP PUSH2 0x1E5A JUMP JUMPDEST POP PUSH1 0x0 DUP5 EQ PUSH2 0x1F3B JUMPI PUSH1 0x40 MLOAD PUSH32 0x8C379A000000000000000000000000000000000000000000000000000000000 DUP2 MSTORE PUSH1 0x4 ADD PUSH2 0x1F32 SWAP1 PUSH2 0x3804 JUMP JUMPDEST PUSH1 0x40 MLOAD DUP1 SWAP2 SUB SWAP1 REVERT JUMPDEST DUP1 SWAP2 POP POP SWAP3 SWAP2 POP POP JUMP JUMPDEST PUSH1 0x0 PUSH1 0x40 MLOAD SWAP1 POP SWAP1 JUMP JUMPDEST PUSH1 0x0 DUP1 REVERT JUMPDEST PUSH1 0x0 DUP1 REVERT JUMPDEST PUSH1 0x0 PUSH32 0xFFFFFFFF00000000000000000000000000000000000000000000000000000000 DUP3 AND SWAP1 POP SWAP2 SWAP1 POP JUMP JUMPDEST PUSH2 0x1F8E DUP2 PUSH2 0x1F59 JUMP JUMPDEST DUP2 EQ PUSH2 0x1F99 JUMPI PUSH1 0x0 DUP1 REVERT JUMPDEST POP JUMP JUMPDEST PUSH1 0x0 DUP2 CALLDATALOAD SWAP1 POP PUSH2 0x1FAB DUP2 PUSH2 0x1F85 JUMP JUMPDEST SWAP3 SWAP2 POP POP JUMP JUMPDEST PUSH1 0x0 PUSH1 0x20 DUP3 DUP5 SUB SLT ISZERO PUSH2 0x1FC7 JUMPI PUSH2 0x1FC6 PUSH2 0x1F4F JUMP JUMPDEST JUMPDEST PUSH1 0x0 PUSH2 0x1FD5 DUP5 DUP3 DUP6 ADD PUSH2 0x1F9C JUMP JUMPDEST SWAP2 POP POP SWAP3 SWAP2 POP POP JUMP JUMPDEST PUSH1 0x0 DUP2 ISZERO ISZERO SWAP1 POP SWAP2 SWAP1 POP JUMP JUMPDEST PUSH2 0x1FF3 DUP2 PUSH2 0x1FDE JUMP JUMPDEST DUP3 MSTORE POP POP JUMP JUMPDEST PUSH1 0x0 PUSH1 0x20 DUP3 ADD SWAP1 POP PUSH2 0x200E PUSH1 0x0 DUP4 ADD DUP5 PUSH2 0x1FEA JUMP JUMPDEST SWAP3 SWAP2 POP POP JUMP JUMPDEST PUSH1 0x0 DUP2 SWAP1 POP SWAP2 SWAP1 POP JUMP JUMPDEST PUSH2 0x2027 DUP2 PUSH2 0x2014 JUMP JUMPDEST DUP3 MSTORE POP POP JUMP JUMPDEST PUSH1 0x0 PUSH1 0x20 DUP3 ADD SWAP1 POP PUSH2 0x2042 PUSH1 0x0 DUP4 ADD DUP5 PUSH2 0x201E JUMP JUMPDEST SWAP3 SWAP2 POP POP JUMP JUMPDEST PUSH1 0x0 DUP2 SWAP1 POP SWAP2 SWAP1 POP JUMP JUMPDEST PUSH2 0x205B DUP2 PUSH2 0x2048 JUMP JUMPDEST DUP2 EQ PUSH2 0x2066 JUMPI PUSH1 0x0 DUP1 REVERT JUMPDEST POP JUMP JUMPDEST PUSH1 0x0 DUP2 CALLDATALOAD SWAP1 POP PUSH2 0x2078 DUP2 PUSH2 0x2052 JUMP JUMPDEST SWAP3 SWAP2 POP POP JUMP JUMPDEST PUSH1 0x0 PUSH1 0x20 DUP3 DUP5 SUB SLT ISZERO PUSH2 0x2094 JUMPI PUSH2 0x2093 PUSH2 0x1F4F JUMP JUMPDEST JUMPDEST PUSH1 0x0 PUSH2 0x20A2 DUP5 DUP3 DUP6 ADD PUSH2 0x2069 JUMP JUMPDEST SWAP2 POP POP SWAP3 SWAP2 POP POP JUMP JUMPDEST PUSH2 0x20B4 DUP2 PUSH2 0x2048 JUMP JUMPDEST DUP3 MSTORE POP POP JUMP JUMPDEST PUSH1 0x0 PUSH1 0x20 DUP3 ADD SWAP1 POP PUSH2 0x20CF PUSH1 0x0 DUP4 ADD DUP5 PUSH2 0x20AB JUMP JUMPDEST SWAP3 SWAP2 POP POP JUMP JUMPDEST PUSH1 0x0 PUSH20 0xFFFFFFFFFFFFFFFFFFFFFFFFFFFFFFFFFFFFFFFF DUP3 AND SWAP1 POP SWAP2 SWAP1 POP JUMP JUMPDEST PUSH1 0x0 PUSH2 0x2100 DUP3 PUSH2 0x20D5 JUMP JUMPDEST SWAP1 POP SWAP2 SWAP1 POP JUMP JUMPDEST PUSH2 0x2110 DUP2 PUSH2 0x20F5 JUMP JUMPDEST DUP2 EQ PUSH2 0x211B JUMPI PUSH1 0x0 DUP1 REVERT JUMPDEST POP JUMP JUMPDEST PUSH1 0x0 DUP2 CALLDATALOAD SWAP1 POP PUSH2 0x212D DUP2 PUSH2 0x2107 JUMP JUMPDEST SWAP3 SWAP2 POP POP JUMP JUMPDEST PUSH1 0x0 DUP1 PUSH1 0x40 DUP4 DUP6 SUB SLT ISZERO PUSH2 0x214A JUMPI PUSH2 0x2149 PUSH2 0x1F4F JUMP JUMPDEST JUMPDEST PUSH1 0x0 PUSH2 0x2158 DUP6 DUP3 DUP7 ADD PUSH2 0x2069 JUMP JUMPDEST SWAP3 POP POP PUSH1 0x20 PUSH2 0x2169 DUP6 DUP3 DUP7 ADD PUSH2 0x211E JUMP JUMPDEST SWAP2 POP POP SWAP3 POP SWAP3 SWAP1 POP JUMP JUMPDEST PUSH1 0x0 DUP1 REVERT JUMPDEST PUSH1 0x0 DUP1 REVERT JUMPDEST PUSH1 0x0 DUP1 REVERT JUMPDEST PUSH1 0x0 DUP1 DUP4 PUSH1 0x1F DUP5 ADD SLT PUSH2 0x2198 JUMPI PUSH2 0x2197 PUSH2 0x2173 JUMP JUMPDEST JUMPDEST DUP3 CALLDATALOAD SWAP1 POP PUSH8 0xFFFFFFFFFFFFFFFF DUP2 GT ISZERO PUSH2 0x21B5 JUMPI PUSH2 0x21B4 PUSH2 0x2178 JUMP JUMPDEST JUMPDEST PUSH1 0x20 DUP4 ADD SWAP2 POP DUP4 PUSH1 0x1 DUP3 MUL DUP4 ADD GT ISZERO PUSH2 0x21D1 JUMPI PUSH2 0x21D0 PUSH2 0x217D JUMP JUMPDEST JUMPDEST SWAP3 POP SWAP3 SWAP1 POP JUMP JUMPDEST PUSH1 0x0 DUP1 PUSH1 0x20 DUP4 DUP6 SUB SLT ISZERO PUSH2 0x21EF JUMPI PUSH2 0x21EE PUSH2 0x1F4F JUMP JUMPDEST JUMPDEST PUSH1 0x0 DUP4 ADD CALLDATALOAD PUSH8 0xFFFFFFFFFFFFFFFF DUP2 GT ISZERO PUSH2 0x220D JUMPI PUSH2 0x220C PUSH2 0x1F54 JUMP JUMPDEST JUMPDEST PUSH2 0x2219 DUP6 DUP3 DUP7 ADD PUSH2 0x2182 JUMP JUMPDEST SWAP3 POP SWAP3 POP POP SWAP3 POP SWAP3 SWAP1 POP JUMP JUMPDEST PUSH1 0x0 DUP1 PUSH1 0x0 DUP1 PUSH1 0x40 DUP6 DUP8 SUB SLT ISZERO PUSH2 0x223F JUMPI PUSH2 0x223E PUSH2 0x1F4F JUMP JUMPDEST JUMPDEST PUSH1 0x0 DUP6 ADD CALLDATALOAD PUSH8 0xFFFFFFFFFFFFFFFF DUP2 GT ISZERO PUSH2 0x225D JUMPI PUSH2 0x225C PUSH2 0x1F54 JUMP JUMPDEST JUMPDEST PUSH2 0x2269 DUP8 DUP3 DUP9 ADD PUSH2 0x2182 JUMP JUMPDEST SWAP5 POP SWAP5 POP POP PUSH1 0x20 DUP6 ADD CALLDATALOAD PUSH8 0xFFFFFFFFFFFFFFFF DUP2 GT ISZERO PUSH2 0x228C JUMPI PUSH2 0x228B PUSH2 0x1F54 JUMP JUMPDEST JUMPDEST PUSH2 0x2298 DUP8 DUP3 DUP9 ADD PUSH2 0x2182 JUMP JUMPDEST SWAP3 POP SWAP3 POP POP SWAP3 SWAP6 SWAP2 SWAP5 POP SWAP3 POP JUMP JUMPDEST PUSH1 0x0 PUSH1 0x40 DUP3 ADD SWAP1 POP PUSH2 0x22BB PUSH1 0x0 DUP4 ADD DUP6 PUSH2 0x201E JUMP JUMPDEST PUSH2 0x22C8 PUSH1 0x20 DUP4 ADD DUP5 PUSH2 0x201E JUMP JUMPDEST SWAP4 SWAP3 POP POP POP JUMP JUMPDEST PUSH1 0x0 DUP1 REVERT JUMPDEST PUSH1 0x0 PUSH1 0x1F NOT PUSH1 0x1F DUP4 ADD AND SWAP1 POP SWAP2 SWAP1 POP JUMP JUMPDEST PUSH32 0x4E487B7100000000000000000000000000000000000000000000000000000000 PUSH1 0x0 MSTORE PUSH1 0x41 PUSH1 0x4 MSTORE PUSH1 0x24 PUSH1 0x0 REVERT JUMPDEST PUSH2 0x231D DUP3 PUSH2 0x22D4 JUMP JUMPDEST DUP2 ADD DUP2 DUP2 LT PUSH8 0xFFFFFFFFFFFFFFFF DUP3 GT OR ISZERO PUSH2 0x233C JUMPI PUSH2 0x233B PUSH2 0x22E5 JUMP JUMPDEST JUMPDEST DUP1 PUSH1 0x40 MSTORE POP POP POP JUMP JUMPDEST PUSH1 0x0 PUSH2 0x234F PUSH2 0x1F45 JUMP JUMPDEST SWAP1 POP PUSH2 0x235B DUP3 DUP3 PUSH2 0x2314 JUMP JUMPDEST SWAP2 SWAP1 POP JUMP JUMPDEST PUSH1 0x0 PUSH8 0xFFFFFFFFFFFFFFFF DUP3 GT ISZERO PUSH2 0x237B JUMPI PUSH2 0x237A PUSH2 0x22E5 JUMP JUMPDEST JUMPDEST PUSH2 0x2384 DUP3 PUSH2 0x22D4 JUMP JUMPDEST SWAP1 POP PUSH1 0x20 DUP2 ADD SWAP1 POP SWAP2 SWAP1 POP JUMP JUMPDEST DUP3 DUP2 DUP4 CALLDATACOPY PUSH1 0x0 DUP4 DUP4 ADD MSTORE POP POP POP JUMP JUMPDEST PUSH1 0x0 PUSH2 0x23B3 PUSH2 0x23AE DUP5 PUSH2 0x2360 JUMP JUMPDEST PUSH2 0x2345 JUMP JUMPDEST SWAP1 POP DUP3 DUP2 MSTORE PUSH1 0x20 DUP2 ADD DUP5 DUP5 DUP5 ADD GT ISZERO PUSH2 0x23CF JUMPI PUSH2 0x23CE PUSH2 0x22CF JUMP JUMPDEST JUMPDEST PUSH2 0x23DA DUP5 DUP3 DUP6 PUSH2 0x2391 JUMP JUMPDEST POP SWAP4 SWAP3 POP POP POP JUMP JUMPDEST PUSH1 0x0 DUP3 PUSH1 0x1F DUP4 ADD SLT PUSH2 0x23F7 JUMPI PUSH2 0x23F6 PUSH2 0x2173 JUMP JUMPDEST JUMPDEST DUP2 CALLDATALOAD PUSH2 0x2407 DUP5 DUP3 PUSH1 0x20 DUP7 ADD PUSH2 0x23A0 JUMP JUMPDEST SWAP2 POP POP SWAP3 SWAP2 POP POP JUMP JUMPDEST PUSH1 0x0 PUSH1 0x20 DUP3 DUP5 SUB SLT ISZERO PUSH2 0x2426 JUMPI PUSH2 0x2425 PUSH2 0x1F4F JUMP JUMPDEST JUMPDEST PUSH1 0x0 DUP3 ADD CALLDATALOAD PUSH8 0xFFFFFFFFFFFFFFFF DUP2 GT ISZERO PUSH2 0x2444 JUMPI PUSH2 0x2443 PUSH2 0x1F54 JUMP JUMPDEST JUMPDEST PUSH2 0x2450 DUP5 DUP3 DUP6 ADD PUSH2 0x23E2 JUMP JUMPDEST SWAP2 POP POP SWAP3 SWAP2 POP POP JUMP JUMPDEST PUSH1 0x0 DUP2 MLOAD SWAP1 POP SWAP2 SWAP1 POP JUMP JUMPDEST PUSH1 0x0 DUP3 DUP3 MSTORE PUSH1 0x20 DUP3 ADD SWAP1 POP SWAP3 SWAP2 POP POP JUMP JUMPDEST PUSH1 0x0 JUMPDEST DUP4 DUP2 LT ISZERO PUSH2 0x2493 JUMPI DUP1 DUP3 ADD MLOAD DUP2 DUP5 ADD MSTORE PUSH1 0x20 DUP2 ADD SWAP1 POP PUSH2 0x2478 JUMP JUMPDEST PUSH1 0x0 DUP5 DUP5 ADD MSTORE POP POP POP POP JUMP JUMPDEST PUSH1 0x0 PUSH2 0x24AA DUP3 PUSH2 0x2459 JUMP JUMPDEST PUSH2 0x24B4 DUP2 DUP6 PUSH2 0x2464 JUMP JUMPDEST SWAP4 POP PUSH2 0x24C4 DUP2 DUP6 PUSH1 0x20 DUP7 ADD PUSH2 0x2475 JUMP JUMPDEST PUSH2 0x24CD DUP2 PUSH2 0x22D4 JUMP JUMPDEST DUP5 ADD SWAP2 POP POP SWAP3 SWAP2 POP POP JUMP JUMPDEST PUSH32 0x4E487B7100000000000000000000000000000000000000000000000000000000 PUSH1 0x0 MSTORE PUSH1 0x21 PUSH1 0x4 MSTORE PUSH1 0x24 PUSH1 0x0 REVERT JUMPDEST PUSH1 0x5 DUP2 LT PUSH2 0x2518 JUMPI PUSH2 0x2517 PUSH2 0x24D8 JUMP JUMPDEST JUMPDEST POP JUMP JUMPDEST PUSH1 0x0 DUP2 SWAP1 POP PUSH2 0x2529 DUP3 PUSH2 0x2507 JUMP JUMPDEST SWAP2 SWAP1 POP JUMP JUMPDEST PUSH1 0x0 PUSH2 0x2539 DUP3 PUSH2 0x251B JUMP JUMPDEST SWAP1 POP SWAP2 SWAP1 POP JUMP JUMPDEST PUSH2 0x2549 DUP2 PUSH2 0x252E JUMP JUMPDEST DUP3 MSTORE POP POP JUMP JUMPDEST PUSH1 0x0 PUSH1 0xA0 DUP3 ADD SWAP1 POP DUP2 DUP2 SUB PUSH1 0x0 DUP4 ADD MSTORE PUSH2 0x2569 DUP2 DUP9 PUSH2 0x249F JUMP JUMPDEST SWAP1 POP PUSH2 0x2578 PUSH1 0x20 DUP4 ADD DUP8 PUSH2 0x2540 JUMP JUMPDEST PUSH2 0x2585 PUSH1 0x40 DUP4 ADD DUP7 PUSH2 0x201E JUMP JUMPDEST PUSH2 0x2592 PUSH1 0x60 DUP4 ADD DUP6 PUSH2 0x201E JUMP JUMPDEST PUSH2 0x259F PUSH1 0x80 DUP4 ADD DUP5 PUSH2 0x201E JUMP JUMPDEST SWAP7 SWAP6 POP POP POP POP POP POP JUMP JUMPDEST PUSH2 0x25B2 DUP2 PUSH2 0x20F5 JUMP JUMPDEST DUP3 MSTORE POP POP JUMP JUMPDEST PUSH1 0x0 PUSH1 0x20 DUP3 ADD SWAP1 POP PUSH2 0x25CD PUSH1 0x0 DUP4 ADD DUP5 PUSH2 0x25A9 JUMP JUMPDEST SWAP3 SWAP2 POP POP JUMP JUMPDEST PUSH2 0x25DC DUP2 PUSH2 0x2014 JUMP JUMPDEST DUP2 EQ PUSH2 0x25E7 JUMPI PUSH1 0x0 DUP1 REVERT JUMPDEST POP JUMP JUMPDEST PUSH1 0x0 DUP2 CALLDATALOAD SWAP1 POP PUSH2 0x25F9 DUP2 PUSH2 0x25D3 JUMP JUMPDEST SWAP3 SWAP2 POP POP JUMP JUMPDEST PUSH2 0x2608 DUP2 PUSH2 0x1FDE JUMP JUMPDEST DUP2 EQ PUSH2 0x2613 JUMPI PUSH1 0x0 DUP1 REVERT JUMPDEST POP JUMP JUMPDEST PUSH1 0x0 DUP2 CALLDATALOAD SWAP1 POP PUSH2 0x2625 DUP2 PUSH2 0x25FF JUMP JUMPDEST SWAP3 SWAP2 POP POP JUMP JUMPDEST PUSH1 0x0 DUP1 PUSH1 0x0 DUP1 PUSH1 0x0 DUP1 PUSH1 0x80 DUP8 DUP10 SUB SLT ISZERO PUSH2 0x2648 JUMPI PUSH2 0x2647 PUSH2 0x1F4F JUMP JUMPDEST JUMPDEST PUSH1 0x0 DUP8 ADD CALLDATALOAD PUSH8 0xFFFFFFFFFFFFFFFF DUP2 GT ISZERO PUSH2 0x2666 JUMPI PUSH2 0x2665 PUSH2 0x1F54 JUMP JUMPDEST JUMPDEST PUSH2 0x2672 DUP10 DUP3 DUP11 ADD PUSH2 0x2182 JUMP JUMPDEST SWAP7 POP SWAP7 POP POP PUSH1 0x20 DUP8 ADD CALLDATALOAD PUSH8 0xFFFFFFFFFFFFFFFF DUP2 GT ISZERO PUSH2 0x2695 JUMPI PUSH2 0x2694 PUSH2 0x1F54 JUMP JUMPDEST JUMPDEST PUSH2 0x26A1 DUP10 DUP3 DUP11 ADD PUSH2 0x2182 JUMP JUMPDEST SWAP5 POP SWAP5 POP POP PUSH1 0x40 PUSH2 0x26B4 DUP10 DUP3 DUP11 ADD PUSH2 0x25EA JUMP JUMPDEST SWAP3 POP POP PUSH1 0x60 PUSH2 0x26C5 DUP10 DUP3 DUP11 ADD PUSH2 0x2616 JUMP JUMPDEST SWAP2 POP POP SWAP3 SWAP6 POP SWAP3 SWAP6 POP SWAP3 SWAP6 JUMP JUMPDEST PUSH1 0x0 DUP1 PUSH1 0x0 DUP1 PUSH1 0x60 DUP6 DUP8 SUB SLT ISZERO PUSH2 0x26EC JUMPI PUSH2 0x26EB PUSH2 0x1F4F JUMP JUMPDEST JUMPDEST PUSH1 0x0 DUP6 ADD CALLDATALOAD PUSH8 0xFFFFFFFFFFFFFFFF DUP2 GT ISZERO PUSH2 0x270A JUMPI PUSH2 0x2709 PUSH2 0x1F54 JUMP JUMPDEST JUMPDEST PUSH2 0x2716 DUP8 DUP3 DUP9 ADD PUSH2 0x2182 JUMP JUMPDEST SWAP5 POP SWAP5 POP POP PUSH1 0x20 PUSH2 0x2729 DUP8 DUP3 DUP9 ADD PUSH2 0x25EA JUMP JUMPDEST SWAP3 POP POP PUSH1 0x40 PUSH2 0x273A DUP8 DUP3 DUP9 ADD PUSH2 0x25EA JUMP JUMPDEST SWAP2 POP POP SWAP3 SWAP6 SWAP2 SWAP5 POP SWAP3 POP JUMP JUMPDEST PUSH1 0x0 DUP1 PUSH1 0x0 PUSH1 0x40 DUP5 DUP7 SUB SLT ISZERO PUSH2 0x275F JUMPI PUSH2 0x275E PUSH2 0x1F4F JUMP JUMPDEST JUMPDEST PUSH1 0x0 DUP5 ADD CALLDATALOAD PUSH8 0xFFFFFFFFFFFFFFFF DUP2 GT ISZERO PUSH2 0x277D JUMPI PUSH2 0x277C PUSH2 0x1F54 JUMP JUMPDEST JUMPDEST PUSH2 0x2789 DUP7 DUP3 DUP8 ADD PUSH2 0x2182 JUMP JUMPDEST SWAP4 POP SWAP4 POP POP PUSH1 0x20 PUSH2 0x279C DUP7 DUP3 DUP8 ADD PUSH2 0x25EA JUMP JUMPDEST SWAP2 POP POP SWAP3 POP SWAP3 POP SWAP3 JUMP JUMPDEST PUSH1 0x0 PUSH1 0x20 DUP3 ADD SWAP1 POP PUSH2 0x27BB PUSH1 0x0 DUP4 ADD DUP5 PUSH2 0x2540 JUMP JUMPDEST SWAP3 SWAP2 POP POP JUMP JUMPDEST PUSH1 0x0 PUSH1 0x20 DUP3 DUP5 SUB SLT ISZERO PUSH2 0x27D7 JUMPI PUSH2 0x27D6 PUSH2 0x1F4F JUMP JUMPDEST JUMPDEST PUSH1 0x0 PUSH2 0x27E5 DUP5 DUP3 DUP6 ADD PUSH2 0x211E JUMP JUMPDEST SWAP2 POP POP SWAP3 SWAP2 POP POP JUMP JUMPDEST PUSH32 0x416363657373436F6E74726F6C3A2063616E206F6E6C792072656E6F756E6365 PUSH1 0x0 DUP3 ADD MSTORE PUSH32 0x20726F6C657320666F722073656C660000000000000000000000000000000000 PUSH1 0x20 DUP3 ADD MSTORE POP JUMP JUMPDEST PUSH1 0x0 PUSH2 0x284A PUSH1 0x2F DUP4 PUSH2 0x2464 JUMP JUMPDEST SWAP2 POP PUSH2 0x2855 DUP3 PUSH2 0x27EE JUMP JUMPDEST PUSH1 0x40 DUP3 ADD SWAP1 POP SWAP2 SWAP1 POP JUMP JUMPDEST PUSH1 0x0 PUSH1 0x20 DUP3 ADD SWAP1 POP DUP2 DUP2 SUB PUSH1 0x0 DUP4 ADD MSTORE PUSH2 0x2879 DUP2 PUSH2 0x283D JUMP JUMPDEST SWAP1 POP SWAP2 SWAP1 POP JUMP JUMPDEST PUSH1 0x0 DUP2 SWAP1 POP SWAP3 SWAP2 POP POP JUMP JUMPDEST PUSH1 0x0 PUSH2 0x2897 DUP4 DUP6 PUSH2 0x2880 JUMP JUMPDEST SWAP4 POP PUSH2 0x28A4 DUP4 DUP6 DUP5 PUSH2 0x2391 JUMP JUMPDEST DUP3 DUP5 ADD SWAP1 POP SWAP4 SWAP3 POP POP POP JUMP JUMPDEST PUSH1 0x0 PUSH2 0x28BD DUP3 DUP5 DUP7 PUSH2 0x288B JUMP JUMPDEST SWAP2 POP DUP2 SWAP1 POP SWAP4 SWAP3 POP POP POP JUMP JUMPDEST PUSH1 0x0 DUP3 SWAP1 POP SWAP3 SWAP2 POP POP JUMP JUMPDEST PUSH32 0x4E487B7100000000000000000000000000000000000000000000000000000000 PUSH1 0x0 MSTORE PUSH1 0x22 PUSH1 0x4 MSTORE PUSH1 0x24 PUSH1 0x0 REVERT JUMPDEST PUSH1 0x0 PUSH1 0x2 DUP3 DIV SWAP1 POP PUSH1 0x1 DUP3 AND DUP1 PUSH2 0x291B JUMPI PUSH1 0x7F DUP3 AND SWAP2 POP JUMPDEST PUSH1 0x20 DUP3 LT DUP2 SUB PUSH2 0x292E JUMPI PUSH2 0x292D PUSH2 0x28D4 JUMP JUMPDEST JUMPDEST POP SWAP2 SWAP1 POP JUMP JUMPDEST PUSH1 0x0 DUP2 SWAP1 POP DUP2 PUSH1 0x0 MSTORE PUSH1 0x20 PUSH1 0x0 KECCAK256 SWAP1 POP SWAP2 SWAP1 POP JUMP JUMPDEST PUSH1 0x0 PUSH1 0x20 PUSH1 0x1F DUP4 ADD DIV SWAP1 POP SWAP2 SWAP1 POP JUMP JUMPDEST PUSH1 0x0 DUP3 DUP3 SHL SWAP1 POP SWAP3 SWAP2 POP POP JUMP JUMPDEST PUSH1 0x0 PUSH1 0x8 DUP4 MUL PUSH2 0x2996 PUSH32 0xFFFFFFFFFFFFFFFFFFFFFFFFFFFFFFFFFFFFFFFFFFFFFFFFFFFFFFFFFFFFFFFF DUP3 PUSH2 0x2959 JUMP JUMPDEST PUSH2 0x29A0 DUP7 DUP4 PUSH2 0x2959 JUMP JUMPDEST SWAP6 POP DUP1 NOT DUP5 AND SWAP4 POP DUP1 DUP7 AND DUP5 OR SWAP3 POP POP POP SWAP4 SWAP3 POP POP POP JUMP JUMPDEST PUSH1 0x0 DUP2 SWAP1 POP SWAP2 SWAP1 POP JUMP JUMPDEST PUSH1 0x0 PUSH2 0x29DD PUSH2 0x29D8 PUSH2 0x29D3 DUP5 PUSH2 0x2014 JUMP JUMPDEST PUSH2 0x29B8 JUMP JUMPDEST PUSH2 0x2014 JUMP JUMPDEST SWAP1 POP SWAP2 SWAP1 POP JUMP JUMPDEST PUSH1 0x0 DUP2 SWAP1 POP SWAP2 SWAP1 POP JUMP JUMPDEST PUSH2 0x29F7 DUP4 PUSH2 0x29C2 JUMP JUMPDEST PUSH2 0x2A0B PUSH2 0x2A03 DUP3 PUSH2 0x29E4 JUMP JUMPDEST DUP5 DUP5 SLOAD PUSH2 0x2966 JUMP JUMPDEST DUP3 SSTORE POP POP POP POP JUMP JUMPDEST PUSH1 0x0 SWAP1 JUMP JUMPDEST PUSH2 0x2A20 PUSH2 0x2A13 JUMP JUMPDEST PUSH2 0x2A2B DUP2 DUP5 DUP5 PUSH2 0x29EE JUMP JUMPDEST POP POP POP JUMP JUMPDEST JUMPDEST DUP2 DUP2 LT ISZERO PUSH2 0x2A4F JUMPI PUSH2 0x2A44 PUSH1 0x0 DUP3 PUSH2 0x2A18 JUMP JUMPDEST PUSH1 0x1 DUP2 ADD SWAP1 POP PUSH2 0x2A31 JUMP JUMPDEST POP POP JUMP JUMPDEST PUSH1 0x1F DUP3 GT ISZERO PUSH2 0x2A94 JUMPI PUSH2 0x2A65 DUP2 PUSH2 0x2934 JUMP JUMPDEST PUSH2 0x2A6E DUP5 PUSH2 0x2949 JUMP JUMPDEST DUP2 ADD PUSH1 0x20 DUP6 LT ISZERO PUSH2 0x2A7D JUMPI DUP2 SWAP1 POP JUMPDEST PUSH2 0x2A91 PUSH2 0x2A89 DUP6 PUSH2 0x2949 JUMP JUMPDEST DUP4 ADD DUP3 PUSH2 0x2A30 JUMP JUMPDEST POP POP JUMPDEST POP POP POP JUMP JUMPDEST PUSH1 0x0 DUP3 DUP3 SHR SWAP1 POP SWAP3 SWAP2 POP POP JUMP JUMPDEST PUSH1 0x0 PUSH2 0x2AB7 PUSH1 0x0 NOT DUP5 PUSH1 0x8 MUL PUSH2 0x2A99 JUMP JUMPDEST NOT DUP1 DUP4 AND SWAP2 POP POP SWAP3 SWAP2 POP POP JUMP JUMPDEST PUSH1 0x0 PUSH2 0x2AD0 DUP4 DUP4 PUSH2 0x2AA6 JUMP JUMPDEST SWAP2 POP DUP3 PUSH1 0x2 MUL DUP3 OR SWAP1 POP SWAP3 SWAP2 POP POP JUMP JUMPDEST PUSH2 0x2AEA DUP4 DUP4 PUSH2 0x28C9 JUMP JUMPDEST PUSH8 0xFFFFFFFFFFFFFFFF DUP2 GT ISZERO PUSH2 0x2B03 JUMPI PUSH2 0x2B02 PUSH2 0x22E5 JUMP JUMPDEST JUMPDEST PUSH2 0x2B0D DUP3 SLOAD PUSH2 0x2903 JUMP JUMPDEST PUSH2 0x2B18 DUP3 DUP3 DUP6 PUSH2 0x2A53 JUMP JUMPDEST PUSH1 0x0 PUSH1 0x1F DUP4 GT PUSH1 0x1 DUP2 EQ PUSH2 0x2B47 JUMPI PUSH1 0x0 DUP5 ISZERO PUSH2 0x2B35 JUMPI DUP3 DUP8 ADD CALLDATALOAD SWAP1 POP JUMPDEST PUSH2 0x2B3F DUP6 DUP3 PUSH2 0x2AC4 JUMP JUMPDEST DUP7 SSTORE POP PUSH2 0x2BA7 JUMP JUMPDEST PUSH1 0x1F NOT DUP5 AND PUSH2 0x2B55 DUP7 PUSH2 0x2934 JUMP JUMPDEST PUSH1 0x0 JUMPDEST DUP3 DUP2 LT ISZERO PUSH2 0x2B7D JUMPI DUP5 DUP10 ADD CALLDATALOAD DUP3 SSTORE PUSH1 0x1 DUP3 ADD SWAP2 POP PUSH1 0x20 DUP6 ADD SWAP5 POP PUSH1 0x20 DUP2 ADD SWAP1 POP PUSH2 0x2B58 JUMP JUMPDEST DUP7 DUP4 LT ISZERO PUSH2 0x2B9A JUMPI DUP5 DUP10 ADD CALLDATALOAD PUSH2 0x2B96 PUSH1 0x1F DUP10 AND DUP3 PUSH2 0x2AA6 JUMP JUMPDEST DUP4 SSTORE POP JUMPDEST PUSH1 0x1 PUSH1 0x2 DUP9 MUL ADD DUP9 SSTORE POP POP POP JUMPDEST POP POP POP POP POP POP POP JUMP JUMPDEST PUSH1 0x0 PUSH2 0x2BBC DUP4 DUP6 PUSH2 0x2464 JUMP JUMPDEST SWAP4 POP PUSH2 0x2BC9 DUP4 DUP6 DUP5 PUSH2 0x2391 JUMP JUMPDEST PUSH2 0x2BD2 DUP4 PUSH2 0x22D4 JUMP JUMPDEST DUP5 ADD SWAP1 POP SWAP4 SWAP3 POP POP POP JUMP JUMPDEST PUSH1 0x0 PUSH1 0x20 DUP3 ADD SWAP1 POP DUP2 DUP2 SUB PUSH1 0x0 DUP4 ADD MSTORE PUSH2 0x2BF8 DUP2 DUP5 DUP7 PUSH2 0x2BB0 JUMP JUMPDEST SWAP1 POP SWAP4 SWAP3 POP POP POP JUMP JUMPDEST PUSH32 0x50726F706F73616C20636F6C6C656374696F6E20706861736520686173206265 PUSH1 0x0 DUP3 ADD MSTORE PUSH32 0x656E20636C6F736564206F7220776173206E6F742079657420696E6974696174 PUSH1 0x20 DUP3 ADD MSTORE PUSH32 0x6564000000000000000000000000000000000000000000000000000000000000 PUSH1 0x40 DUP3 ADD MSTORE POP JUMP JUMPDEST PUSH1 0x0 PUSH2 0x2C83 PUSH1 0x42 DUP4 PUSH2 0x2464 JUMP JUMPDEST SWAP2 POP PUSH2 0x2C8E DUP3 PUSH2 0x2C01 JUMP JUMPDEST PUSH1 0x60 DUP3 ADD SWAP1 POP SWAP2 SWAP1 POP JUMP JUMPDEST PUSH1 0x0 PUSH1 0x20 DUP3 ADD SWAP1 POP DUP2 DUP2 SUB PUSH1 0x0 DUP4 ADD MSTORE PUSH2 0x2CB2 DUP2 PUSH2 0x2C76 JUMP JUMPDEST SWAP1 POP SWAP2 SWAP1 POP JUMP JUMPDEST PUSH1 0x0 DUP2 SWAP1 POP SWAP3 SWAP2 POP POP JUMP JUMPDEST PUSH1 0x0 PUSH2 0x2CD0 DUP4 DUP6 PUSH2 0x2CB9 JUMP JUMPDEST SWAP4 POP PUSH2 0x2CDD DUP4 DUP6 DUP5 PUSH2 0x2391 JUMP JUMPDEST DUP3 DUP5 ADD SWAP1 POP SWAP4 SWAP3 POP POP POP JUMP JUMPDEST PUSH1 0x0 PUSH2 0x2CF6 DUP3 DUP5 DUP7 PUSH2 0x2CC4 JUMP JUMPDEST SWAP2 POP DUP2 SWAP1 POP SWAP4 SWAP3 POP POP POP JUMP JUMPDEST PUSH1 0x0 DUP2 SWAP1 POP DUP2 PUSH1 0x0 MSTORE PUSH1 0x20 PUSH1 0x0 KECCAK256 SWAP1 POP SWAP2 SWAP1 POP JUMP JUMPDEST PUSH1 0x0 DUP2 SLOAD PUSH2 0x2D24 DUP2 PUSH2 0x2903 JUMP JUMPDEST PUSH2 0x2D2E DUP2 DUP7 PUSH2 0x2CB9 JUMP JUMPDEST SWAP5 POP PUSH1 0x1 DUP3 AND PUSH1 0x0 DUP2 EQ PUSH2 0x2D49 JUMPI PUSH1 0x1 DUP2 EQ PUSH2 0x2D5E JUMPI PUSH2 0x2D91 JUMP JUMPDEST PUSH1 0xFF NOT DUP4 AND DUP7 MSTORE DUP2 ISZERO ISZERO DUP3 MUL DUP7 ADD SWAP4 POP PUSH2 0x2D91 JUMP JUMPDEST PUSH2 0x2D67 DUP6 PUSH2 0x2D02 JUMP JUMPDEST PUSH1 0x0 JUMPDEST DUP4 DUP2 LT ISZERO PUSH2 0x2D89 JUMPI DUP2 SLOAD DUP2 DUP10 ADD MSTORE PUSH1 0x1 DUP3 ADD SWAP2 POP PUSH1 0x20 DUP2 ADD SWAP1 POP PUSH2 0x2D6A JUMP JUMPDEST DUP4 DUP9 ADD SWAP6 POP POP POP JUMPDEST POP POP POP SWAP3 SWAP2 POP POP JUMP JUMPDEST PUSH1 0x0 PUSH2 0x2DA6 DUP3 DUP5 PUSH2 0x2D17 JUMP JUMPDEST SWAP2 POP DUP2 SWAP1 POP SWAP3 SWAP2 POP POP JUMP JUMPDEST PUSH32 0x50726F706F73616C20616C726561647920696E206578697374656E6365000000 PUSH1 0x0 DUP3 ADD MSTORE POP JUMP JUMPDEST PUSH1 0x0 PUSH2 0x2DE7 PUSH1 0x1D DUP4 PUSH2 0x2464 JUMP JUMPDEST SWAP2 POP PUSH2 0x2DF2 DUP3 PUSH2 0x2DB1 JUMP JUMPDEST PUSH1 0x20 DUP3 ADD SWAP1 POP SWAP2 SWAP1 POP JUMP JUMPDEST PUSH1 0x0 PUSH1 0x20 DUP3 ADD SWAP1 POP DUP2 DUP2 SUB PUSH1 0x0 DUP4 ADD MSTORE PUSH2 0x2E16 DUP2 PUSH2 0x2DDA JUMP JUMPDEST SWAP1 POP SWAP2 SWAP1 POP JUMP JUMPDEST PUSH32 0x4E487B7100000000000000000000000000000000000000000000000000000000 PUSH1 0x0 MSTORE PUSH1 0x11 PUSH1 0x4 MSTORE PUSH1 0x24 PUSH1 0x0 REVERT JUMPDEST PUSH1 0x0 PUSH2 0x2E57 DUP3 PUSH2 0x2014 JUMP JUMPDEST SWAP2 POP PUSH32 0xFFFFFFFFFFFFFFFFFFFFFFFFFFFFFFFFFFFFFFFFFFFFFFFFFFFFFFFFFFFFFFFF DUP3 SUB PUSH2 0x2E89 JUMPI PUSH2 0x2E88 PUSH2 0x2E1D JUMP JUMPDEST JUMPDEST PUSH1 0x1 DUP3 ADD SWAP1 POP SWAP2 SWAP1 POP JUMP JUMPDEST PUSH1 0x0 PUSH1 0x60 DUP3 ADD SWAP1 POP DUP2 DUP2 SUB PUSH1 0x0 DUP4 ADD MSTORE PUSH2 0x2EAF DUP2 DUP8 DUP10 PUSH2 0x2BB0 JUMP JUMPDEST SWAP1 POP DUP2 DUP2 SUB PUSH1 0x20 DUP4 ADD MSTORE PUSH2 0x2EC4 DUP2 DUP6 DUP8 PUSH2 0x2BB0 JUMP JUMPDEST SWAP1 POP PUSH2 0x2ED3 PUSH1 0x40 DUP4 ADD DUP5 PUSH2 0x201E JUMP JUMPDEST SWAP7 SWAP6 POP POP POP POP POP POP JUMP JUMPDEST PUSH32 0x4E487B7100000000000000000000000000000000000000000000000000000000 PUSH1 0x0 MSTORE PUSH1 0x32 PUSH1 0x4 MSTORE PUSH1 0x24 PUSH1 0x0 REVERT JUMPDEST PUSH1 0x0 PUSH2 0x2F17 DUP3 PUSH2 0x2014 JUMP JUMPDEST SWAP2 POP PUSH2 0x2F22 DUP4 PUSH2 0x2014 JUMP JUMPDEST SWAP3 POP DUP3 DUP3 ADD SWAP1 POP DUP1 DUP3 GT ISZERO PUSH2 0x2F3A JUMPI PUSH2 0x2F39 PUSH2 0x2E1D JUMP JUMPDEST JUMPDEST SWAP3 SWAP2 POP POP JUMP JUMPDEST PUSH32 0x566F7465206973206E6F7420696E2070726F6772657373000000000000000000 PUSH1 0x0 DUP3 ADD MSTORE POP JUMP JUMPDEST PUSH1 0x0 PUSH2 0x2F76 PUSH1 0x17 DUP4 PUSH2 0x2464 JUMP JUMPDEST SWAP2 POP PUSH2 0x2F81 DUP3 PUSH2 0x2F40 JUMP JUMPDEST PUSH1 0x20 DUP3 ADD SWAP1 POP SWAP2 SWAP1 POP JUMP JUMPDEST PUSH1 0x0 PUSH1 0x20 DUP3 ADD SWAP1 POP DUP2 DUP2 SUB PUSH1 0x0 DUP4 ADD MSTORE PUSH2 0x2FA5 DUP2 PUSH2 0x2F69 JUMP JUMPDEST SWAP1 POP SWAP2 SWAP1 POP JUMP JUMPDEST PUSH32 0x766F74696E6720706572696F6420686173206E6F742065787069726564000000 PUSH1 0x0 DUP3 ADD MSTORE POP JUMP JUMPDEST PUSH1 0x0 PUSH2 0x2FE2 PUSH1 0x1D DUP4 PUSH2 0x2464 JUMP JUMPDEST SWAP2 POP PUSH2 0x2FED DUP3 PUSH2 0x2FAC JUMP JUMPDEST PUSH1 0x20 DUP3 ADD SWAP1 POP SWAP2 SWAP1 POP JUMP JUMPDEST PUSH1 0x0 PUSH1 0x20 DUP3 ADD SWAP1 POP DUP2 DUP2 SUB PUSH1 0x0 DUP4 ADD MSTORE PUSH2 0x3011 DUP2 PUSH2 0x2FD5 JUMP JUMPDEST SWAP1 POP SWAP2 SWAP1 POP JUMP JUMPDEST PUSH32 0x70726F706F73616C206E6F74207965742073746172746564206F722065787069 PUSH1 0x0 DUP3 ADD MSTORE PUSH32 0x7265640000000000000000000000000000000000000000000000000000000000 PUSH1 0x20 DUP3 ADD MSTORE POP JUMP JUMPDEST PUSH1 0x0 PUSH2 0x3074 PUSH1 0x23 DUP4 PUSH2 0x2464 JUMP JUMPDEST SWAP2 POP PUSH2 0x307F DUP3 PUSH2 0x3018 JUMP JUMPDEST PUSH1 0x40 DUP3 ADD SWAP1 POP SWAP2 SWAP1 POP JUMP JUMPDEST PUSH1 0x0 PUSH1 0x20 DUP3 ADD SWAP1 POP DUP2 DUP2 SUB PUSH1 0x0 DUP4 ADD MSTORE PUSH2 0x30A3 DUP2 PUSH2 0x3067 JUMP JUMPDEST SWAP1 POP SWAP2 SWAP1 POP JUMP JUMPDEST PUSH32 0x766F74696E672074696D65206578706972656420666F7220746869732070726F PUSH1 0x0 DUP3 ADD MSTORE PUSH32 0x706F73616C000000000000000000000000000000000000000000000000000000 PUSH1 0x20 DUP3 ADD MSTORE POP JUMP JUMPDEST PUSH1 0x0 PUSH2 0x3106 PUSH1 0x25 DUP4 PUSH2 0x2464 JUMP JUMPDEST SWAP2 POP PUSH2 0x3111 DUP3 PUSH2 0x30AA JUMP JUMPDEST PUSH1 0x40 DUP3 ADD SWAP1 POP SWAP2 SWAP1 POP JUMP JUMPDEST PUSH1 0x0 PUSH1 0x20 DUP3 ADD SWAP1 POP DUP2 DUP2 SUB PUSH1 0x0 DUP4 ADD MSTORE PUSH2 0x3135 DUP2 PUSH2 0x30F9 JUMP JUMPDEST SWAP1 POP SWAP2 SWAP1 POP JUMP JUMPDEST PUSH32 0x7573657220616C726561647920766F746564206F6E20746869732070726F706F PUSH1 0x0 DUP3 ADD MSTORE PUSH32 0x73616C0000000000000000000000000000000000000000000000000000000000 PUSH1 0x20 DUP3 ADD MSTORE POP JUMP JUMPDEST PUSH1 0x0 PUSH2 0x3198 PUSH1 0x23 DUP4 PUSH2 0x2464 JUMP JUMPDEST SWAP2 POP PUSH2 0x31A3 DUP3 PUSH2 0x313C JUMP JUMPDEST PUSH1 0x40 DUP3 ADD SWAP1 POP SWAP2 SWAP1 POP JUMP JUMPDEST PUSH1 0x0 PUSH1 0x20 DUP3 ADD SWAP1 POP DUP2 DUP2 SUB PUSH1 0x0 DUP4 ADD MSTORE PUSH2 0x31C7 DUP2 PUSH2 0x318B JUMP JUMPDEST SWAP1 POP SWAP2 SWAP1 POP JUMP JUMPDEST PUSH32 0x6E6F7420656E6F756768206372656469747320617661696C61626C6500000000 PUSH1 0x0 DUP3 ADD MSTORE POP JUMP JUMPDEST PUSH1 0x0 PUSH2 0x3204 PUSH1 0x1C DUP4 PUSH2 0x2464 JUMP JUMPDEST SWAP2 POP PUSH2 0x320F DUP3 PUSH2 0x31CE JUMP JUMPDEST PUSH1 0x20 DUP3 ADD SWAP1 POP SWAP2 SWAP1 POP JUMP JUMPDEST PUSH1 0x0 PUSH1 0x20 DUP3 ADD SWAP1 POP DUP2 DUP2 SUB PUSH1 0x0 DUP4 ADD MSTORE PUSH2 0x3233 DUP2 PUSH2 0x31F7 JUMP JUMPDEST SWAP1 POP SWAP2 SWAP1 POP JUMP JUMPDEST PUSH1 0x0 PUSH1 0x80 DUP3 ADD SWAP1 POP PUSH2 0x324F PUSH1 0x0 DUP4 ADD DUP9 PUSH2 0x25A9 JUMP JUMPDEST DUP2 DUP2 SUB PUSH1 0x20 DUP4 ADD MSTORE PUSH2 0x3262 DUP2 DUP7 DUP9 PUSH2 0x2BB0 JUMP JUMPDEST SWAP1 POP PUSH2 0x3271 PUSH1 0x40 DUP4 ADD DUP6 PUSH2 0x1FEA JUMP JUMPDEST PUSH2 0x327E PUSH1 0x60 DUP4 ADD DUP5 PUSH2 0x201E JUMP JUMPDEST SWAP7 SWAP6 POP POP POP POP POP POP JUMP JUMPDEST PUSH32 0x566F74696E6720706572696F642063616E6E6F74206265203000000000000000 PUSH1 0x0 DUP3 ADD MSTORE POP JUMP JUMPDEST PUSH1 0x0 PUSH2 0x32BE PUSH1 0x19 DUP4 PUSH2 0x2464 JUMP JUMPDEST SWAP2 POP PUSH2 0x32C9 DUP3 PUSH2 0x3288 JUMP JUMPDEST PUSH1 0x20 DUP3 ADD SWAP1 POP SWAP2 SWAP1 POP JUMP JUMPDEST PUSH1 0x0 PUSH1 0x20 DUP3 ADD SWAP1 POP DUP2 DUP2 SUB PUSH1 0x0 DUP4 ADD MSTORE PUSH2 0x32ED DUP2 PUSH2 0x32B1 JUMP JUMPDEST SWAP1 POP SWAP2 SWAP1 POP JUMP JUMPDEST PUSH32 0x566F74696E6720637265646974732063616E6E6F742062652030000000000000 PUSH1 0x0 DUP3 ADD MSTORE POP JUMP JUMPDEST PUSH1 0x0 PUSH2 0x332A PUSH1 0x1A DUP4 PUSH2 0x2464 JUMP JUMPDEST SWAP2 POP PUSH2 0x3335 DUP3 PUSH2 0x32F4 JUMP JUMPDEST PUSH1 0x20 DUP3 ADD SWAP1 POP SWAP2 SWAP1 POP JUMP JUMPDEST PUSH1 0x0 PUSH1 0x20 DUP3 ADD SWAP1 POP DUP2 DUP2 SUB PUSH1 0x0 DUP4 ADD MSTORE PUSH2 0x3359 DUP2 PUSH2 0x331D JUMP JUMPDEST SWAP1 POP SWAP2 SWAP1 POP JUMP JUMPDEST PUSH1 0x0 PUSH2 0x336B DUP3 PUSH2 0x2014 JUMP JUMPDEST SWAP2 POP PUSH2 0x3376 DUP4 PUSH2 0x2014 JUMP JUMPDEST SWAP3 POP DUP3 DUP3 MUL PUSH2 0x3384 DUP2 PUSH2 0x2014 JUMP JUMPDEST SWAP2 POP DUP3 DUP3 DIV DUP5 EQ DUP4 ISZERO OR PUSH2 0x339B JUMPI PUSH2 0x339A PUSH2 0x2E1D JUMP JUMPDEST JUMPDEST POP SWAP3 SWAP2 POP POP JUMP JUMPDEST PUSH32 0x70726F706F73616C20686173206E6F74207965742073746172746564206F7220 PUSH1 0x0 DUP3 ADD MSTORE PUSH32 0x6578706972656400000000000000000000000000000000000000000000000000 PUSH1 0x20 DUP3 ADD MSTORE POP JUMP JUMPDEST PUSH1 0x0 PUSH2 0x33FE PUSH1 0x27 DUP4 PUSH2 0x2464 JUMP JUMPDEST SWAP2 POP PUSH2 0x3409 DUP3 PUSH2 0x33A2 JUMP JUMPDEST PUSH1 0x40 DUP3 ADD SWAP1 POP SWAP2 SWAP1 POP JUMP JUMPDEST PUSH1 0x0 PUSH1 0x20 DUP3 ADD SWAP1 POP DUP2 DUP2 SUB PUSH1 0x0 DUP4 ADD MSTORE PUSH2 0x342D DUP2 PUSH2 0x33F1 JUMP JUMPDEST SWAP1 POP SWAP2 SWAP1 POP JUMP JUMPDEST PUSH32 0x766F74696E672074696D6520616C726561647920657870697265640000000000 PUSH1 0x0 DUP3 ADD MSTORE POP JUMP JUMPDEST PUSH1 0x0 PUSH2 0x346A PUSH1 0x1B DUP4 PUSH2 0x2464 JUMP JUMPDEST SWAP2 POP PUSH2 0x3475 DUP3 PUSH2 0x3434 JUMP JUMPDEST PUSH1 0x20 DUP3 ADD SWAP1 POP SWAP2 SWAP1 POP JUMP JUMPDEST PUSH1 0x0 PUSH1 0x20 DUP3 ADD SWAP1 POP DUP2 DUP2 SUB PUSH1 0x0 DUP4 ADD MSTORE PUSH2 0x3499 DUP2 PUSH2 0x345D JUMP JUMPDEST SWAP1 POP SWAP2 SWAP1 POP JUMP JUMPDEST PUSH32 0x50726F706F73616C2073686F756C6420626520696E2074616C6C790000000000 PUSH1 0x0 DUP3 ADD MSTORE POP JUMP JUMPDEST PUSH1 0x0 PUSH2 0x34D6 PUSH1 0x1B DUP4 PUSH2 0x2464 JUMP JUMPDEST SWAP2 POP PUSH2 0x34E1 DUP3 PUSH2 0x34A0 JUMP JUMPDEST PUSH1 0x20 DUP3 ADD SWAP1 POP SWAP2 SWAP1 POP JUMP JUMPDEST PUSH1 0x0 PUSH1 0x20 DUP3 ADD SWAP1 POP DUP2 DUP2 SUB PUSH1 0x0 DUP4 ADD MSTORE PUSH2 0x3505 DUP2 PUSH2 0x34C9 JUMP JUMPDEST SWAP1 POP SWAP2 SWAP1 POP JUMP JUMPDEST PUSH32 0x4F776E61626C653A206E6577206F776E657220697320746865207A65726F2061 PUSH1 0x0 DUP3 ADD MSTORE PUSH32 0x6464726573730000000000000000000000000000000000000000000000000000 PUSH1 0x20 DUP3 ADD MSTORE POP JUMP JUMPDEST PUSH1 0x0 PUSH2 0x3568 PUSH1 0x26 DUP4 PUSH2 0x2464 JUMP JUMPDEST SWAP2 POP PUSH2 0x3573 DUP3 PUSH2 0x350C JUMP JUMPDEST PUSH1 0x40 DUP3 ADD SWAP1 POP SWAP2 SWAP1 POP JUMP JUMPDEST PUSH1 0x0 PUSH1 0x20 DUP3 ADD SWAP1 POP DUP2 DUP2 SUB PUSH1 0x0 DUP4 ADD MSTORE PUSH2 0x3597 DUP2 PUSH2 0x355B JUMP JUMPDEST SWAP1 POP SWAP2 SWAP1 POP JUMP JUMPDEST PUSH32 0x4F776E61626C653A2063616C6C6572206973206E6F7420746865206F776E6572 PUSH1 0x0 DUP3 ADD MSTORE POP JUMP JUMPDEST PUSH1 0x0 PUSH2 0x35D4 PUSH1 0x20 DUP4 PUSH2 0x2464 JUMP JUMPDEST SWAP2 POP PUSH2 0x35DF DUP3 PUSH2 0x359E JUMP JUMPDEST PUSH1 0x20 DUP3 ADD SWAP1 POP SWAP2 SWAP1 POP JUMP JUMPDEST PUSH1 0x0 PUSH1 0x20 DUP3 ADD SWAP1 POP DUP2 DUP2 SUB PUSH1 0x0 DUP4 ADD MSTORE PUSH2 0x3603 DUP2 PUSH2 0x35C7 JUMP JUMPDEST SWAP1 POP SWAP2 SWAP1 POP JUMP JUMPDEST PUSH32 0x4E487B7100000000000000000000000000000000000000000000000000000000 PUSH1 0x0 MSTORE PUSH1 0x12 PUSH1 0x4 MSTORE PUSH1 0x24 PUSH1 0x0 REVERT JUMPDEST PUSH1 0x0 PUSH2 0x3644 DUP3 PUSH2 0x2014 JUMP JUMPDEST SWAP2 POP PUSH2 0x364F DUP4 PUSH2 0x2014 JUMP JUMPDEST SWAP3 POP DUP3 PUSH2 0x365F JUMPI PUSH2 0x365E PUSH2 0x360A JUMP JUMPDEST JUMPDEST DUP3 DUP3 DIV SWAP1 POP SWAP3 SWAP2 POP POP JUMP JUMPDEST PUSH32 0x416363657373436F6E74726F6C3A206163636F756E7420000000000000000000 PUSH1 0x0 DUP3 ADD MSTORE POP JUMP JUMPDEST PUSH1 0x0 PUSH2 0x36A0 PUSH1 0x17 DUP4 PUSH2 0x2880 JUMP JUMPDEST SWAP2 POP PUSH2 0x36AB DUP3 PUSH2 0x366A JUMP JUMPDEST PUSH1 0x17 DUP3 ADD SWAP1 POP SWAP2 SWAP1 POP JUMP JUMPDEST PUSH1 0x0 PUSH2 0x36C1 DUP3 PUSH2 0x2459 JUMP JUMPDEST PUSH2 0x36CB DUP2 DUP6 PUSH2 0x2880 JUMP JUMPDEST SWAP4 POP PUSH2 0x36DB DUP2 DUP6 PUSH1 0x20 DUP7 ADD PUSH2 0x2475 JUMP JUMPDEST DUP1 DUP5 ADD SWAP2 POP POP SWAP3 SWAP2 POP POP JUMP JUMPDEST PUSH32 0x206973206D697373696E6720726F6C6520000000000000000000000000000000 PUSH1 0x0 DUP3 ADD MSTORE POP JUMP JUMPDEST PUSH1 0x0 PUSH2 0x371D PUSH1 0x11 DUP4 PUSH2 0x2880 JUMP JUMPDEST SWAP2 POP PUSH2 0x3728 DUP3 PUSH2 0x36E7 JUMP JUMPDEST PUSH1 0x11 DUP3 ADD SWAP1 POP SWAP2 SWAP1 POP JUMP JUMPDEST PUSH1 0x0 PUSH2 0x373E DUP3 PUSH2 0x3693 JUMP JUMPDEST SWAP2 POP PUSH2 0x374A DUP3 DUP6 PUSH2 0x36B6 JUMP JUMPDEST SWAP2 POP PUSH2 0x3755 DUP3 PUSH2 0x3710 JUMP JUMPDEST SWAP2 POP PUSH2 0x3761 DUP3 DUP5 PUSH2 0x36B6 JUMP JUMPDEST SWAP2 POP DUP2 SWAP1 POP SWAP4 SWAP3 POP POP POP JUMP JUMPDEST PUSH1 0x0 PUSH1 0x20 DUP3 ADD SWAP1 POP DUP2 DUP2 SUB PUSH1 0x0 DUP4 ADD MSTORE PUSH2 0x3787 DUP2 DUP5 PUSH2 0x249F JUMP JUMPDEST SWAP1 POP SWAP3 SWAP2 POP POP JUMP JUMPDEST PUSH1 0x0 PUSH2 0x379A DUP3 PUSH2 0x2014 JUMP JUMPDEST SWAP2 POP PUSH1 0x0 DUP3 SUB PUSH2 0x37AD JUMPI PUSH2 0x37AC PUSH2 0x2E1D JUMP JUMPDEST JUMPDEST PUSH1 0x1 DUP3 SUB SWAP1 POP SWAP2 SWAP1 POP JUMP JUMPDEST PUSH32 0x537472696E67733A20686578206C656E67746820696E73756666696369656E74 PUSH1 0x0 DUP3 ADD MSTORE POP JUMP JUMPDEST PUSH1 0x0 PUSH2 0x37EE PUSH1 0x20 DUP4 PUSH2 0x2464 JUMP JUMPDEST SWAP2 POP PUSH2 0x37F9 DUP3 PUSH2 0x37B8 JUMP JUMPDEST PUSH1 0x20 DUP3 ADD SWAP1 POP SWAP2 SWAP1 POP JUMP JUMPDEST PUSH1 0x0 PUSH1 0x20 DUP3 ADD SWAP1 POP DUP2 DUP2 SUB PUSH1 0x0 DUP4 ADD MSTORE PUSH2 0x381D DUP2 PUSH2 0x37E1 JUMP JUMPDEST SWAP1 POP SWAP2 SWAP1 POP JUMP INVALID LOG2 PUSH5 0x6970667358 0x22 SLT KECCAK256 EXP 0x22 0xDA ADDRESS RETURNDATACOPY SWAP14 0xC6 SELFBALANCE NUMBER PUSH23 0x35856174D7F5C79B1811F05D2665070C1D6D6381143664 PUSH20 0x6F6C634300081100330000000000000000000000 "},"methodIdentifiers":{"DEFAULT_ADMIN_ROLE()":"a217fddf","castVote(string,string,uint256,bool)":"923f852a","countVotesForProposal(string,string)":"66a5f53e","createProposal(string,string)":"65e481e2","createVotingRound(string)":"38ee4a2c","extendVotingRound(string,uint256)":"d5c7e963","getRoleAdmin(bytes32)":"248a9ca3","getUserCredits()":"2092cb33","getVotingRoundExpirationTime(string)":"a5323156","getVotingRoundStatus(string)":"d7cea40d","grantRole(bytes32,address)":"2f2ff15d","hasRole(bytes32,address)":"91d14854","owner()":"8da5cb5b","renounceOwnership()":"715018a6","renounceRole(bytes32,address)":"36568abe","revokeRole(bytes32,address)":"d547741f","setRoundToActiveVoting(string,uint256,uint256)":"d2744025","setRoundToEnded(string)":"e0cbc601","setRoundToTally(string)":"8c1d30ae","supportsInterface(bytes4)":"01ffc9a7","transferOwnership(address)":"f2fde38b","votingRounds(string)":"7c12a5ca"}}}}}